:020000040000FA
:10000000B85A0020B9070000C1070000C30700006C
:10001000C5070000C7070000C90700000000000076
:10002000000000000000000000000000CB070000FE
:10003000CD07000000000000CF070000D10700003E
:10004000D3070000D5070000D7070000D90700003C
:10005000DB070000F3090000D1080000E107000001
:10006000E3070000E5070000E7070000E9070000DC
:10007000EB070000ED070000EF070000F1070000AC
:10008000F3070000F5070000F7070000410B000030
:10009000FB070000130C0000FF0700003B0C0000F2
:1000A0000308000005080000070800000908000018
:1000B0000B0800000D0800000F08000011080000E8
:1000C00013080000150800001708000019080000B8
:1000D0001B0800001D0800001F0800002108000088
:1000E0002308000025080000000000002708000089
:1000F000290800002B0800007B0C00002F080000DE
:1001000031080000330800003508000037080000FF
:100110000000000000000000390800003B0800005B
:100120003D0800003F080000790C00004308000073
:100130004508000047080000490800004B0800007F
:1001400000000000000000000000000000000000AF
:100150004D0800004F08000051080000530800003F
:10016000000000000000000000000000000000008F
:10017000000000000000000000000000000000007F
:10018000000000000000000000000000000000006F
:10019000000000000000000000000000000000005F
:1001A000000000000000000000000000000000004F
:1001B0005508000057080000590800005B080000BF
:1001C0005D0800005F08000061080000630800008F
:1001D0006508000067080000690800006B0800005F
:1001E0006D0800006F0800007108000000000000AA
:1001F0000000000073080000750800007708000088
:10020000790800007B0800000000000000000000EA
:100210007D0800007F0800008108000083080000BE
:100220008508000087080000890800008B0800008E
:100230008D0800008F08000091080000930800005E
:100240009508000097080000990800009B0800002E
:100250009D0800009F080000A1080000A3080000FE
:10026000A5080000A7080000A908000000F002F897
:1002700000F05AF80AA090E8000C82448344AAF1E6
:100280000107DA4501D100F04FF8AFF2090EBAE8E4
:100290000F0013F0010F18BFFB1A43F001031847BA
:1002A0005C3E00007C3E00000A4410F8014B14F054
:1002B0000F0508BF10F8015B240908BF10F8014BB7
:1002C0006D1E05D010F8013B6D1E01F8013BF9D100
:1002D000641E03D0641E01F8015BFBD19142E4D39C
:1002E000704700000023002400250026103A28BF94
:1002F00078C1FBD8520728BF30C148BF0B60704798
:10030000642903F05F81782903F09681632903F063
:10031000D382732903F0D882002070471FB503F001
:100320003FFB1FBD10B510BD03F0FCFA1146FFF7EF
:10033000F5FF00F01BF903F01AFB03B4FFF7F2FF1F
:1003400003BC03F01FFB0000EFF3108072B6704790
:10035000EFF310807047EFF3108062B6704730BF44
:10036000704780F311887047EFF3118070470000E9
:100370000138FDD17047000010B5EC4802F01EF9BD
:10038000EB4801F073FEEA48401C01F06FFEE848BC
:10039000801C01F06BFEE648C01C01F067FEE448DB
:1003A000001D01F063FEE248401D01F05FFEE148E0
:1003B00001F05CFEDF48401C01F058FEDE4801F011
:1003C00055FEDB48401D02F09FFADC4801F04EFE6E
:1003D000DA48401C01F04AFED848801C01F046FE75
:1003E0000020D749C86600220221D64801F0A0F9B2
:1003F000082301221946D34801F045F801220821BB
:10040000D04800F0B3FF082301220221CE4801F0BA
:100410003AF801220221CC4800F0A8FF082301226B
:100420000E21CA4801F02FF801220E21C74800F022
:100430009DFF0A2301221121C44801F024F8002263
:100440001121C24800F092FF082301220221BD4879
:1004500001F019F801220221BA4800F087FF0321B8
:100460004FF0402001F095FA40F2014001F01EFBF0
:10047000012001F01BFBB64802F060FC0021B448EB
:1004800002F085FD02F044F904466023B14A21469A
:10049000AF4802F06DFCAE4802F0ABFC3021AE4834
:1004A00001F077FAAD4802F049FC0021AB4802F0B8
:1004B0006EFD02F02DF904466823A64A2146A7489E
:1004C00002F056FCA54802F094FCA54801F0EEFAB3
:1004D000A44801F0EBFA0823012240219E4800F0D5
:1004E000D2FF012240219C4800F040FF0A23012254
:1004F0008021994800F0C7FF00228021964800F033
:1005000035FF2121984802F083FA0021964802F035
:100510000CFB964AFF21944802F02CFB22219448C0
:1005200002F076FA0021924802F0FFFA8F4AFF218A
:100530008F4802F01FFB21218E4802F069FA00214A
:100540008C4802F0F2FA894AFF218A4802F012FB35
:100550000521152001F036FB10214A2001F032FB65
:100560000020854908808549088010BD86B04AF67C
:10057000AA247E4800904FF001091021744802F02F
:10058000E6FC00F067FC0121774802F067FB0121DF
:10059000774802F063FB0121764802F05FFB1520EB
:1005A00001F032FB232001F02FFB252001F02CFB72
:1005B000272001F029FB092002F033FD02216448C5
:1005C00002F0D5FC01F0B4FA4FF6FF71664802F074
:1005D00011FA04A800F05DFA002069490870634828
:1005E000634988620846C06840F2011108436049C7
:1005F000C8600120634908604FF0000800F065FB07
:100600000421614802F003FF0AE05D4800780128F8
:1006100006D100205A49087008F1010000F0FF08D7
:10062000B8F1140FF1DB0020564908600120091FC2
:10063000086000BF1021454801F06AF80028F9D190
:100640005049091F08600021504800F0005040F058
:1006500000704E4AC2F3130240EA4210016000F0FB
:1006600038FA00F0B9FB05460021484800F0005078
:1006700040F00070454AC2F3130240EA42100160A4
:100680003A483B4988620846C06840F20111084375
:100690003749C8604FF6FF743DA002F037FF00F005
:1006A0009BFB05462E463FE044F21210ADF80400D5
:1006B0000020ADF806000023022201A901A800F0E5
:1006C000DDFA00F089FB0546AE420CD0B9F1000F0F
:1006D00001D031A000E032A00246C5F3080132A0EB
:1006E00002F014FF2E46FF2000F090FB2448007813
:1006F00068B100202249087084EA940080EAD4009E
:1007000080EA541000F00107600840EAC73404A8EA
:1007100000F0A9F90590BDF91400401C20B1BDF806
:100720001410C8B200F02EFDBEE770474005C001AE
:10073000000800F0001800F0000C00F0000400F0C9
:1007400000E00F40004002400070004000500240B6
:1007500000C0004090D003000060004000D0004086
:10076000021402000210020000000340D012130025
:100770000010034000200340080000200A00002071
:10078000000000208C7F4A4200B000401000002092
:1007900052656164790D0A004D61737465720000E1
:1007A000536C617665000000496E203D2025303293
:1007B000582025730D0A00003F4880473F480047F6
:1007C000FEE7FEE7FEE7FEE7FEE7FEE7FEE7FEE701
:1007D000FEE7FEE7FEE7FEE7FEE7FEE7FEE7FEE7F1
:1007E000FEE7FEE7FEE7FEE7FEE7FEE7FEE7FEE7E1
:1007F000FEE7FEE7FEE7FEE7FEE7FEE7FEE7FEE7D1
:10080000FEE7FEE7FEE7FEE7FEE7FEE7FEE7FEE7C0
:10081000FEE7FEE7FEE7FEE7FEE7FEE7FEE7FEE7B0
:10082000FEE7FEE7FEE7FEE7FEE7FEE7FEE7FEE7A0
:10083000FEE7FEE7FEE7FEE7FEE7FEE7FEE7FEE790
:10084000FEE7FEE7FEE7FEE7FEE7FEE7FEE7FEE780
:10085000FEE7FEE7FEE7FEE7FEE7FEE7FEE7FEE770
:10086000FEE7FEE7FEE7FEE7FEE7FEE7FEE7FEE760
:10087000FEE7FEE7FEE7FEE7FEE7FEE7FEE7FEE750
:10088000FEE7FEE7FEE7FEE7FEE7FEE7FEE7FEE740
:10089000FEE7FEE7FEE7FEE7FEE7FEE7FEE7FEE730
:1008A000FEE7FEE7FEE7FEE7FEE700000448054935
:1008B000054A064B70470000790300006D050000F3
:1008C000B8320020B85A0020B83A0020B83A0020C8
:1008D00010B58D48C06B00F01000002866D08B4822
:1008E000006880F00100894908601021864802F004
:1008F0003CFB87480088401C85490880854800F0FB
:10090000005040F000708349C1F3130140EA4110E8
:1009100040F00C00006830B17B4800687E497C4A9A
:100920001288885405E0784800687C49784A128823
:1009300088540120774901F0005141F00071754A57
:10094000C2F3130241EA421141F0100108607048FD
:100950000088B0F5007F1EDB00206D4908806D48DF
:1009600000F0005040F000706A49C1F3130140EA02
:10097000411040F00C00006880F00100654901F072
:10098000005141F00071634AC2F3130241EA42117F
:1009900041F00C01086045F6BD7061498862084667
:1009A000C06840F2011108435D49C86010BD0146AE
:1009B0005C485D4A128881545B4A1288501CC217F9
:1009C00000EB92529212A0EB8222574B1A801846EB
:1009D0000088564A128890420AD1544A1288501C04
:1009E000C21700EB92529212A0EB82224F4B1A8058
:1009F000704710B54E48C06B00F0100080B14348FE
:100A00000830006880F0010040490831086010217A
:100A1000474802F0AAFA46490968C8B2FFF7C7FF7B
:100A2000082002F00CFB38B1092002F008FB18B9CD
:100A300002213F4802F09FFA01213D4802F08FFA5F
:100A4000044621463A4802F090FA10BD00BF384AE9
:100A5000926902F02002002AF9D1354A10607047ED
:100A600001460020704701464FF0FF3208882E4BA8
:100A70001B8898420BD008882A4B1A5C0B88581C9C
:100A8000C31700EB93539B12A0EB83230B801046FC
:100A90007047254909880180704701460020224B94
:100AA0001A880B88934202DD02F580639AB20B88A4
:100AB000D31A98B2704730B504460D46002305E0BE
:100AC000E05C1C49FFF7C2FF581C83B2AB42F7DB66
:100AD00030BD10B502F096FA174802F0BDFA0F21AA
:100AE000092002F0E8FA1549092002F028FB4FF42A
:100AF00000310F4802F02BFA092002F092FA02218D
:100B00000B4802F034FA10BD00D00040847F4A4206
:100B10001600002010000020032E002004300020CA
:100B20000020034000240020080000200A000020CC
:100B300000C000400400002000200020080000C089
:100B400008B50121404802F097F84048007870B994
:100B500040F2EE203C4988620846C06840F201112C
:100B600008433949C86001203849087050E03848C6
:100B7000008800284CD00120364908600020334905
:100B80000870354800F0005040F000703249C1F361
:100B9000130140EA4110006850B92D480088801CBC
:100BA0002E4B2F4A01210090092002F0D7FA09E0CC
:100BB00027480088801C294B2A4A012100900920DF
:100BC00002F0CCFA244800F0005040F000702249B6
:100BD000C1F3130140EA411000681F4901F00051C0
:100BE00041F000711C4AC2F3130241EA421148600D
:100BF000092002F016FA0221184802F0B8F909207B
:100C000002F033FA1848006880F0010016490860C5
:100C100008BD10B50121154802F02EF84FF4AF5071
:100C2000094988620846C06840F201110843064934
:100C3000C86001200E49087010BD10B501210D4893
:100C400002F01AF810BD0000000003400D00002063
:100C500034000020987F0C421000002000C00040AB
:100C600000280020012A0020887F4A42001003400B
:100C70000000002000200340704770472DE9F84332
:100C800005460E461746984600240020694908602C
:100C900000BF35F81410684802F0C9FB00BF664871
:100CA00002F0F3FB0028FAD16946634802F0D1FB59
:100CB000009826F814002046611C8CB2B842E8DB8C
:100CC00001205C490860BDE8F8831FB55B4801F06E
:100CD000CDF95B4801F0CAF9082366220121594881
:100CE00000F0D1FB02220121564800F03FFB08230F
:100CF00066220421534800F0C6FB02220421514819
:100D000000F034FB0823662219464E4800F0BBFB76
:100D1000022208214B4800F029FB4B4800F0C6FE98
:100D20004A4800F0C3FE4A4800F0C0FE0D21454885
:100D300000F011FE0021404802F0ACFB01F0E8FC9D
:100D40000446102042F2107100231A46CDE900102B
:100D50002146394802F00AFB4FF4E071364802F0B0
:100D6000A0FB354802F02DFB44F20A00ADF8080064
:100D700040F20440ADF80A000023022202A902A8B2
:100D8000FFF77CFF44F20C00ADF808004FF68070CE
:100D9000ADF80A000023022202A902A8FFF76EFFA5
:100DA0004FF48040ADF808004FF68070ADF80A00AF
:100DB0000023022202A902A8FFF760FF44F21400F8
:100DC000ADF808007F20ADF80A000023022202A936
:100DD00002A8FFF753FF1FBD1CB5002444F21210F8
:100DE000ADF800000020ADF80200002302226946A1
:100DF0006846FFF743FFBDF80200000ABDF8021085
:100E000001F0800140EA410420461CBD1CB50446A7
:100E100044F21400ADF800007F20A0434FF680712B
:100E20000844ADF802000023022269466846FFF735
:100E300025FF1CBD847F0E4200B00040031C00F063
:100E4000030800F0007000400100030001080300E7
:100E5000010C03000021204A118030211F4A11702B
:100E60001F4A117000221F4901F0005141F000712A
:100E70001C4BC3F3130341EA43110A6000211A4AD1
:100E8000117001200AE04121144A11544221144AF0
:100E900011540021144A1154411C88B2B0F5FF7F4F
:100EA000F1DD0D210D4A82F8FF110D4A82F8FF1184
:100EB00000210D4A82F8FF110A21084A82F8001227
:100EC000074A82F800120021074A82F80012074AF6
:100ED0001180074A1170704716000020002800207A
:100EE000012A002010000020022C002034000020E5
:100EF00014000020F0B503460C46154600210022E0
:100F0000002600BF002701E0481C81B2585C202861
:100F1000FAD0585C0928F7D0585C50B3585C2C289C
:100F200027D0585C302824DB585C392821DC0AB9EA
:100F3000501CC2B2022E01DD0020F0BD501E34F85C
:100F4000100000EB80004FF6FF7C0CEA400C501EB6
:100F500024F810C034F810C0585C303860441FFAD0
:100F600080FC501E24F810C0481C81B2701CC6B210
:100F70000127585C2C2808D1481C81B20127501C3D
:100F8000C2B20026002024F81200012F01D1AA428B
:100F9000B8DD1046D1E72DE9FC4706468946002713
:100FA00000BF07EB87009B4A02EB8001304602F04E
:100FB0000BFC8046B8F1000F04D13846791CCFB243
:100FC0000728EEDBB8F1000F70D0082F6FD2DFE8F2
:100FD00007F004134A738089ADB18FA002F096FA2E
:100FE000002404E000208E490855601C84B240F2C1
:100FF00002208442F6DBB8E00020ADF80000ADF836
:10100000020002226946F01CFFF774FF0546012D1D
:1010100025DD84A002F07AFABDF80000B0F5007F6B
:1010200003DD4FF40070ADF80000BDF80200B0F52C
:10103000007F03DD4FF40070ADF80200BDF8020040
:10104000C2B2BDF8001078A002F060FABDF802004C
:10105000C1B2BDF80000401C714A115402E078A0F2
:1010600002F054FA81E00020ADF80000ADF8020073
:1010700001226946F01CFFF73DFF0546C5B1BDF8EA
:101080000000B0F5007F03DB40F2FF10ADF8000078
:1010900064A002F03BFABDF80000401C604B1A5CF3
:1010A000BDF800106AA002F031FA04E062E058E0F6
:1010B0006CA002F02BFA58E06E4800886E49088058
:1010C00001206E4908806C4801886DA002F01EFA6C
:1010D0004BE0002068490880684908806EA002F053
:1010E00015FA42E00020ADF80000ADF80200012240
:1010F0006946F01CFFF7FEFEBDF80000B0F5007F6A
:1011000003DD4FF40070ADF80000BDF8001064A0DE
:1011100002F0FCF9BDF800005649088057480088E5
:1011200018B108460088544908801EE062A002F009
:10113000EDF91AE0012410E03948015D6BA002F0DE
:10114000E5F9E11704EB11710911A4EB011111B9D3
:1011500034A002F0DBF9601C84B2B4F5007FEBDD53
:1011600003E064A002F0D2F900BF00BF67A002F064
:10117000CDF902E067A002F0C9F9002089F800006B
:10118000BDE8FC8710B50446082C04D00A2C18D002
:101190000D2C1FD116E06148007848B100215F484E
:1011A0000078401EC0B25D4A10705D4A115407E0DD
:1011B00000205B49594A127888545AA002F0A6F9D7
:1011C0001BE000BF55495648FFF7E5FE15A002F0A9
:1011D0009DF912E0514800784F280DDA50484F49E8
:1011E000097844544D480078401C4C49087000214F
:1011F0004B484A4A1278815400BF00BF1B214AA0C5
:1012000002F084F94548007818B1454948A002F039
:101210007DF910BDAA390000436C6561720D0A00AA
:10122000022C00200D0A0000416464726573732073
:101230002564203D3D20446174612025640D0A0031
:101240000D0A54797065204552524F520D0A000024
:1012500041646472657373202564203D3D202564DC
:101260000D0A000054797065204552524F520D0A04
:10127000000000003600002034000020380000206C
:101280004F4E2073656E64696E672025642061642B
:1012900064726573730D0A004F66660D0A000000E4
:1012A0004D617820416464726573732053656E7478
:1012B0002025640D0A000000454D455247414E432C
:1012C00059212121204649524521212120434C4FBB
:1012D000534520444F574E2053595354454D2041B8
:1012E0004E442052554E2121210D0A002533642001
:1012F0000000000048616C7420616E6420436174DA
:10130000636820466972650D0A00000052656164D9
:10131000790000004552524F520D0A00140000207F
:10132000053200200D200D0025635B324B000000CC
:1013300025730D0030B50246F84B1824F8480068B4
:10134000F84D2840F84DA84201D1F84B00BF0021CC
:1013500008E053F83100904203D103EBC10040682C
:1013600030BD491CA142F4D30020F9E702F001038B
:101370001BB1D0F800340B4302E0D0F800348B43AB
:10138000C0F8003402F002031BB1D0F820340B4344
:1013900002E0D0F820348B43C0F82034704730B5D9
:1013A000024601208840C1B2D2F80034D2F820446D
:1013B00003EA010008B1012000E0002004EA010571
:1013C0000DB1022500E00025284330BD02F00103E5
:1013D0001BB1D0F808340B4302E0D0F808348B433B
:1013E000C0F8083402F002031BB1D0F804340B43F8
:1013F00002E0D0F804348B43C0F8043402F0040354
:101400001BB1D0F80C340B4302E0D0F80C348B4302
:10141000C0F80C3402F4803323B1D0F8383543F0EF
:10142000010303E0D0F8383523F00103C0F8383564
:101430007047F0B5024601208840C1B2D2F80834A6
:10144000D2F80444D2F80C64D2F8385503EA01000B
:1014500008B1012000E0002004EA01070FB10227D3
:1014600000E00027384306EA01070FB1042700E037
:101470000027384305F00107384310B14FF480309E
:10148000F0BD0020FCE7F0B5002416E00125A540E2
:101490000D4085B1D0F8C45F67000326BE40B54358
:1014A000C0F8C45FD0F8C45F6700C2F34116BE4005
:1014B0003543C0F8C45F651CECB2082CE6DB02F0D3
:1014C00001051DB1D0F800550D4302E0D0F80055DC
:1014D0008D43C0F8005502F002051DB1D0F8045547
:1014E0000D4302E0D0F804558D43C0F8045502F0D6
:1014F00004051DB1D0F808550D4302E0D0F8085599
:101500008D43C0F8085502F008051DB1D0F81855F4
:101510000D4302E0D0F818558D43C0F8185502F07D
:1015200010051DB1D0F83C550D4302E0D0F83C55F4
:101530008D43C0F83C5503F001051DB1D0F80C55A2
:101540000D4302E0D0F80C558D43C0F80C5503F064
:1015500002051DB1D0F810550D4302E0D0F810552A
:101560008D43C0F8105503F004051DB1D0F8145593
:101570000D4302E0D0F814558D43C0F8145503F024
:1015800008051DB1D0F81C550D4302E0D0F81C55DC
:101590008D43C0F81C5503F400751DB1D0F84455B7
:1015A0000D4302E0D0F844558D43C0F8445503F490
:1015B00040751DB1D0F840550D4302E0D0F84055BC
:1015C0008D43C0F840551BB9D0F828550D4302E0B3
:1015D000D0F828558D43C0F82855F0BDF0B5144615
:1015E0001D4601268E40F1B2D0F800650E400EB1C6
:1015F000012600E000263246D0F804650E400EB108
:10160000022600E000263243D0F808650E400EB1F5
:10161000042600E000263243D0F818650E400EB1D3
:10162000082600E000263243D0F83C650E400EB19B
:10163000102600E000263243D0F8C46F4F00FE4071
:1016400006F0030642EA46122260D0F80C650E400E
:101650000EB1012600E000263346D0F810650E409A
:101660000EB1022600E000263343D0F814650E4088
:101670000EB1042600E000263343D0F81C650E406E
:101680000EB1082600E000263343D0F840650E4036
:101690004EB1D0F844650E4016B14FF4007601E02B
:1016A0004FF4807633432B60F0BDD0F810240A430A
:1016B000C0F810247047D0F810248A43C0F81024D2
:1016C0007047024611B1D2F818047047D2F81404DA
:1016D000FBE7C0F81C14704770B504460D46204661
:1016E000FFF728FE06462946304600F031FA30461C
:1016F00000F08AFA70BD70B504462046FFF71AFE66
:101700000546284600F0BCFA284600F03BFA70BDBA
:101710000246002000EB8100105870474C3A000050
:1017200000E00F400000FF7000000A100C3B0000BA
:10173000002303EB8103C250704730B504460D46C9
:10174000002229462046FFF711FE002301222946E8
:101750002046FFF798FE30BD30B504460D46022204
:1017600029462046FFF702FE082366222946204626
:10177000FFF789FE30BD30B504460D4600222946EC
:101780002046FFF7F3FD0023012229462046FFF7FC
:101790007AFE30BD30B504460D4602222946204669
:1017A000FFF7E4FD0823012229462046FFF76BFEE0
:1017B00030BD30B504460D46022229462046FFF7CB
:1017C000D5FD0823662229462046FFF75CFE30BD82
:1017D00030B504460D46022229462046FFF7C6FDD5
:1017E0000823662229462046FFF74DFE30BD30B55E
:1017F00004460D46022229462046FFF7B7FD08237E
:10180000662229462046FFF73EFE30BD30B504462D
:101810000D46002229462046FFF7A8FD0823012295
:1018200029462046FFF72FFE30BD30B504460D4651
:101830000823012229462046FFF725FE01222946DA
:101840002046FFF793FD30BD30B504460D46092311
:10185000012229462046FFF716FE0122294620468E
:10186000FFF784FD30BD30B504460D4602222946FF
:101870002046FFF77BFD0923012229462046FFF77A
:1018800002FE30BD30B504460D46022229462046F0
:10189000FFF76CFD0823012229462046FFF7F3FDE0
:1018A00030BD30B504460D46022229462046FFF7DA
:1018B0005DFD0823662229462046FFF7E4FD30BD82
:1018C00030B504460D46022229462046FFF74EFD5C
:1018D0000823662229462046FFF7D5FD30BD30B5E6
:1018E00004460D46002229462046FFF73FFD00230F
:1018F000012229462046FFF7C6FD30BD30B504461B
:101900000D46022229462046FFF730FD082301221A
:1019100029462046FFF7B7FD30BD30B504460D46D9
:10192000022229462046FFF721FD082301222946ED
:101930002046FFF7A8FD30BD30B504460D46022213
:1019400029462046FFF712FD0A2301222946204698
:10195000FFF799FD30BD30B504460D4602222946F9
:101960002046FFF703FD0823012229462046FFF702
:101970008AFD30BD30B504460D4602222946204678
:10198000FFF7F4FC0823012229462046FFF77BFDE0
:1019900030BD30B504460D46022229462046FFF7E9
:1019A000E5FC0823012229462046FFF76CFD30BDE7
:1019B00030B504460D46002229462046FFF7D6FCE6
:1019C0000023012229462046FFF75DFD30BD30B5DA
:1019D00004460D46022229462046FFF7C7FC08238D
:1019E000012229462046FFF74EFD30BD30B50446A2
:1019F0000D46002229462046FFF7B8FC4FF402733B
:101A0000012229462046FFF73EFD30BD30B5044691
:101A10000D46002229462046FFF7A8FC4FF48473A8
:101A2000012229462046FFF72EFD30BD30B5044681
:101A30000D46022229462046FFF798FC0823012282
:101A400029462046FFF71FFD30BD30B504460D4640
:101A5000022229462046FFF789FC0A230122294653
:101A60002046FFF710FD30BD30B504460D4602227A
:101A700029462046FFF77AFC08236622294620469D
:101A8000FFF701FD30BD30B504460D460222294660
:101A90002046FFF76BFC0823012229462046FFF76A
:101AA000F2FC30BD014601F5A960704710B5014652
:101AB000C1F307401B4BDB6E01248440234033B14C
:101AC000012303EB4003184C54F8230003E04300C8
:101AD000154C54F82300C1F30722D0F82C350F24FD
:101AE0009440A34301F00F0494402343C0F82C35E5
:101AF00010BDD0F834250A43C0F834257047D0F81B
:101B000034258A43C0F834257047D0F830250A437D
:101B1000C0F830257047D0F830258A43C0F830250A
:101B20007047000000E00F40CC3B000000BFFEE724
:101B300010B5FEF710FC08B1012010BD0020FCE735
:101B400010B5FEF701FC08B1012010BD0020FCE734
:101B500030B50246B64C2468B64DAC420ED0B44CFB
:101B60002368002005E053F82040B24D45F820409E
:101B7000401C9B28F7D3AF4CAD4D2C60AD4C44F8C6
:101B8000221030BDAC49AB4A42F820107047AB4937
:101B900051F82010AA4A1143A54A121D116070473E
:101BA000A34A121D126802F4E061002006E0A34A75
:101BB00052F820208A4200D102E0401C0828F6D3C7
:101BC00000BF704710B50A4683089E4C54F8233076
:101BD00019688307DC0EFF23A34099438307DB0EBC
:101BE00002FA03F319438308964C54F82330196022
:101BF00010BD01468808934A52F8200000688A0701
:101C0000D20ED040C0B27047042808D188491C3198
:101C1000096841F48031864A1C3211602FE00528A2
:101C200008D183491C31096841F40031804A1C32D3
:101C3000116024E0062808D17D491C31096841F46F
:101C400080217B4A1C32116019E00F2808D14FF027
:101C5000E021096941F002014FF0E02211610EE03C
:101C600010280CD3A0F1100101F01F0201219140B6
:101C7000A0F110025209744B53F8222011607047F2
:101C8000042808D16A491C31096821F48031684A66
:101C90001C3211602FE0052808D165491C31096804
:101CA00021F40031624A1C32116024E0062808D178
:101CB0005F491C31096821F480215D4A1C321160A2
:101CC00019E00F2808D14FF0E021096921F0020145
:101CD0004FF0E02211610EE010280CD3A0F11001AA
:101CE00001F01F0201219140A0F110025209574B4F
:101CF00053F822201160704710B5014600200429D6
:101D000005D14B4A1C32126802F4803028E00529C4
:101D100005D1474A1C32126802F4003020E006293F
:101D200005D1434A1C32126802F4802018E00F29C2
:101D300005D14FF0E022126902F0020010E01029F4
:101D40000ED3A1F1100252093F4B53F82220126822
:101D5000A1F1100303F01F040123A34002EA0300D2
:101D600010BD022808D13249091F096841F000411D
:101D70002F4A121F116024E00E2808D12C49091F98
:101D8000096841F080512A4A121F116019E00F289A
:101D900008D12749091F096841F08061244A121FB0
:101DA00011600EE010280CD3A0F1100101F01F0209
:101DB00001219140A0F110025209254B53F8222035
:101DC000116070470E2808D11949091F096841F0B0
:101DD0000061174A121F116019E00F2808D1144939
:101DE000091F096841F00071114A121F11600EE0CD
:101DF00010280CD3A0F1100101F01F020121914025
:101E0000A0F110025209134B53F8222011607047C1
:101E100010B504462046FEF7A4FA10BD10B5FEF733
:101E2000A3FA10BDA0F110010B4A11607047000029
:101E300008ED00E0000400202D1B00005C3C0000C9
:101E40000000FA057C3C0000183D00002C3D00001D
:101E5000403D0000543D000000EF00E0024600213C
:101E60000AE0F74850F83100904204D3F44800EB00
:101E7000C10040687047491C0629F2D30020F9E7E9
:101E8000F0B50146DFF8BCC3DCF860C1CCF38923B0
:101E9000DFF8B0C3DCF860C1CCF30905DFF8A4C3F8
:101EA000DCF864C1CCF3042C0CF10106DFF894C318
:101EB000DCF864C10CF01F0C0CF10107B1FBF7F169
:101EC0005A09A3EB421401FB05F001FB02FC00EBF5
:101ED0005C1001FB04FC00EB9C20B0FBF6F0F0BDB5
:101EE000D8483C380068401C00027047D54800685C
:101EF000D5490840D549884206D1D24880680004B7
:101F0000400900F500607047CE484038006880B254
:101F1000401CC002F7E7CB480068CB490840CC49D9
:101F2000884209D1C74840380068C0F302400A30EF
:101F3000012101FA00F070474FF48060FBE7014691
:101F4000C1F30720C34A104400F0704040F0007015
:101F5000C1F30722BF4B1A44C2F3130240EA4210F6
:101F6000CAB240EA8200006808B101207047002030
:101F7000FCE70146C1F30720B74A104400F0704067
:101F800040F00070C1F30722B34B1A44C2F31302AE
:101F900040EA4210CAB240EA8200006808B101205B
:101FA00070470020FCE710B50121C0F30722AB4BBE
:101FB0001A4402F0704242F00072C0F30723A74CAB
:101FC0002344C3F3130342EA4312C3B242EA830237
:101FD000116010BD10B50021C0F307229F4B1A44B9
:101FE00002F0704242F00072C0F307239B4C23447E
:101FF000C3F3130342EA4312C3B242EA83021160FD
:1020000010BD18B50121C0F30722954B1A4402F008
:10201000704242F00072C0F30723914C2344C3F393
:10202000130342EA4312C3B242EA83021160002161
:10203000009102E00099491C009100991029F9D300
:102040000021C0F30722864B1A4402F0704242F08E
:102050000072C0F30723824C2344C3F3130342EA04
:102060004312C3B242EA8302116018BD10B50121C8
:10207000C0F307227B4B1A4402F0704242F0007218
:10208000C0F30723774C2344C3F3130342EA4312FC
:10209000C3B242EA8302116010BD10B50021C0F343
:1020A0000722704B1A4402F0704242F00072C0F3F3
:1020B00007236C4C2344C3F3130342EA4312C3B215
:1020C00042EA8302116010BD10B50121C0F307225E
:1020D000654B1A4402F0704242F00072C0F30723CD
:1020E000614C2344C3F3130342EA4312C3B242EAEE
:1020F0008302116010BD10B50021C0F307225A4BB6
:102100001A4402F0704242F00072C0F30723564CAA
:102110002344C3F3130342EA4312C3B242EA8302E5
:10212000116010BD10B50121C0F307224F4B1A44B6
:1021300002F0704242F00072C0F307234B4C23447C
:10214000C3F3130342EA4312C3B242EA83021160AB
:1021500010BD10B50021C0F30722444B1A4402F011
:10216000704242F00072C0F30723404C2344C3F393
:10217000130342EA4312C3B242EA8302116010BD64
:1021800030490968304A1140304A91420ED130B18D
:102190002C49096E41F000612A4A116618E029496C
:1021A000096E21F00061274A116611E040B125490E
:1021B000B031096841F00051224AC2F8B01007E07E
:1021C0002049B031096821F000511E4AC2F8B01010
:1021D000704710B5044621462C20FFF7B9FC2C208F
:1021E000FFF712FD10BD10B52C20FFF749FD2C2084
:1021F000FFF7C8FC10BD1349496D0143114A5165F1
:1022000070471049496D81430E4A516570470D4929
:1022100088657047014611B10A48806D70470948CA
:10222000006DFBE71249086070471148006870476D
:102230000F490831086070470D4808300068704742
:10224000F43E000000E00F400000FF7000000510A9
:1022500000000A1000E30F4000EA0F4000E90F40C1
:1022600000E50F4000E60F4000E70F4000E80F4098
:10227000B4E10F40FB4908607047FA49091D086046
:102280007047F948F949086000BFFEE710B5FEF74E
:1022900066F810BD10B5F548001D006840F0040058
:1022A000F249091D0860FEF75AF8F048001D006861
:1022B00020F00400ED49091D086010BDEC48C06D18
:1022C0007047EB49C96D8143E94AD1657047E849D8
:1022D000C86770470146E748084050B101F0004028
:1022E000E04A383A1060E34881380840E04AC2F8D2
:1022F0005001DC483838016001F4007088B100BF3B
:10230000D8483438006800F440700028F8D0D54828
:102310003438006800F44070B0F5807F01D00020B0
:1023200070470120FCE7CF49503108607047CD4825
:102330005030006870472DE9FE4F05468A46CC486C
:102340000068CD490840CD49884202D10020BDE84F
:10235000FE8FC5F3841605F03800102805D1DFF88C
:102360002093002700BF152633E005F03800302801
:1023700004D147F230594FF400172AE005F0380035
:10238000382804D14FF400494FF4800721E005F0CC
:102390003800D8B91A2E01DC092E01DA0020D6E760
:1023A000B84850F826904FF4401747F04077B048AF
:1023B000C06F20F01C000190072E03DB019840F055
:1023C00010000190AA490198C86702E04FF0000987
:1023D000002705F4605000287ED105F0380028B1B0
:1023E00005F03800102801D00020B0E7C5F3026BDB
:1023F000A548FFF733FD9E49C03108609C48D0F8DE
:10240000B000A24900EA010444F000449848B0300A
:102410000460093E0BEBCB009D4901EB001000EB83
:10242000C60040689249D1F8641188420DD10BEB87
:10243000CB00974901EB001050F8360040F4000043
:10244000884928390968884202D00120009001E0BB
:1024500000200090009808B38548B03000683843E9
:102460008349C1F8B0000BEBCB00894901EB0010A8
:1024700000EBC60040687B49243908600BEBCB00B9
:10248000834901EB001050F8360076492839096875
:1024900001F4000108437349283908607D4850F869
:1024A0002B005044401EB0FBFAF84846FFF7E8FC0A
:1024B000B0FBF8FA5046FFF7D1FC6D49C031086017
:1024C0006B48D0F8600100F4000068B10098012862
:1024D00012D16748B03000E034E0006840F080403E
:1024E0006349C1F8B00007E05E482838006840F44E
:1024F00000005F49C1F860014FF40040029009E01C
:1025000058482038006800F0010000B105E002984A
:10251000401E029002980028F2DC00BF029870B1C1
:102520005348B0300468A8F10100384340F08050AF
:10253000044344F000444E48C0F8B0403CE04FF043
:10254000000A39E04E48FFF789FC4949C03108606C
:102550004748D0F8600120F400004549C1F8600107
:102560000846D0F8B0404C48044044F0004440488D
:10257000B0300460BAF1000F02D14FF000080AE059
:10258000B9FBFAF8B8F1000F01D0A8F1010808F181
:102590000100B9FBF0FA5046FFF760FC3449C03146
:1025A00008603348D0F8B04047EA8820044344F03C
:1025B00000442F48B03004605046C8E62DE9F04191
:1025C00006462B48046E056F44F4006424F480042E
:1025D00045F400650466056704F00100D8B106F013
:1025E0000100C0B966F0010004404FF4807020493A
:1025F0008865084604664FF4002702E07F1E07B98D
:1026000005E01B48006D00F480700028F6D000BF84
:102610000FB9BDE8F08124F4FE6406F4FE600443C3
:102620001E4805401D49A13106EA0100054306F098
:10263000080045EAC0050E480466056724F4005406
:1026400006F40050044325F4005506F400500543F9
:1026500040200749886505F0004008B30846056733
:10266000046620E088E10F400400FA050CED00E06C
:1026700000E00F40000100800000FF700000051026
:102680000024F400683D000040787D0100FC0FE06C
:10269000D43D0000243F0000FF0300EF8FFFFF7FC9
:1026A000B54804660567B5480440C14306EA010021
:1026B000044325F0FC5506F0FC50054306F080402D
:1026C00040B144F4800425F48005AD4906EA0100D8
:1026D000054301E025F0804506F4006080B94FF421
:1026E000004706E0A748006800F0010000B102E0E2
:1026F0007F1E002FF6D100BF24F4006425F400658E
:102700009D48046605671020FDF732FE00BF80E794
:10271000F0B59948036E026F02F0004010B102F06C
:10272000700001E003F03000202811D003DC38B144
:10273000102815D10AE030280CD0702810D10CE0F8
:102740009148C3F3841750F827100BE08F4909E034
:102750008F4907E047F2305104E04FF4004101E0B7
:102760000020F0BD00BF4FF0FF3402F0004010B178
:1027700002F4006028B102F0004098BB03F400604E
:1027800080BB8048083805687B48D0F8646106F053
:102790001F00401CC6F304277F1C10FB07F04000FD
:1027A000B1FBF0F1C5F309004843C5F389274F4356
:1027B00000EB972143F480036F48006900F47040F8
:1027C000B0F5804F13D006DCB0F5005F0BD0B0F54C
:1027D000405F12D109E0B0F5E04F0AD0B0F5104FDC
:1027E0000BD108E00BE06B4C08E06B4C06E06B4C47
:1027F00004E06B4C02E06B4C00E000BF00BF03F450
:10280000800018B302F00040D8B102F0804090B1CF
:1028100002F0004010B102F4006028B102F0004064
:1028200048B903F4006030B94F00C2F38650401C31
:10283000B7FBF0F10AE0C2F3C550401CB1FBF0F168
:1028400004E0C3F3C350401CB1FBF0F18C4200D252
:102850002146084685E74B4924390860704710B582
:102860000246454B1B68504C2340504CA34208D1B4
:1028700021F0FC54531E44EAC353424C243C2360D1
:1028800023E0501E01F0700333B1102B0ED0302B1B
:1028900005D0702B09D105E040F4401007E040F46A
:1028A000001004E040F4800001E000BF00BF00BF62
:1028B00001F002030BB140F0004001F080430BB186
:1028C00040F080402F4B243B186010BD2A49096E10
:1028D00021F4F0110143284A116670472648006E22
:1028E00000F4801008B9002070472348006E00F4FF
:1028F000F010F9E72049C96E00F00F0301229A4059
:1029000011431D4AD16670471B49C96E00F00F0381
:1029100001229A409143184AD16670471648006FC9
:1029200020F480401449086770471348006F40F452
:1029300080401149086770470F49886370470E4807
:10294000006E70470C49096E01430B4A11667047CF
:102950000948406E70470849496E8143064A5166EE
:1029600070474A1ED2B20243064B203B1A607047A2
:10297000044930390860704700E00F40FEFF3FF81F
:102980000000404068E10F40683D00000024F40072
:1029900000093D0000B4C40480F0FA02005A62024B
:1029A00040787D01002D31010000FF70000005100E
:1029B000F0B503460C46C24D0C26C2480068C24F13
:1029C0003840C24FB84201D1C14D082600210DE068
:1029D00055F83100984208D105EBC1004268B4F5C2
:1029E0007F4F00D1521C1046F0BD491CB142EFD3BD
:1029F0000020F9E7C26840F201130B401A43C2609D
:102A00007047C26840F201130B409A43C26070479E
:102A1000C26840F201139A43C2600A0E0260A94ADA
:102A20001268A94B1A40A94B9A4211D1CAB201F4BB
:102A3000702342EA131242F40072426001F4700201
:102A4000C1F3072343EA122242F40072826008E0D5
:102A5000CAB242F400724260C1F3072242F400722B
:102A60008260704744F24003194012B1C3680B43BF
:102A700001E0C3688B43C360704710B5914B1B687E
:102A8000914C2340914CA3420AD140F201130B40D8
:102A900012B1046F1C4301E0046F9C43046700BF44
:102AA00042F22003194012B1C3680B4301E0C3682E
:102AB0008B43C36010BD10B540F60C431940C3688A
:102AC0008B4302EA01042343C36010BD40F202239A
:102AD000194012B1C3680B4301E0C3688B43C36064
:102AE0007047CBB24BB122B1436843F0400343601F
:102AF00003E0436823F04003436001F47F434BB19C
:102B000022B1836843F04003836003E0836823F0CD
:102B1000400383607047C16841F01001C160704795
:102B2000C16821F01001C1607047C0F8C81F70472C
:102B30000146D1F8C80F7047CBB203B1826301F4EC
:102B40007F4303B1C26370470246FF2901D1906BF6
:102B50007047D06BFCE7CBB203B1026401F47F4352
:102B600003B1426470470246FF2901D1106C7047DF
:102B7000506CFCE7CBB203B1826201F47F4303B136
:102B8000C26270470246FF2901D1906A7047D06A3D
:102B9000FCE7C3628262704730B5034600BFDA6A61
:102BA0009C6ADD6AAA42FAD1002001462043114303
:102BB00030BD0246FF2901D1906C7047D06CFCE714
:102BC00030B5034600BFDA6C9C6CDD6CAA42FAD1CA
:102BD000002001462043114330BDCBB203B1026354
:102BE00001F47F4303B1426370470246FF2901D1DC
:102BF000106B7047506BFCE743630263704730B55E
:102C0000034600BF5A6B1C6B5D6BAA42FAD10020D1
:102C100001462043114330BD2DE9F04105460E46E3
:102C2000144631462846FFF7C3FE0746214638467C
:102C3000FEF78EFF3846FEF7E7FFBDE8F08170B57E
:102C400004460D4629462046FFF7B2FE06463046AA
:102C5000FFF716F83046FEF795FF70BD82690A430C
:102C60008261704782698A4382617047024609B176
:102C7000106A7047D069FCE7416270470161704794
:102C8000016770470146086F7047C166704701468B
:102C9000C86E704710B50B46DCB2FF2C04D14468F7
:102CA00024F4A0611143416003F47F44B4F57F4FE5
:102CB00004D1846824F4A0611143816010BD000038
:102CC0002C3F000000E00F400000FF7000000A10E1
:102CD0008C3F000030B50246C54B0824C54800684B
:102CE000C54D2840C54DA84201D1C54B00BF0021AC
:102CF00008E053F83100904203D103EBC100406873
:102D000030BD491CA142F4D30020F9E7C26A22F089
:102D100086020A43C26270470146C86A00F0860014
:102D2000704741EA02034363704710B5436B03F0F9
:102D300007040C6003F03804146010BDC16A41F050
:102D40001001C162016B40F201321143016370470F
:102D500000BF816901F008010029FAD1C16A21F0A0
:102D60001001C162016B40F201329143016370476F
:102D7000F0B504460E4615461F462046FFF7E8FF0D
:102D8000B6EB051F05D2206B40F0200020636D08D4
:102D900003E0206B20F020002063F000B0FBF5F092
:102DA000401C43089809606203F03F00A062E7629C
:102DB0000020A0612046FFF7C1FFF0BDF0B5446AD6
:102DC000856A8E00402707FB0457B6FBF7F61660AE
:102DD000066B06F0200616B1166876001660C66A05
:102DE00006F0EE061E60F0BDC16A41F01001C1623E
:102DF0007047C16A21F01001C162704721B1026BB6
:102E000042F00602026303E0026B42F00202026338
:102E10007047016B21F0060101637047C16A21F020
:102E2000E60141F06E01C162026B42F008020263EA
:102E30007047016B21F0080101637047026B01F4D8
:102E400040631A4302637047026B01F440639A4384
:102E5000026370470146086B00F44060704701460A
:102E6000886940F2071210407047026B22F440421A
:102E70000A43026370470146086B00F44040704704
:102E8000026B22F010020A43026370470146086B8E
:102E900000F01000704701468869012222EA1010F4
:102EA000704701468869012222EA501070470146A6
:102EB000886900F0100008B9086870474FF0FF30CB
:102EC000FBE7014600BF886900F010000028FAD136
:102ED000086870470246906900F0200010B9116040
:102EE000012070470020FCE700BF826902F0200249
:102EF000002AFAD10160704719B1C26A42F001029A
:102F000002E0C26A22F00102C2627047014688698B
:102F1000C0F3C000704770B504460D462046FFF769
:102F2000D9FE064629463046FEF712FE3046FEF729
:102F30006BFE70BD70B504462046FFF7CBFE05461C
:102F40002846FEF79DFE2846FEF71CFE70BD826BEC
:102F50000A4382637047826B8A43826370470246EA
:102F600009B1106C7047D06BFCE741647047826C0C
:102F70000A4382647047826C8A43826470470146C8
:102F8000486800F00F007047002141607047C0F8AA
:102F9000C81F70470146D1F8C80F7047D0F8A41079
:102FA00041F40041C0F8A4107047D0F8A41021F4F7
:102FB0000041C0F8A4107047C0F8A410C0F8A820C1
:102FC00070470A4600BF836903F08803802BFAD15B
:102FD000C16A21F0040343F08203C362026000BFB0
:102FE000836903F08803802BFAD1C1627047000027
:102FF000CC3F000000E00F400000FF7000000A100E
:103000000C4000000120C749486070470020C549B6
:1030100048607047C348C06C70470120C149C8640C
:10302000704700F01F0201219140BE4A9162704733
:1030300000F01F0201219140BA4AD1627047014657
:10304000B848806A01F01F0301229A40104008B17D
:10305000012070470020FCE7B24988607047B14802
:1030600080687047AF48C068704700F01F020121B8
:103070009140AC4A5161704700F01F0001F001021D
:103080001AB101228240A74B9A6101F002021AB1E3
:1030900001228240A34B1A6301F004021AB10122FB
:1030A0008240A04B9A6301F008021AB101228240CB
:1030B0009C4B1A62704700F01F0001F001021AB128
:1030C00001228240974BDA6101F002021AB101221B
:1030D0008240944B5A6301F004021AB101228240EB
:1030E000904BDA6301F008021AB1012282408D4B45
:1030F0005A6270470146002001F01F01894A926917
:1031000001238B401A400AB140F00100854A126B3E
:1031100001238B401A400AB140F00200814A936BB0
:1031200001228A4013400BB140F004007D4A136A2B
:1031300001228A4013400BB140F00800704710B5DF
:1031400000F03F00774B9A6802EB00139B68764CC7
:1031500023400B4302EB0014A36010BD2DE9F043A4
:1031600016461F46079D00F03F00DFF8B881D8F8EB
:10317000083003EB0018D8F8088043F6F77928EAFE
:10318000090400F02008B8F1000F05D0042901D08F
:10319000062901D141F00101A5F1010841EA081811
:1031A00048EA040404F04062B2F1406F06D0920E87
:1031B00005FA02FC06EB0C08A8F1010603EB001867
:1031C000C8F8006004F04042B2F1404F11D0042929
:1031D00001D0062906D140F0200803EB081808F1B9
:1031E0000C0706E0920F05FA02FC07EB0C08A8F1A9
:1031F000010703EB0018C8F8047003EB0018C8F8C7
:103200000840BDE8F083F0B5144600F01F00454EBD
:10321000B26825464E1E05EB06160C3602EB00176B
:103220003E6040F0200602EB06160C3602EB00175B
:103230007E600126C6EB81063C4F47EA06160BB1BD
:10324000062700E004273E4302EB0017BE6001267C
:103250008640344F7E63F0BD10B5014601F03F015A
:103260003048836803EB0110806843F6F77400EA86
:1032700004020AB9002010BD1009401CFBE70146FA
:1032800001F03F01274B9A6802EB01139B6803F0A2
:10329000070020F00103042B03D020F00103062BCC
:1032A00001D120F00100704770B504460D46294653
:1032B0002046FEF74DFC2046FEF7A6FC70BD10B57B
:1032C00004462046FEF7DCFC2046FEF75BFC10BD02
:1032D00017480068704716490860704730B5C3B298
:1032E000000CDC08124D0C3505EB84015C07E20E86
:1032F0000C680F259540AC4300FA02F52C430C6096
:1033000030BD0B49091F09680143094A121F1160AA
:1033100070470749091F09688143054A121F116058
:103320007047000000F00F40F73FFC00008000AA4B
:1033300004F50F4030B502466F4B04246F48006817
:103340006F4D28406F4DA84201D16F4B00BF002147
:1033500008E053F83100904203D103EBC10040680C
:1033600030BD491CA142F4D30020F9E72DE9F04F0C
:103370000C461D46DDE909C815B94FF0000A01E009
:103380004FF0040A57464760B4FBFCF6002100BF2B
:10339000891CB6FBF1FAAAF10103FF2BF8D80161F1
:1033A0004FEA827A4FEA1A6902F0300249EA032AA8
:1033B0004AEA020AA8F1010B4AEA0B070760BDE8D6
:1033C000F08F416841F0020141607047416821F08F
:1033D00002014160704770B504460D462046FFF774
:1033E000A9FF064629463046FEF7B2FB3046FEF7F7
:1033F0000BFC70BD70B504462046FFF79BFF0546E9
:103400002846FEF73DFC2846FEF7BCFB70BD42692E
:103410000A434261704742698A43426170470246EB
:1034200009B1D06970479069FCE70162704700BF3D
:10343000C26802F00202002AFAD081607047024698
:10344000D06800F0020010B19160012070470020A8
:10345000FCE700BFC26802F00402002AFAD08268CA
:103460000A6070470246D06800F0040018B1906806
:103470000860012070470020FCE7426A0A4342626C
:103480007047426A8A43426270470146C868C0F387
:1034900000107047C0F8C81F70470146D1F8C80F28
:1034A0007047426822F4E0720A434260704700BFEE
:1034B000C26802F00202002AFAD0426842F40062B6
:1034C0004260816070470246D06800F0020030B16F
:1034D000506840F400605060916001207047002007
:1034E000FCE7416841F4806141607047416821F424
:1034F00080614160704700004C40000000E00F40D8
:103500000000FF7000000A106C4000000FB4044976
:1035100010B503AA029800F0DBF910BC5DF814FBAB
:103520000400002070B5044685690068C10601D515
:10353000302600E02026C00707D070BDD4E9012165
:1035400030469047206A401C20626D1EF6D570BD43
:1035500070B5044685690078C00707D170BDD4E90D
:10356000012120209047206A401C20626D1EF6D564
:1035700070BD70B50C460546012A05D02878800636
:1035800000D5EA69002302E0012305E05B1C9342B9
:1035900002D2E05C0028F9D1A869E618C01AA86137
:1035A000286A184428622846FFF7BCFF04E0D5E9E2
:1035B000012114F8010B9047B442F8D32846FFF7D5
:1035C000C7FF70BD2DE9F04106460024106875293B
:1035D000314615A510D0AFF30080002802DA404232
:1035E00012A507E031688A0701D511A502E0490755
:1035F00004D510A5012401E0AFF3008000210A23C7
:1036000006F1240707E0B0FBF3F203FB12003030B1
:1036100078541046491C0028F5D123462A463046E6
:10362000BDE8F04100F0E5B8000000002D0000000A
:103630002B0000002000000070B504460D46214616
:103640001068AFF300802188090502D50F4A7A443B
:1036500002E00E4A7A440E32002104F1240305E010
:1036600000F00F060009965D5E54491C0028F7D152
:1036700020780023000704D5702D02D009B1022361
:1036800011322046BDE8704000F0B3B83A0A00009D
:103690002DE9F05F894604464FF0000ADFF824B1B7
:1036A000FB44C0F820A02046E168884700287DD070
:1036B000252806D0D4E901219047206A401C2062C9
:1036C000F1E700255F462046E16888472028064646
:1036D00007DB312E05D2B81910F8200C08B10543CC
:1036E000F1E7A80701D525F00405C4F81CA00027C0
:1036F000C4F818A02A2E09D0304600F04AF938B391
:1037000004EB8708303EC8F8186019E059F8041B2C
:10371000204604EB87029161E1688847012F064645
:1037200018D1E069002820DA25F020051DE0D8F83E
:10373000180000EB800006EB40003038C8F8180095
:103740002046E1688847064600F023F90028EED1BC
:10375000012F0AD02E2E08D12046E16888477F1C11
:103760000646022F45F02005C4DBA069002803DAD5
:10377000404245F00105A061E80701D025F01005A1
:10378000A6B1A6F14100192802D8203645F40065FB
:103790004A463146204625604D46FCF7B1FD60B1F2
:1037A000012807D0ED1D25F0070000E007E000F13B
:1037B000080978E705F1040975E730467AE7206AD9
:1037C000BDE8F09F100A000030B505460B462A46BA
:1037D00013F8014B12F8010B08B1A042F8D01CB14C
:1037E000002802D06D1CF1E7284630BD70477047B5
:1037F00070472DE9F0470D4699469246044600F180
:1038000024080168880604D5E06921F010012160D0
:1038100000E00120A84201DD471B00E00027A1696C
:103820007A1902EB0900081AA0612078C00602D4B8
:103830002046FFF777FE002608E0D4E901211AF8B8
:1038400006009047206A401C761C20624E45F4DB3F
:103850002078C0060AD52046FFF764FE06E0D4E9CA
:10386000012130209047206A401C2062381EA7F1B9
:103870000107F4DC07E0D4E9012118F805009047BE
:10388000206A401C2062281EA5F10105F3DC2046B9
:10389000FFF75EFE2078000602D50220BDE8F08723
:1038A0000120FBE710B5436913B1AFF3008001E0DD
:1038B000FFF75FFE012010BD127800F124010A70AD
:1038C00000224A700122EDE711684FF0FF32E9E76C
:1038D000074B70B50D467B4400F011F804462846AE
:1038E000FDF7BEF810B14FF0FF3070BD204670BD3F
:1038F00073D1FFFF01694A1C02610878704700B567
:103900008FB0CDE901310021059105497944CDE918
:10391000031011466846FFF7BBFE0FB000BD000064
:10392000E5FFFFFF754600F029F8AE460500694641
:10393000534620F00700854618B020B5FCF7B6FFC7
:10394000BDE820404FF000064FF000074FF00008A0
:103950004FF0000B21F00701AC46ACE8C009ACE821
:10396000C009ACE8C009ACE8C0098D467047044600
:10397000AFF300802046FCF7E0FC000000487047F1
:103980005832002001491820ABBEFEE72600020095
:10399000704730380A2801D2012070470020704754
:1039A0004FF04070E1EE100A7047636C6561720081
:1039B000000000000000000000000000000073652F
:1039C0007400000000000000000000000000000083
:1039D00000006765740000000000000000000000A7
:1039E0000000000000006F6E0000000000000000FA
:1039F000000000000000000000006F66660000008C
:103A000000000000000000000000000000006D61E8
:103A1000780000000000000000000000000000002E
:103A20000000706F6C6C00000000000000000000DF
:103A300000000000000073686F77000000000000C5
:103A400000000000000000000000000000400040F6
:103A500010000000008005401000000000500040F1
:103A600011000000009005401100000000600040BF
:103A70001200000000A0054012000000007000408D
:103A80001300000000B00540130000000040024099
:103A90001400000000C00540140000000050024067
:103AA0002E00000000D005402E0000000060024003
:103AB0002F00000000E005402F00000000700240D1
:103AC0003000000000F005403000000000D003404E
:103AD00046000000000006404600000000100640BE
:103AE000470000000020064048000000003006406B
:103AF0007F000000004006408000000000500640AB
:103B000084000000006006408C000000004000407F
:103B10001000000000800540100000000050004030
:103B200011000000009005401100000000600040FE
:103B30001200000000A005401200000000700040CC
:103B40001300000000B005401300000000400240D8
:103B50001400000000C005401400000000500240A6
:103B60002E00000000D005402E0000000060024042
:103B70002F00000000E005402F0000000070024010
:103B80003000000000F005403000000000D003408D
:103B90004300000000000640430000000010064003
:103BA00044000000002006404500000000300640B0
:103BB0005800000000400640590000000050064038
:103BC0005C0000000060064064000000004000400F
:103BD000008005400050004000900540006000401B
:103BE00000A005400070004000B0054000400240C9
:103BF00000C005400050024000D005400060024077
:103C000000E005400070024000F0054000D0034095
:103C1000000006400010064000100640002006404C
:103C200000200640003006400030064000400640BC
:103C3000004006400050064000500640006006402C
:103C4000006006400070064000700640008006409C
:103C500000800640009006400090064000070000EB
:103C60000006000000050000000400000003000042
:103C70000002000000010000000000000000000041
:103C800018ED00E01CED00E020ED00E000E400E0B5
:103C900004E400E008E400E00CE400E010E400E0EC
:103CA00014E400E018E400E01CE400E020E400E09C
:103CB00024E400E028E400E02CE400E030E400E04C
:103CC00034E400E038E400E03CE400E040E400E0FC
:103CD00044E400E048E400E04CE400E050E400E0AC
:103CE00054E400E058E400E05CE400E060E400E05C
:103CF00064E400E068E400E06CE400E070E400E00C
:103D000074E400E078E400E07CE400E080E400E0BB
:103D100084E400E088E400E000E100E004E100E089
:103D200008E100E00CE100E010E100E080E100E0EB
:103D300084E100E088E100E08CE100E090E100E057
:103D400000E200E004E200E008E200E00CE200E053
:103D500010E200E080E200E084E200E088E200E0BF
:103D60008CE200E090E200E040420F0000201C00E6
:103D700080841E0000802500999E36000040380097
:103D800000093D0000803E0000004B00404B4C000D
:103D900000204E00808D5B0000C05D000080700040
:103DA00000127A0000007D0080969800001BB7008A
:103DB0000080BB00C0E8CE00647ADA000024F40082
:103DC0000000FA0080A81201002D310100366E01BA
:103DD00040787D0140000000000000003E00080027
:103DE00000000000A00000000200000034540100A8
:103DF000000000002B7006000000000028000000FA
:103E0000000000002700010000000000200000006A
:103E10000000000050000000020000001AAC00008A
:103E2000000000001794090000000000169805002B
:103E300000000000140000000000000013800800D3
:103E400000000000A00000000800000010000000BA
:103E500000000000280000000200000040000000F8
:103E60000400000060000000000000005D000C0085
:103E70000000000050000000000000004E000200A2
:103E80000000000041AC0100000000003C00000008
:103E9000000000003A80090000000000300000002F
:103EA00000000000280000000000000027000100C2
:103EB00000000000236006000000000021600800F0
:103EC000000000001E000000000000001DC00400F3
:103ED0000000000050000000020000001800000078
:103EE000000000001400000000000000600000005E
:103EF000040000000024F40030003000005A620288
:103F00009100910000879303D200D20000B4C40452
:103F10001301130100E1F50554015401000E2707B8
:103F20009501950100D0121300389C1C000003403D
:103F30002300000000100340250000000020034083
:103F40002700000000300340330000000040034021
:103F500056000000005003406C0000000060034069
:103F60006E000000007003407000000000C00440BC
:103F70007200000000D004407400000000E0044023
:103F80007600000000F004407800000000000340CC
:103F90002300000000100340250000000020034023
:103FA00027000000003003403300000000400340C1
:103FB0004F000000005003405100000000000E4080
:103FC0007200000000100E407400000000C00040AD
:103FD0001500000000D000401600000000E0004086
:103FE0003100000000F000404B00000000000140E4
:103FF0004C000000001001404D0000000020014076
:104000004E000000003001404F00000000C00040A2
:104010001500000000D000401600000000E0004045
:104020003100000000F000404800000000000140A6
:1040300049000000001001404A000000002001403B
:104040004B000000003001404C00000000800040A8
:1040500017000000009000403200000000A0004067
:104060004900000000B000404A000000008000400D
:1040700017000000009000403200000000A0004047
:104080004600000000B000404700000030313233ED
:10409000343536373839414243444546403058007C
:1040A00030313233343536373839616263646566AE
:1040B000403078000400000800000000000000020A
:1040C0000001000010000000636C656172000000D8
:1040D0007365740000000000676574000000000054
:1040E0006F6E00006F666600000000006D61780072
:1040F00000000000706F6C6C000000001C410000AC
:10410000000000206C060000A802000040410000F2
:104110006C0600204C540000E4020000011933C872
:104120004033D04033D84033E04033E44033EC40B8
:1041300003FFF44001FF01FF01FF01FF01FF014701
:040000050000026D88
:00000001FF
