:020000040000FA
:10000000D00C0020090600001106000013060000B5
:100010001506000017060000190600000000000089
:100020000000000000000000000000001B060000AF
:100030001D060000000000001F0600002106000051
:100040002306000025060000270600002906000000
:100050002B0600007F0700001D070000310600008E
:1000600033060000350600003706000039060000A0
:100070003B0600003D0600003F0600004106000070
:100080004306000045060000470600003D0800004A
:100090004B0600004D0600004F0600005106000010
:1000A00053060000550600005706000059060000E0
:1000B0005B0600005D0600005F06000061060000B0
:1000C0006306000065060000670600006906000080
:1000D0006B0600006D0600006F0600007106000050
:1000E000730600007506000000000000770600009F
:1000F000790600007B0600005B0800007F06000018
:1001000081060000830600008506000087060000C7
:100110000000000000000000890600008B060000BF
:100120008D0600008F0600005908000093060000AD
:100130009506000097060000990600009B06000047
:1001400000000000000000000000000000000000AF
:100150009D0600009F060000A1060000A306000007
:10016000000000000000000000000000000000008F
:10017000000000000000000000000000000000007F
:10018000000000000000000000000000000000006F
:10019000000000000000000000000000000000005F
:1001A000000000000000000000000000000000004F
:1001B000A5060000A7060000A9060000AB06000087
:1001C000AD060000AF060000B1060000B306000057
:1001D000B5060000B7060000B9060000BB06000027
:1001E000BD060000BF060000C106000000000000C0
:1001F00000000000C3060000C5060000C70600009E
:10020000C9060000CB06000000000000000000004E
:10021000CD060000CF060000D1060000D306000086
:10022000D5060000D7060000D9060000DB06000056
:10023000DD060000DF060000E1060000E306000026
:10024000E5060000E7060000E9060000EB060000F6
:10025000ED060000EF060000F1060000F3060000C6
:10026000F5060000F7060000F906000000F002F8AD
:1002700000F054F80AA090E8000C82448344AAF1EC
:100280000107DA4501D100F049F8AFF2090EBAE8EA
:100290000F0013F0010F18BFFB1A43F001031847BA
:1002A000E0300000003100000A4410F8014B14F067
:1002B0000F0508BF10F8015B240908BF10F8014BB7
:1002C0006D1E05D010F8013B6D1E01F8013BF9D100
:1002D000641E03D0641E01F8015BFBD19142E4D39C
:1002E000704700000023002400250026103A28BF94
:1002F00078C1FBD8520728BF30C148BF0B60704798
:10030000642902F03383782902F06A830020704761
:100310001FB502F0F1FC1FBD10B510BD02F0AEFC20
:100320001146FFF7F5FF00F0CDF802F0CCFC03B466
:10033000FFF7F2FF03BC02F0D1FC0000EFF31080E6
:1003400072B67047EFF310807047EFF3108062B61B
:10035000704730BF704780F311887047EFF311800A
:10036000704700000138FDD17047000010B5844887
:1003700001F0B8FC834801F00DFA8248401C01F0FE
:1003800009FA8048C01C01F005FA7E48001D01F002
:1003900001FA7C48401D01F0FDF97B4801F0FAF9B3
:1003A0007948401C01F0F6F97648401D01F036FE10
:1003B000764801F0EFF900207549C866082301224C
:1003C0001946744800F0F3FB01220821714800F03F
:1003D00061FB0823012202216F4800F0E8FB0122A3
:1003E00002216D4800F056FB082301220E216B48C4
:1003F00000F0DDFB01220E21684800F04BFB0A23D0
:1004000001221121654800F0D2FB0022112163482E
:1004100000F040FB03214FF0402000F04EFE40F280
:10042000014000F0D7FE012000F0D4FE5C4802F04D
:1004300019F800215A4802F03EF901F0FDFC04468B
:1004400060234FF4E1322146554802F025F8544824
:1004500002F063F80321534800F02FFE4FF0011023
:1004600000F0B8FE504800F0B5FE504801F0FAFF29
:1004700000214E4802F01FF901F0DEFC044668231B
:100480004B4A2146494802F007F82121494801F02A
:1004900053FE0021474801F0DCFE474AFF21454852
:1004A00001F0FCFE0521152000F020FF10214A205C
:1004B00000F01CFF00F0F3F900204049088040499B
:1004C000088010BD1CB54AF6E1443B480090FF226D
:1004D0000221324800F0C0FC3AA002F013FA0020DA
:1004E0003C49087000BF10212C4800F0A5FC0028F2
:1004F000F9D110212A4802F0BEF80421364802F052
:1005000082F901212B4801F03DFF152000F010FF7A
:10051000232000F00DFF00F09FFE01F08DFC074648
:100520004FF6FF71234801F0F9FD39462BA002F088
:10053000E9F901A800F056F921E000F045FA054676
:1005400029462DA002F0DEF944EA050188B200F048
:1005500059FA2048007890B14FF6FF71154801F024
:10056000DDFD00201B49087084EA940080EAD40075
:1005700080EA541000F00106600840EAC634DCE767
:100580004005C001000800F0001800F0000400F071
:1005900000E00F4000400240007000400050024068
:1005A00000C00040005000400104010000D00040A5
:1005B00090D003000000034008AF2F000800002087
:1005C0000A0000200D0A48656C6C6F20576F726C32
:1005D000640D0A000000002000B00040546865204F
:1005E000436C6F636B2069732073657420746F2094
:1005F00025640D0A00000000496E203D202530339F
:1006000058200D0A000000003F4880473F4800473F
:10061000FEE7FEE7FEE7FEE7FEE7FEE7FEE7FEE7B2
:10062000FEE7FEE7FEE7FEE7FEE7FEE7FEE7FEE7A2
:10063000FEE7FEE7FEE7FEE7FEE7FEE7FEE7FEE792
:10064000FEE7FEE7FEE7FEE7FEE7FEE7FEE7FEE782
:10065000FEE7FEE7FEE7FEE7FEE7FEE7FEE7FEE772
:10066000FEE7FEE7FEE7FEE7FEE7FEE7FEE7FEE762
:10067000FEE7FEE7FEE7FEE7FEE7FEE7FEE7FEE752
:10068000FEE7FEE7FEE7FEE7FEE7FEE7FEE7FEE742
:10069000FEE7FEE7FEE7FEE7FEE7FEE7FEE7FEE732
:1006A000FEE7FEE7FEE7FEE7FEE7FEE7FEE7FEE722
:1006B000FEE7FEE7FEE7FEE7FEE7FEE7FEE7FEE712
:1006C000FEE7FEE7FEE7FEE7FEE7FEE7FEE7FEE702
:1006D000FEE7FEE7FEE7FEE7FEE7FEE7FEE7FEE7F2
:1006E000FEE7FEE7FEE7FEE7FEE7FEE7FEE7FEE7E2
:1006F000FEE7FEE7FEE7FEE7FEE7000004480549E7
:10070000034A054B704700006D030000C50400005C
:10071000D00A0020D00C0020D00A002008B54148A3
:10072000C06B00F0100038B110213E4801F0B1FF5D
:100730003C480068C0B2009008BD01463A483B4AB8
:1007400012888154394A1288501CC21700EB925209
:100750009212A0EB8222354B1A8018460088344A48
:10076000128890420AD1324A1288501CC21700EBFC
:1007700092529212A0EB82222D4B1A80704710B534
:100780002C48C06B00F0100040B11021294801F046
:1007900080FF28490968C8B2FFF7CFFF10BD00BF2E
:1007A000244A926902F02002002AF9D1214A1060FD
:1007B000704701460020704701464FF0FF3208881D
:1007C0001A4B1B8898420BD00888174B1A5C0B8871
:1007D000581CC31700EB93539B12A0EB83230B8091
:1007E0001046704711490988018070470146002072
:1007F0000E4B1A880B88934202DD02F580639AB291
:100800000B88D31A98B2704730B504460D460023C2
:1008100005E0E05C0849FFF7C2FF581C83B2AB4219
:10082000F7DB30BD00D000406C060020080000203F
:100830000A00002000C000400400002010B5012183
:10084000034801F0ADFD01200249087010BD000011
:100850000000034000000020704770472DE9F84376
:1008600005460E4617469846002400BF35F814107A
:10087000734801F0D8FF00BF714802F002F8002869
:10088000FAD169466E4801F0E0FF009826F814009E
:100890002046611C8CB2B842E8DBBDE8F8837FB526
:1008A000684800F077FF684800F074FF674800F080
:1008B00091FC674800F08EFC664800F08BFC0D212F
:1008C000654800F0DCFB00215D4801F0DFFF01F02E
:1008D000B3FA840A01F0B0FA0546102000231A4644
:1008E0002946CDE90040564801F03CFF002154481C
:1008F00001F0D3FF524801F060FFFF220221564869
:1009000000F0AAFA44F20A00ADF8080040F20440F0
:10091000ADF80A00002202214F4800F09DFA0023A2
:10092000022202A902A8FFF799FFFF2202214A48EA
:1009300000F092FA44F20C00ADF808004FF6FF7098
:10094000ADF80A0000220221434800F085FA002396
:10095000022202A902A8FFF781FFFF2202213E48DE
:1009600000F07AFA4FF48040ADF808004FF60170BD
:10097000ADF80A0000220221374800F06DFA00238A
:10098000022202A902A8FFF769FFFF2202213248D2
:1009900000F062FA44F21400ADF808004FF68070DF
:1009A000ADF80A00002202212B4800F055FA00237E
:1009B000022202A902A8FFF751FFFF2202212648C6
:1009C00000F04AFA7FBD70471CB5002444F21210B3
:1009D000ADF800000020ADF80200002202211E4800
:1009E00000F03AFA0023022269466846FFF736FF14
:1009F000FF220221184800F02FFABDF80200040A75
:100A000020461CBD1CB5044644F21400ADF800009D
:100A10007F20A0434FF680710844ADF80200002209
:100A200002210D4800F018FA0023022269466846A8
:100A3000FFF714FFFF220221074800F00DFA1CBD4A
:100A400000B00040031C00F0030800F001000300A8
:100A500001080300010C03000070004030B502469D
:100A6000F84B1824F8480068F84D2840F84DA84283
:100A700001D1F84B00BF002108E053F8310090424B
:100A800003D103EBC100406830BD491CA142F4D33F
:100A90000020F9E702F001031BB1D0F800340B434A
:100AA00002E0D0F800348B43C0F8003402F00203B7
:100AB0001BB1D0F820340B4302E0D0F820348B4334
:100AC000C0F82034704730B5024601208840C1B2DA
:100AD000D2F80034D2F8204403EA010008B1012022
:100AE00000E0002004EA01050DB1022500E0002528
:100AF000284330BD02F001031BB1D0F808340B438A
:100B000002E0D0F808348B43C0F8083402F0020346
:100B10001BB1D0F804340B4302E0D0F804348B430B
:100B2000C0F8043402F004031BB1D0F80C340B43BA
:100B300002E0D0F80C348B43C0F80C3402F480335C
:100B400023B1D0F8383543F0010303E0D0F838354D
:100B500023F00103C0F838357047F0B50246012094
:100B60008840C1B2D2F80834D2F80444D2F80C64F8
:100B7000D2F8385503EA010008B1012000E0002056
:100B800004EA01070FB1022700E00027384306EA14
:100B900001070FB1042700E00027384305F00107E3
:100BA000384310B14FF48030F0BD0020FCE7F0B5C1
:100BB000002416E00125A5400D4085B1D0F8C45FA2
:100BC00067000326BE40B543C0F8C45FD0F8C45FD9
:100BD0006700C2F34116BE403543C0F8C45F651CD0
:100BE000ECB2082CE6DB02F001051DB1D0F800558F
:100BF0000D4302E0D0F800558D43C0F8005502F0D7
:100C000002051DB1D0F804550D4302E0D0F804559B
:100C10008D43C0F8045502F004051DB1D0F8085505
:100C20000D4302E0D0F808558D43C0F8085502F096
:100C300008051DB1D0F818550D4302E0D0F818553D
:100C40008D43C0F8185502F010051DB1D0F83C5581
:100C50000D4302E0D0F83C558D43C0F83C5503F0FD
:100C600001051DB1D0F80C550D4302E0D0F80C552C
:100C70008D43C0F80C5503F002051DB1D0F8105596
:100C80000D4302E0D0F810558D43C0F8105503F025
:100C900004051DB1D0F814550D4302E0D0F81455E9
:100CA0008D43C0F8145503F008051DB1D0F81C554C
:100CB0000D4302E0D0F81C558D43C0F81C5503F4D9
:100CC00000751DB1D0F844550D4302E0D0F84455ED
:100CD0008D43C0F8445503F440751DB1D0F840551C
:100CE0000D4302E0D0F840558D43C0F840551BB984
:100CF000D0F828550D4302E0D0F828558D43C0F8B0
:100D00002855F0BDF0B514461D4601268E40F1B2BF
:100D1000D0F800650E400EB1012600E000263246F4
:100D2000D0F804650E400EB1022600E000263243E2
:100D3000D0F808650E400EB1042600E000263243CC
:100D4000D0F818650E400EB1082600E000263243A8
:100D5000D0F83C650E400EB1102600E0002632436C
:100D6000D0F8C46F4F00FE4006F0030642EA461278
:100D70002260D0F80C650E400EB1012600E000267E
:100D80003346D0F810650E400EB1022600E0002672
:100D90003343D0F814650E400EB1042600E000265F
:100DA0003343D0F81C650E400EB1082600E0002643
:100DB0003343D0F840650E404EB1D0F844650E4044
:100DC00016B14FF4007601E04FF4807633432B6088
:100DD000F0BDD0F810240A43C0F810247047D0F8B2
:100DE00010248A43C0F810247047024611B1D2F88B
:100DF00018047047D2F81404FBE7C0F81C147047BD
:100E000070B504460D462046FFF728FE06462946E3
:100E1000304600F031FA304600F08AFA70BD70B505
:100E200004462046FFF71AFE0546284600F0BCFAA5
:100E3000284600F03BFA70BD0246002000EB81001E
:100E400010587047042D000000E00F400000FF70B4
:100E500000000A10C42D0000002303EB8103C250E0
:100E6000704730B504460D46002229462046FFF75C
:100E700011FE0023012229462046FFF798FE30BDCF
:100E800030B504460D46022229462046FFF702FEF1
:100E90000823662229462046FFF789FE30BD30B57B
:100EA00004460D46002229462046FFF7F3FD0023A5
:100EB000012229462046FFF77AFE30BD30B50446B0
:100EC0000D46022229462046FFF7E4FD08230122B1
:100ED00029462046FFF76BFE30BD30B504460D466F
:100EE000022229462046FFF7D5FD0823662229461F
:100EF0002046FFF75CFE30BD30B504460D460222A9
:100F000029462046FFF7C6FD0823662229462046CB
:100F1000FFF74DFE30BD30B504460D46022229468E
:100F20002046FFF7B7FD0823662229462046FFF733
:100F30003EFE30BD30B504460D460022294620460F
:100F4000FFF7A8FD0823012229462046FFF72FFEC0
:100F500030BD30B504460D460823012229462046FF
:100F6000FFF725FE012229462046FFF793FD30BDFD
:100F700030B504460D460923012229462046FFF7D5
:100F800016FE012229462046FFF784FD30BD30B50C
:100F900004460D46022229462046FFF77BFD092321
:100FA000012229462046FFF702FE30BD30B5044637
:100FB0000D46022229462046FFF76CFD0823012238
:100FC00029462046FFF7F3FD30BD30B504460D46F7
:100FD000022229462046FFF75DFD082366222946A6
:100FE0002046FFF7E4FD30BD30B504460D46022231
:100FF00029462046FFF74EFD082366222946204653
:10100000FFF7D5FD30BD30B504460D460022294618
:101010002046FFF73FFD0023012229462046FFF727
:10102000C6FD30BD30B504460D4602222946204695
:10103000FFF730FD0823012229462046FFF7B7FDC0
:1010400030BD30B504460D46022229462046FFF742
:1010500021FD0823012229462046FFF7A8FD30BDC7
:1010600030B504460D46022229462046FFF712FD00
:101070000A23012229462046FFF799FD30BD30B5ED
:1010800004460D46022229462046FFF703FD0823A9
:10109000012229462046FFF78AFD30BD30B50446BF
:1010A0000D46022229462046FFF7F4FC08230122C0
:1010B00029462046FFF77BFD30BD30B504460D467E
:1010C000022229462046FFF7E5FC08230122294693
:1010D0002046FFF76CFD30BD30B504460D460022BA
:1010E00029462046FFF7D6FC002301222946204648
:1010F000FFF75DFD30BD30B504460D46022229469E
:101100002046FFF7C7FC0823012229462046FFF7A7
:101110004EFD30BD30B504460D460022294620461E
:10112000FFF7B8FC4FF40273012229462046FFF76F
:101130003EFD30BD30B504460D460022294620460E
:10114000FFF7A8FC4FF48473012229462046FFF7DD
:101150002EFD30BD30B504460D46022229462046FC
:10116000FFF798FC0823012229462046FFF71FFDC0
:1011700030BD30B504460D46022229462046FFF711
:1011800089FC0A23012229462046FFF710FD30BDC5
:1011900030B504460D46022229462046FFF77AFC68
:1011A0000823662229462046FFF701FD30BD30B5F1
:1011B00004460D46022229462046FFF76BFC082311
:1011C000012229462046FFF7F2FC30BD014601F519
:1011D000A960704710B50146C1F307401B4BDB6E99
:1011E00001248440234033B1012303EB4003184C16
:1011F00054F8230003E04300154C54F82300C1F3D6
:101200000722D0F82C350F249440A34301F00F049B
:1012100094402343C0F82C3510BDD0F834250A4340
:10122000C0F834257047D0F834258A43C0F83425F7
:101230007047D0F830250A43C0F830257047D0F801
:1012400030258A43C0F830257047000000E00F4089
:10125000842E000000BFFEE710B5FFF776F808B156
:10126000012010BD0020FCE710B5FFF767F808B1BA
:10127000012010BD0020FCE730B50246B64C2468C2
:10128000B64DAC420ED0B44C2368002005E053F8B4
:101290002040B24D45F82040401C9B28F7D3AF4C6E
:1012A000AD4D2C60AD4C44F8221030BDAC49AB4A7A
:1012B00042F820107047AB4951F82010AA4A114358
:1012C000A54A121D11607047A34A121D126802F44C
:1012D000E061002006E0A34A52F820208A4200D1B3
:1012E00002E0401C0828F6D300BF704710B50A463C
:1012F00083089E4C54F8233019688307DC0EFF23C3
:10130000A34099438307DB0E02FA03F319438308D2
:10131000964C54F82330196010BD01468808934A52
:1013200052F8200000688A07D20ED040C0B2704741
:10133000042808D188491C31096841F48031864A63
:101340001C3211602FE0052808D183491C3109683F
:1013500041F40031804A1C32116024E0062808D193
:101360007D491C31096841F480217B4A1C3211609F
:1013700019E00F2808D14FF0E021096941F002017E
:101380004FF0E02211610EE010280CD3A0F1100103
:1013900001F01F0201219140A0F110025209744B8B
:1013A00053F8222011607047042808D16A491C3183
:1013B000096821F48031684A1C3211602FE0052849
:1013C00008D165491C31096821F40031624A1C3298
:1013D000116024E0062808D15F491C31096821F416
:1013E00080215D4A1C32116019E00F2808D14FF0AE
:1013F000E021096921F002014FF0E02211610EE0C5
:1014000010280CD3A0F1100101F01F02012191401E
:10141000A0F110025209574B53F822201160704777
:1014200010B501460020042905D14B4A1C32126830
:1014300002F4803028E0052905D1474A1C321268A1
:1014400002F4003020E0062905D1434A1C3212681C
:1014500002F4802018E00F2905D14FF0E022126934
:1014600002F0020010E010290ED3A1F1100252097F
:101470003F4B53F822201268A1F1100303F01F0420
:101480000123A34002EA030010BD022808D132491B
:10149000091F096841F000412F4A121F116024E022
:1014A0000E2808D12C49091F096841F080512A4AA9
:1014B000121F116019E00F2808D12749091F096878
:1014C00041F08061244A121F11600EE010280CD3F5
:1014D000A0F1100101F01F0201219140A0F11002C2
:1014E0005209254B53F82220116070470E2808D16D
:1014F0001949091F096841F00061174A121F11605C
:1015000019E00F2808D11449091F096841F000713A
:10151000114A121F11600EE010280CD3A0F1100127
:1015200001F01F0201219140A0F110025209134B5A
:1015300053F822201160704710B504462046FEF78C
:101540000AFF10BD10B5FEF709FF10BDA0F1100194
:101550000B4A11607047000008ED00E00004002015
:1015600055120000142F00000000FA05342F00006F
:10157000D02F0000E42F0000F82F00000C300000F6
:1015800000EF00E0024600210AE0F74850F8310081
:10159000904204D3F44800EBC10040687047491CF6
:1015A0000629F2D30020F9E7F0B50146DFF8BCC305
:1015B000DCF860C1CCF38923DFF8B0C3DCF860C18C
:1015C000CCF30905DFF8A4C3DCF864C1CCF3042C28
:1015D0000CF10106DFF894C3DCF864C10CF01F0CB9
:1015E0000CF10107B1FBF7F15A09A3EB421401FB1F
:1015F00005F001FB02FC00EB5C1001FB04FC00EBBE
:101600009C20B0FBF6F0F0BDD8483C380068401C88
:1016100000027047D5480068D5490840D54988423E
:1016200006D1D24880680004400900F50060704788
:10163000CE484038006880B2401CC002F7E7CB4873
:101640000068CB490840CC49884209D1C748403896
:101650000068C0F302400A30012101FA00F070472F
:101660004FF48060FBE70146C1F30720C34A1044F2
:1016700000F0704040F00070C1F30722BF4B1A44E5
:10168000C2F3130240EA4210CAB240EA8200006884
:1016900008B1012070470020FCE70146C1F3072094
:1016A000B74A104400F0704040F00070C1F30722C8
:1016B000B34B1A44C2F3130240EA4210CAB240EAE2
:1016C0008200006808B1012070470020FCE710B5D7
:1016D0000121C0F30722AB4B1A4402F0704242F0E2
:1016E0000072C0F30723A74C2344C3F3130342EA59
:1016F0004312C3B242EA8302116010BD10B500214B
:10170000C0F307229F4B1A4402F0704242F000726D
:10171000C0F307239B4C2344C3F3130342EA431251
:10172000C3B242EA8302116010BD18B50121C0F3B3
:101730000722954B1A4402F0704242F00072C0F347
:101740000723914C2344C3F3130342EA4312C3B269
:1017500042EA830211600021009102E00099491CD5
:10176000009100991029F9D30021C0F30722864B7C
:101770001A4402F0704242F00072C0F30723824C18
:101780002344C3F3130342EA4312C3B242EA83027F
:10179000116018BD10B50121C0F307227B4B1A441C
:1017A00002F0704242F00072C0F30723774C2344EA
:1017B000C3F3130342EA4312C3B242EA8302116045
:1017C00010BD10B50021C0F30722704B1A4402F07F
:1017D000704242F00072C0F307236C4C2344C3F301
:1017E000130342EA4312C3B242EA8302116010BDFE
:1017F00010B50121C0F30722654B1A4402F0704274
:1018000042F00072C0F30723614C2344C3F3130377
:1018100042EA4312C3B242EA8302116010BD10B51E
:101820000021C0F307225A4B1A4402F0704242F0E2
:101830000072C0F30723564C2344C3F3130342EA58
:101840004312C3B242EA8302116010BD10B50121F8
:10185000C0F307224F4B1A4402F0704242F000726C
:10186000C0F307234B4C2344C3F3130342EA431250
:10187000C3B242EA8302116010BD10B50021C0F36B
:101880000722444B1A4402F0704242F00072C0F347
:101890000723404C2344C3F3130342EA4312C3B269
:1018A00042EA8302116010BD30490968304A114094
:1018B000304A91420ED130B12C49096E41F000619D
:1018C0002A4A116618E02949096E21F00061274A69
:1018D000116611E040B12549B031096841F000516D
:1018E000224AC2F8B01007E02049B031096821F05F
:1018F00000511E4AC2F8B010704710B50446214688
:101900002C20FFF7B9FC2C20FFF712FD10BD10B5FD
:101910002C20FFF749FD2C20FFF7C8FC10BD134910
:10192000496D0143114A516570471049496D814322
:101930000E4A516570470D4988657047014611B1DF
:101940000A48806D70470948006DFBE7124908603E
:1019500070471148006870470F49083108607047A8
:101960000D48083000687047AC31000000E00F40BF
:101970000000FF700000051000000A1000E30F4097
:1019800000EA0F4000E90F4000E50F4000E60F407D
:1019900000E70F4000E80F40B4E10F40FB4908604A
:1019A0007047FA49091D08607047F948F94908600D
:1019B00000BFFEE710B5FEF7CCFC10BD10B5F54832
:1019C000001D006840F00400F249091D0860FEF7A0
:1019D000C0FCF048001D006820F00400ED49091D1E
:1019E000086010BDEC48C06D7047EB49C96D81437C
:1019F000E94AD1657047E849C86770470146E7483A
:101A0000084050B101F00040E04A383A1060E34825
:101A100081380840E04AC2F85001DC48383801609B
:101A200001F4007088B100BFD8483438006800F471
:101A300040700028F8D0D5483438006800F4407071
:101A4000B0F5807F01D0002070470120FCE7CF492E
:101A5000503108607047CD485030006870472DE91C
:101A6000FE4F05468A46CC480068CD490840CD491E
:101A7000884202D10020BDE8FE8FC5F3841605F030
:101A80003800102805D1DFF82093002700BF152665
:101A900033E005F03800302804D147F230594FF4D4
:101AA00000172AE005F03800382804D14FF4004927
:101AB0004FF4800721E005F03800D8B91A2E01DC78
:101AC000092E01DA0020D6E7B84850F826904FF4E6
:101AD000401747F04077B048C06F20F01C000190DD
:101AE000072E03DB019840F010000190AA490198ED
:101AF000C86702E04FF00009002705F46050002895
:101B00007ED105F0380028B105F03800102801D04A
:101B10000020B0E7C5F3026BA548FFF733FD9E49EF
:101B2000C03108609C48D0F8B000A24900EA010426
:101B300044F000449848B0300460093E0BEBCB0001
:101B40009D4901EB001000EBC60040689249D1F8B6
:101B5000641188420DD10BEBCB00974901EB0010CB
:101B600050F8360040F40000884928390968884256
:101B700002D00120009001E000200090009808B3FE
:101B80008548B030006838438349C1F8B0000BEB9A
:101B9000CB00894901EB001000EBC60040687B498F
:101BA000243908600BEBCB00834901EB001050F89F
:101BB000360076492839096801F400010843734961
:101BC000283908607D4850F82B005044401EB0FB77
:101BD000FAF84846FFF7E8FCB0FBF8FA5046FFF782
:101BE000D1FC6D49C03108606B48D0F8600100F449
:101BF000000068B10098012812D16748B03000E0B9
:101C000034E0006840F080406349C1F8B00007E06C
:101C10005E482838006840F400005F49C1F8600160
:101C20004FF40040029009E058482038006800F066
:101C3000010000B105E00298401E029002980028C1
:101C4000F2DC00BF029870B15348B0300468A8F1CC
:101C50000100384340F08050044344F000444E48B3
:101C6000C0F8B0403CE04FF0000A39E04E48FFF7C2
:101C700089FC4949C03108604748D0F8600120F428
:101C800000004549C1F860010846D0F8B0404C4812
:101C9000044044F000444048B0300460BAF1000F02
:101CA00002D14FF000080AE0B9FBFAF8B8F1000FD2
:101CB00001D0A8F1010808F10100B9FBF0FA504683
:101CC000FFF760FC3449C03108603348D0F8B040B9
:101CD00047EA8820044344F000442F48B0300460B1
:101CE0005046C8E62DE9F04106462B48046E056FC4
:101CF00044F4006424F4800445F400650466056738
:101D000004F00100D8B106F00100C0B966F001008E
:101D100004404FF4807020498865084604664FF4FB
:101D2000002702E07F1E07B905E01B48006D00F4A4
:101D300080700028F6D000BF0FB9BDE8F08124F410
:101D4000FE6406F4FE6004431E4805401D49A131AF
:101D500006EA0100054306F0080045EAC0050E4802
:101D60000466056724F4005406F40050044325F487
:101D7000005506F40050054340200749886505F0EA
:101D8000004008B308460567046620E088E10F407C
:101D90000400FA050CED00E000E00F4000010080B7
:101DA0000000FF70000005100024F4002030000047
:101DB00040787D0100FC0FE08C300000DC31000039
:101DC000FF0300EF8FFFFF7FB54804660567B54846
:101DD0000440C14306EA0100044325F0FC5506F027
:101DE000FC50054306F0804040B144F4800425F4E3
:101DF0008005AD4906EA0100054301E025F0804574
:101E000006F4006080B94FF4004706E0A748006878
:101E100000F0010000B102E07F1E002FF6D100BFEC
:101E200024F4006425F400659D48046605671020CD
:101E3000FEF798FA00BF80E7F0B59948036E026F8D
:101E400002F0004010B102F0700001E003F0300039
:101E5000202811D003DC38B1102815D10AE0302831
:101E60000CD0702810D10CE09148C3F3841750F8BF
:101E700027100BE08F4909E08F4907E047F2305106
:101E800004E04FF4004101E00020F0BD00BF4FF03E
:101E9000FF3402F0004010B102F4006028B102F0FB
:101EA000004098BB03F4006080BB80480838056898
:101EB0007B48D0F8646106F01F00401CC6F304277D
:101EC0007F1C10FB07F04000B1FBF0F1C5F30900E7
:101ED0004843C5F389274F4300EB972143F4800320
:101EE0006F48006900F47040B0F5804F13D006DCF5
:101EF000B0F5005F0BD0B0F5405F12D109E0B0F54E
:101F0000E04F0AD0B0F5104F0BD108E00BE06B4C5E
:101F100008E06B4C06E06B4C04E06B4C02E06B4C51
:101F200000E000BF00BF03F4800018B302F00040DF
:101F3000D8B102F0804090B102F0004010B102F43C
:101F4000006028B102F0004048B903F4006030B9E5
:101F50004F00C2F38650401CB7FBF0F10AE0C2F319
:101F6000C550401CB1FBF0F104E0C3F3C350401C6A
:101F7000B1FBF0F18C4200D22146084685E74B497F
:101F800024390860704710B50246454B1B68504C19
:101F90002340504CA34208D121F0FC54531E44EA84
:101FA000C353424C243C236023E0501E01F07003D5
:101FB00033B1102B0ED0302B05D0702B09D105E09A
:101FC00040F4401007E040F4001004E040F48000CA
:101FD00001E000BF00BF00BF01F002030BB140F001
:101FE000004001F080430BB140F080402F4B243B78
:101FF000186010BD2A49096E21F4F0110143284AE6
:10200000116670472648006E00F4801008B9002061
:1020100070472348006E00F4F010F9E72049C96EBC
:1020200000F00F0301229A4011431D4AD166704708
:102030001B49C96E00F00F0301229A409143184AD0
:10204000D16670471648006F20F480401449086735
:1020500070471348006F40F480401149086770478B
:102060000F49886370470E48006E70470C49096E2F
:1020700001430B4A116670470948406E7047084992
:10208000496E8143064A516670474A1ED2B20243E6
:10209000064B203B1A60704704493039086070478E
:1020A00000E00F40FEFF3FF80000404068E10F40B5
:1020B000203000000024F40000093D0000B4C404F6
:1020C00080F0FA02005A620240787D01002D310151
:1020D0000000FF7000000510F0B503460C46C24D2D
:1020E0000C26C2480068C24F3840C24FB84201D1E6
:1020F000C14D082600210DE055F83100984208D165
:1021000005EBC1004268B4F57F4F00D1521C104668
:10211000F0BD491CB142EFD30020F9E7C26840F29C
:1021200001130B401A43C2607047C26840F20113AA
:102130000B409A43C2607047C26840F201139A4351
:10214000C2600A0E0260A94A1268A94B1A40A94B44
:102150009A4211D1CAB201F4702342EA131242F436
:102160000072426001F47002C1F3072343EA1222B5
:1021700042F40072826008E0CAB242F40072426027
:10218000C1F3072242F400728260704744F24003B8
:10219000194012B1C3680B4301E0C3688B43C360AD
:1021A000704710B5914B1B68914C2340914CA34252
:1021B0000AD140F201130B4012B1046F1C4301E03D
:1021C000046F9C43046700BF42F22003194012B120
:1021D000C3680B4301E0C3688B43C36010BD10B5F7
:1021E00040F60C431940C3688B4302EA01042343C1
:1021F000C36010BD40F20223194012B1C3680B4303
:1022000001E0C3688B43C3607047CBB24BB122B1CE
:10221000436843F04003436003E0436823F0400316
:10222000436001F47F434BB122B1836843F0400324
:10223000836003E0836823F0400383607047C168D4
:1022400041F01001C1607047C16821F01001C16008
:102250007047C0F8C81F70470146D1F8C80F7047D3
:10226000CBB203B1826301F47F4303B1C263704711
:102270000246FF2901D1906B7047D06BFCE7CBB2CF
:1022800003B1026401F47F4303B142647047024624
:10229000FF2901D1106C7047506CFCE7CBB203B141
:1022A000826201F47F4303B1C26270470246FF2994
:1022B00001D1906A7047D06AFCE7C36282627047BE
:1022C00030B5034600BFDA6A9C6ADD6AAA42FAD1D9
:1022D000002001462043114330BD0246FF2901D1B1
:1022E000906C7047D06CFCE730B5034600BFDA6CE9
:1022F0009C6CDD6CAA42FAD10020014620431143B8
:1023000030BDCBB203B1026301F47F4303B142633A
:1023100070470246FF2901D1106B7047506BFCE7F4
:1023200043630263704730B5034600BF5A6B1C6BB2
:102330005D6BAA42FAD1002001462043114330BD13
:102340002DE9F04105460E46144631462846FFF772
:10235000C3FE074621463846FEF78EFF3846FEF795
:10236000E7FFBDE8F08170B504460D4629462046DA
:10237000FFF7B2FE06463046FFF716F83046FEF786
:1023800095FF70BD82690A438261704782698A4302
:1023900082617047024609B1106A7047D069FCE754
:1023A0004162704701617047016770470146086FDD
:1023B0007047C16670470146C86E704710B50B463E
:1023C000DCB2FF2C04D1446824F4A06111434160C5
:1023D00003F47F44B4F57F4F04D1846824F4A061F2
:1023E0001143816010BD0000E431000000E00F40A7
:1023F0000000FF7000000A104432000030B50246B1
:10240000C54B0824C5480068C54D2840C54DA842A5
:1024100001D1C54B00BF002108E053F831009042C4
:1024200003D103EBC100406830BD491CA142F4D385
:102430000020F9E7C26A22F086020A43C2627047AE
:102440000146C86A00F08600704741EA0203436310
:10245000704710B5436B03F007040C6003F03804B9
:10246000146010BDC16A41F01001C162016B40F2FD
:10247000013211430163704700BF816901F0080117
:102480000029FAD1C16A21F01001C162016B40F24A
:102490000132914301637047F0B504460E4615467C
:1024A0001F462046FFF7E8FFB6EB051F05D2206B5D
:1024B00040F0200020636D0803E0206B20F0200036
:1024C0002063F000B0FBF5F0401C430898096062FF
:1024D00003F03F00A062E7620020A0612046FFF702
:1024E000C1FFF0BDF0B5446A856A8E00402707FB46
:1024F0000457B6FBF7F61660066B06F0200616B119
:10250000166876001660C66A06F0EE061E60F0BD1C
:10251000C16A41F01001C1627047C16A21F0100127
:10252000C162704721B1026B42F00602026303E010
:10253000026B42F0020202637047016B21F0060158
:1025400001637047C16A21F0E60141F06E01C1628A
:10255000026B42F0080202637047016B21F0080130
:1025600001637047026B01F440631A4302637047D2
:10257000026B01F440639A43026370470146086BA3
:1025800000F4406070470146886940F2071210402D
:102590007047026B22F440420A43026370470146CF
:1025A000086B00F440407047026B22F010020A43AF
:1025B000026370470146086B00F010007047014647
:1025C0008869012222EA10107047014688690122B9
:1025D00022EA501070470146886900F0100008B9DF
:1025E000086870474FF0FF30FBE7014600BF88697D
:1025F00000F010000028FAD1086870470246906980
:1026000000F0200010B91160012070470020FCE7A5
:1026100000BF826902F02002002AFAD101607047EF
:1026200019B1C26A42F0010202E0C26A22F001025C
:10263000C262704701468869C0F3C000704770B538
:1026400004460D462046FFF7D9FE06462946304689
:10265000FEF712FE3046FEF76BFE70BD70B5044605
:102660002046FFF7CBFE05462846FEF79DFE28468E
:10267000FEF71CFE70BD826B0A4382637047826B5B
:102680008A4382637047024609B1106C7047D06B71
:10269000FCE741647047826C0A4382647047826C35
:1026A0008A43826470470146486800F00F00704713
:1026B000002141607047C0F8C81F70470146D1F83B
:1026C000C80F7047D0F8A41041F40041C0F8A4101E
:1026D0007047D0F8A41021F40041C0F8A41070474E
:1026E000C0F8A410C0F8A82070470A4600BF83694C
:1026F00003F08803802BFAD1C16A21F0040343F070
:102700008203C362026000BF836903F08803802BE9
:10271000FAD1C162704700008432000000E00F402F
:102720000000FF7000000A10C432000030B50246FD
:102730006F4B04246F4800686F4D28406F4DA842CE
:1027400001D16F4B00BF002108E053F831009042E7
:1027500003D103EBC100406830BD491CA142F4D352
:102760000020F9E72DE9F04F0C461D46DDE909C8C8
:1027700015B94FF0000A01E04FF0040A57464760D0
:10278000B4FBFCF6002100BF891CB6FBF1FAAAF1EC
:102790000103FF2BF8D801614FEA827A4FEA1A69E8
:1027A00002F0300249EA032A4AEA020AA8F1010BC0
:1027B0004AEA0B070760BDE8F08F416841F002016B
:1027C00041607047416821F002014160704770B577
:1027D00004460D462046FFF7A9FF06462946304627
:1027E000FEF74AFD3046FEF7A3FD70BD70B5044606
:1027F0002046FFF79BFF05462846FEF7D5FD2846F5
:10280000FEF754FD70BD42690A4342617047426958
:102810008A4342617047024609B1D06970479069A6
:10282000FCE70162704700BFC26802F00202002AA2
:10283000FAD0816070470246D06800F0020010B103
:102840009160012070470020FCE700BFC26802F0E1
:102850000402002AFAD082680A6070470246D068F3
:1028600000F0040018B19068086001207047002053
:10287000FCE7426A0A4342627047426A8A43426204
:1028800070470146C868C0F300107047C0F8C81F01
:1028900070470146D1F8C80F7047426822F4E072D1
:1028A0000A434260704700BFC26802F00202002A79
:1028B000FAD0426842F4006242608160704702468A
:1028C000D06800F0020030B1506840F40060506001
:1028D0009160012070470020FCE7416841F480616D
:1028E00041607047416821F4806141607047000099
:1028F0000433000000E00F400000FF7000000A10E9
:10290000243300000FB4044910B503AA029800F064
:102910008BF910BC5DF814FB0400002070B5044670
:1029200085690068C10601D5302600E02026C00771
:1029300007D070BDD4E9012130469047206A401C81
:1029400020626D1EF6D570BD70B5044685690078AD
:10295000C00707D170BDD4E9012120209047206A2B
:10296000401C20626D1EF6D570BD00002DE9F041BF
:102970000646002410687529314615A510D0AFF31E
:102980000080002802DA404212A507E031688A0779
:1029900001D511A502E0490704D510A5012401E0E5
:1029A000AFF3008000210A2306F1240707E0B0FB03
:1029B000F3F203FB1200303078541046491C002813
:1029C000F5D123462A463046BDE8F04100F0D3B8A1
:1029D000000000002D0000002B000000200000007F
:1029E00070B504460D4621461068AFF3008021887B
:1029F000090502D50F4A7A4402E00E4A7A440E32A3
:102A0000002104F1240305E000F00F060009965DA3
:102A10005E54491C0028F7D120780023000704D514
:102A2000702D02D009B1022311322046BDE870405A
:102A300000F0A1B84A0900002DE9F05F894604467C
:102A40004FF0000ADFF824B1FB44C0F820A0204674
:102A5000E168884700287DD0252806D0D4E90121E7
:102A60009047206A401C2062F1E700255F4620461F
:102A7000E16888472028064607DB312E05D2B819C1
:102A800010F8200C08B10543F1E7A80701D525F09F
:102A90000405C4F81CA00027C4F818A02A2E09D0E9
:102AA000304600F022F938B304EB8708303EC8F80E
:102AB000186019E059F8041B204604EB8702916165
:102AC000E1688847012F064618D1E069002820DA1E
:102AD00025F020051DE0D8F8180000EB800006EB7B
:102AE00040003038C8F818002046E168884706469C
:102AF00000F0FBF80028EED1012F0AD02E2E08D1CD
:102B00002046E16888477F1C0646022F45F02005D5
:102B1000C4DBA069002803DA404245F00105A0614A
:102B2000E80701D025F01005A6B1A6F1410019284B
:102B300002D8203645F400654A46314620462560D5
:102B40004D46FDF7DDFB60B1012807D0ED1D25F0F6
:102B5000070000E007E000F1080978E705F1040943
:102B600075E730467AE7206ABDE8F09F200900004B
:102B70007047704770472DE9F0470D4699469246D9
:102B8000044600F124080168880604D5E06921F0B4
:102B90001001216000E00120A84201DD471B00E098
:102BA0000027A1697A1902EB0900081AA0612078B0
:102BB000C00602D42046FFF7B1FE002608E0D4E9A3
:102BC00001211AF806009047206A401C761C2062FA
:102BD0004E45F4DB2078C0060AD52046FFF79EFE5E
:102BE00006E0D4E9012130209047206A401C206291
:102BF000381EA7F10107F4DC07E0D4E9012118F839
:102C000005009047206A401C2062281EA5F101059E
:102C1000F3DC2046FFF798FE2078000602D502205C
:102C2000BDE8F0870120FBE7074B70B50D467B44FC
:102C300000F011F804462846FDF7BBFD10B14FF037
:102C4000FF3070BD204670BD6DDBFFFF01694A1C7F
:102C500002610878704700B58FB0CDE901310021DD
:102C6000059105497944CDE9031011466846FFF7FF
:102C7000E3FE0FB000BD0000E5FFFFFF754600F06A
:102C800029F8AE4605006946534620F00700854600
:102C900018B020B5FDF732FDBDE820404FF000062A
:102CA0004FF000074FF000084FF0000B21F0070134
:102CB000AC46ACE8C009ACE8C009ACE8C009ACE877
:102CC000C0098D4670470446AFF300802046FDF7EB
:102CD0002EFB0000004870476C0A002001491820B4
:102CE000ABBEFEE726000200704730380A2801D24A
:102CF00001207047002070474FF04070E1EE100A4D
:102D000070470000004000401000000000800540B7
:102D1000100000000050004011000000009005402D
:102D200011000000006000401200000000A00540FB
:102D300012000000007000401300000000B00540C9
:102D400013000000004002401400000000C00540D5
:102D500014000000005002402E00000000D005408A
:102D60002E000000006002402F00000000E005403F
:102D70002F000000007002403000000000F005400D
:102D80003000000000D00340460000000000064074
:102D900046000000001006404700000000200640EA
:102DA00048000000003006407F0000000040064060
:102DB00080000000005006408400000000600640D3
:102DC0008C00000000400040100000000080054022
:102DD000100000000050004011000000009005406D
:102DE00011000000006000401200000000A005403B
:102DF00012000000007000401300000000B0054009
:102E000013000000004002401400000000C0054014
:102E100014000000005002402E00000000D00540C9
:102E20002E000000006002402F00000000E005407E
:102E30002F000000007002403000000000F005404C
:102E40003000000000D003404300000000000640B6
:102E5000430000000010064044000000002006402F
:102E600045000000003006405800000000400640C9
:102E700059000000005006405C0000000060064061
:102E80006400000000400040008005400050004009
:102E9000009005400060004000A005400070004028
:102EA00000B005400040024000C005400050024014
:102EB00000D005400060024000E005400070024084
:102EC00000F0054000D0034000000640001006401E
:102ED000001006400020064000200640003006405A
:102EE00000300640004006400040064000500640CA
:102EF000005006400060064000600640007006403A
:102F000000700640008006400080064000900640A9
:102F100000900640000700000006000000050000C9
:102F20000004000000030000000200000001000097
:102F3000000000000000000018ED00E01CED00E0C3
:102F400020ED00E000E400E004E400E008E400E03C
:102F50000CE400E010E400E014E400E018E400E019
:102F60001CE400E020E400E024E400E028E400E0C9
:102F70002CE400E030E400E034E400E038E400E079
:102F80003CE400E040E400E044E400E048E400E029
:102F90004CE400E050E400E054E400E058E400E0D9
:102FA0005CE400E060E400E064E400E068E400E089
:102FB0006CE400E070E400E074E400E078E400E039
:102FC0007CE400E080E400E084E400E088E400E0E9
:102FD00000E100E004E100E008E100E00CE100E0D5
:102FE00010E100E080E100E084E100E088E100E041
:102FF0008CE100E090E100E000E200E004E200E0AB
:1030000008E200E00CE200E010E200E080E200E014
:1030100084E200E088E200E08CE200E090E200E080
:1030200040420F0000201C0080841E00008025000C
:10303000999E36000040380000093D0000803E00A7
:1030400000004B00404B4C0000204E00808D5B0088
:1030500000C05D000080700000127A0000007D005A
:1030600080969800001BB7000080BB00C0E8CE002F
:10307000647ADA000024F4000000FA0080A812014B
:10308000002D310100366E0140787D0140000000C6
:10309000000000003E00080000000000A00000004A
:1030A0000200000034540100000000002B700600F4
:1030B00000000000280000000000000027000100C0
:1030C0000000000020000000000000005000000090
:1030D000020000001AAC0000000000001794090074
:1030E0000000000016980500000000001400000019
:1030F000000000001380080000000000A000000095
:10310000080000001000000000000000280000007F
:103110000200000040000000040000006000000009
:10312000000000005D000C000000000050000000E6
:10313000000000004E0002000000000041AC010051
:10314000000000003C000000000000003A80090080
:103150000000000030000000000000002800000017
:1031600000000000270001000000000023600600AE
:103170000000000021600800000000001E000000A8
:10318000000000001DC0040000000000500000000E
:103190000200000018000000000000001400000001
:1031A0000000000060000000040000000024F400A3
:1031B00030003000005A62029100910000879303B2
:1031C000D200D20000B4C4041301130100E1F505DC
:1031D00054015401000E27079501950100D01213E8
:1031E00000389C1C00000340230000000010034036
:1031F00025000000002003402700000000300340AD
:10320000330000000040034056000000005003401F
:103210006C000000006003406E000000007003407E
:103220007000000000C004407200000000D00440A4
:103230007400000000E004407600000000F004404C
:10324000780000000000034023000000001003404D
:10325000250000000020034027000000003003404C
:1032600033000000004003404F00000000500340C6
:103270005100000000000E407200000000100E40DF
:103280007400000000C000401500000000D00040A5
:103290001600000000E000403100000000F0004097
:1032A0004B000000000001404C00000000100140F5
:1032B0004D000000002001404E00000000300140A1
:1032C0004F00000000C000401500000000D000408A
:1032D0001600000000E000403100000000F0004057
:1032E00048000000000001404900000000100140BB
:1032F0004A000000002001404B0000000030014067
:103300004C000000008000401700000000900040CA
:103310003200000000A000404900000000B0004062
:103320004A000000008000401700000000900040AC
:103330003200000000A000404600000000B0004045
:1033400047000000303132333435363738394142A6
:1033500043444546403058003031323334353637F7
:1033600038396162636465664030780004000008A3
:10337000000000000000000200010000100000003A
:10338000A0330000000000206C060000A80200002E
:10339000B03300006C06002064060000E402000068
:1033A00001FF01FF01FF01FF01FF01FF01790000A3
:040000050000026D88
:00000001FF
