:020000040000FA
:10000000B85600206909000071090000730900005A
:100010007509000077090000790900000000000060
:100020000000000000000000000000007B0900004C
:100030007D090000000000007F0900008109000028
:100040008309000085090000870900008909000074
:100050008B090000B50C0000830A00009109000024
:100060009309000095090000970900009909000014
:100070009B0900009D0900009F090000A1090000E4
:10008000A3090000A5090000A7090000090E00004F
:10009000AB0900008D0F0000AF090000EF0F00005A
:1000A000B3090000B5090000B7090000B909000054
:1000B000BB090000BD090000BF090000C109000024
:1000C000C3090000C5090000C7090000C9090000F4
:1000D000CB090000CD090000CF090000D1090000C4
:1000E000D3090000D509000000000000D709000076
:1000F000D9090000DB09000033100000DF0900000F
:10010000E1090000E3090000E5090000E70900003B
:100110000000000000000000E9090000EB090000F9
:10012000ED090000EF09000031100000F3090000A4
:10013000F5090000810A0000F9090000FB09000030
:1001400000000000000000000000000000000000AF
:10015000FD090000FF090000010A0000030A000079
:10016000000000000000000000000000000000008F
:10017000000000000000000000000000000000007F
:10018000000000000000000000000000000000006F
:10019000000000000000000000000000000000005F
:1001A000000000000000000000000000000000004F
:1001B000050A0000070A0000090A00000B0A0000F7
:1001C0000D0A00000F0A0000110A0000130A0000C7
:1001D000150A0000170A0000190A00001B0A000097
:1001E0001D0A00001F0A0000210A00000000000094
:1001F00000000000230A0000250A0000270A000072
:10020000290A00002B0A0000000000000000000086
:100210002D0A00002F0A0000310A0000330A0000F6
:10022000350A0000370A0000390A00003B0A0000C6
:100230003D0A00003F0A0000410A0000430A000096
:10024000450A0000470A0000490A00004B0A000066
:100250004D0A00004F0A0000510A0000530A000036
:10026000550A0000570A0000590A000000F002F881
:1002700000F05AF80AA090E8000C82448344AAF1E6
:100280000107DA4501D100F04FF8AFF2090EBAE8E4
:100290000F0013F0010F18BFFB1A43F001031847BA
:1002A000F04B0000104C00000A4410F8014B14F011
:1002B0000F0508BF10F8015B240908BF10F8014BB7
:1002C0006D1E05D010F8013B6D1E01F8013BF9D100
:1002D000641E03D0641E01F8015BFBD19142E4D39C
:1002E000704700000023002400250026103A28BF94
:1002F00078C1FBD8520728BF30C148BF0B60704798
:10030000642903F09D87782903F0D487632904F0DA
:100310005681732904F05B81002070471FB504F0FB
:10032000F5F91FBD10B510BD04F0B2F91146FFF785
:10033000F5FF00F06CF904F0D0F903B4FFF7F2FF19
:1003400003BC04F0D5F90000EFF3108072B67047DB
:10035000EFF310807047EFF3108062B6704730BF44
:10036000704780F311887047EFF3118070470000E9
:100370000138FDD17047000010B5FB4802F05CFF6A
:10038000FA48006E40F4D010F8490866F84802F0C8
:10039000ABFCF748401C02F0A7FCF548801C02F0BB
:1003A000A3FCF348C01C02F09FFCF148001D02F0C2
:1003B0009BFCEF48401D02F097FCEE4802F094FCD5
:1003C000EC48401C02F090FCEA48401D02F08CFC16
:1003D000E94802F089FCE94802F086FCE448401D47
:1003E00003F0D0F8E64802F07FFCE548401C02F03C
:1003F0007BFCE348801C02F077FC0020DB49C866E8
:1004000000220221DF4801F0A1FD08230122194644
:10041000DC4801F046FC01220821DA4801F0B4FB77
:10042000082301220221D84801F03BFC01220221CD
:10043000D54801F0A9FB092301224021D24801F04F
:1004400030FC01224021D04801F09EFB082301220C
:100450000421CD4801F025FC01220421CA4801F005
:1004600093FB082301220E21C84801F01AFC012247
:100470000E21C64801F088FB0823012240214FF0DD
:10048000402001F00EFC022240214FF0402001F0FC
:100490007BFB41F6050001F017FF0A230122112121
:1004A000BA4801F0FEFB00221121B84801F06CFBB4
:1004B000082301220221B34801F0F3FB01220221AB
:1004C000B04801F061FB03214FF0402001F06FFEC6
:1004D00040F2014001F0F8FE012001F0F5FEAC48C9
:1004E00003F06AFA0021AA4803F08FFB02F04EFFE6
:1004F00004466023A74A2146A54803F077FAA4489A
:1005000003F0B5FA20219F4801F051FEA24801F006
:10051000DBFEA24803F050FA0021A04803F075FB6F
:1005200002F034FF044668239A4A21469B4803F0B0
:100530005DFA9A4803F09BFA3021994801F037FEA2
:10054000984803F039FA0021964803F05EFB02F068
:100550001DFF044668238F4A2146924803F046FA5D
:10056000914801F0B1FE914801F0AEFE082301224E
:1005700040218B4801F095FB01224021884801F081
:1005800003FB0A2301228021854801F08AFB002217
:100590008021834801F0F8FA2121854803F076F89C
:1005A0000021834803F0FFF8824AFF21804803F0CE
:1005B0001FF92221804803F069F800217E4803F0EA
:1005C000F2F87C4AFF217C4803F012F921217B4894
:1005D00003F05CF80021794803F0E5F8754AFF2143
:1005E000764803F005F90521152001F0F9FE1021E8
:1005F0004A2001F0F5FE0020714908807149088009
:1006000071490860091D0860091D086010BD86B0A9
:100610006848009000206D49086010215C4803F094
:10062000D4FA10215F4803F0D0FA4FF400715D480E
:1006300003F0CBFA00F0EAFD01215D4803F04CF92C
:1006400001215D4803F048F901215C4803F044F9B9
:10065000152001F0E7FE162001F0E4FE232001F052
:10066000E1FE252001F0DEFE272001F0DBFE172051
:1006700003F015FB02214B4803F0B7FA01F066FEC8
:100680004FF6FF714A4802F0F3FF04A800F064FB44
:1006900000204F4908704748474988620846C068AB
:1006A00040F2011108434449C8600027012047492E
:1006B000086000204749086000F0E3FC0421464838
:1006C00003F0E3FC00204249087001203E49083154
:1006D000086008E03E480078012804DB00203C491F
:1006E0000870781CC7B2142FF4DB0020364908319B
:1006F00008603AA003F048FD01203349091D086055
:100700000020086000F048FB002000F05BFD37A0EF
:1007100003F03AFD00203749087000F039FD044627
:10072000254635490C803348007808B933A000E0ED
:1007300034A00246C4F3080134A003F025FD0420D0
:100740003649088001F0D8F90848006E40F4D0100E
:1007500006490866002606F20136324682213048F4
:1007600001F0C0FFDEE000004005DA0100E00F40CC
:10077000000800F0001800F0000C00F0014000F04C
:10078000000400F0004002400070004000500240B1
:1007900000C0004090D0030001140400001001408C
:1007A0000060004000D0004002140200021002006D
:1007B00000000340D012130000100340002003404B
:1007C000080000200A000020847F4A42847F4842BB
:1007D00000000020987F0C4200B000400D0A4865E0
:1007E0006C6C6F20576F726C640D0A005265616407
:1007F000790D0A00200000201A0000204D6173745A
:1008000065720000536C617665000000496E203D02
:1008100020253032582025730D0A000040000020AA
:100820000090024044F21210ADF804000020ADF830
:1008300006000023022201A901A800F0FBFB00F042
:10084000A7FC0446A54219D03748007810B9AFF28A
:10085000540001E0AFF254000246C4F30801AFF2C5
:10086000540003F091FC314802F0EEF88046414616
:100870002FA003F089FC3048048025462F480078DB
:10088000012808DB2E48006880F001002C49086030
:1008900000202A4908702B4800F0005040F00070FA
:1008A0002849C1F3130140EA411040F00C000068F0
:1008B00058B3254883784278017824A003F064FC7B
:1008C0002149497801F07F0000F07CFC1E488078C7
:1008D000812190FBF1F201FB120000EB400080004F
:1008E00000F5C37632468221104801F0FBFE00215C
:1008F000144800F0005040F00070124AC2F3130296
:1009000040EA421040F00C00016004A800F00EFA2A
:100910000590BDF91400401C20B1BDF81410C8B2F8
:1009200001F044F87EE70000200000200090024023
:100930002564200D0A0000001A000020000000209D
:10094000887F4A4210000020140000204461746136
:10095000202D3E2025303258202530325820253099
:1009600032580D0A000000003F4880473F480047CA
:10097000FEE7FEE7FEE7FEE7FEE7FEE7FEE7FEE74F
:10098000FEE7FEE7FEE7FEE7FEE7FEE7FEE7FEE73F
:10099000FEE7FEE7FEE7FEE7FEE7FEE7FEE7FEE72F
:1009A000FEE7FEE7FEE7FEE7FEE7FEE7FEE7FEE71F
:1009B000FEE7FEE7FEE7FEE7FEE7FEE7FEE7FEE70F
:1009C000FEE7FEE7FEE7FEE7FEE7FEE7FEE7FEE7FF
:1009D000FEE7FEE7FEE7FEE7FEE7FEE7FEE7FEE7EF
:1009E000FEE7FEE7FEE7FEE7FEE7FEE7FEE7FEE7DF
:1009F000FEE7FEE7FEE7FEE7FEE7FEE7FEE7FEE7CF
:100A0000FEE7FEE7FEE7FEE7FEE7FEE7FEE7FEE7BE
:100A1000FEE7FEE7FEE7FEE7FEE7FEE7FEE7FEE7AE
:100A2000FEE7FEE7FEE7FEE7FEE7FEE7FEE7FEE79E
:100A3000FEE7FEE7FEE7FEE7FEE7FEE7FEE7FEE78E
:100A4000FEE7FEE7FEE7FEE7FEE7FEE7FEE7FEE77E
:100A5000FEE7FEE7FEE7FEE7FEE700000448054983
:100A6000054A064B70470000790300000F0600009E
:100A7000B82E0020B8560020B8360020B836002026
:100A8000704708B5CF48C06B00F0200080B320212C
:100A9000CC4803F09EF82021CA4803F0A4F80120B6
:100AA000C94901F0005141F00071C74AC2F3130275
:100AB00041EA421141F01C0108600020C24901F0E6
:100AC000005141F00071C04AC2F3130241EA4211E1
:100AD00041F018010860BD49086041F27C50BC49F2
:100AE00088620846C06840F201110843B849C860EE
:100AF000B448C06B00F0100000287CD01021B14831
:100B000003F071F84FF40071AE4803F06CF8AD4893
:100B10000068C0B20090AB48C06B00F400700028C1
:100B200069D1AC48008820BB9DF80000AA49087034
:100B300008460078F0280ED10120A34901F00051A9
:100B400041F00071A04AC2F3130241EA421141F0A0
:100B5000100108600DE000219B4800F0005040F0BB
:100B60000070994AC2F3130240EA421040F01000AC
:100B700001609848018899480088401C814203D14F
:100B80009DF8000094494870924801889348008875
:100B9000801C814215D19DF800008F49887040F279
:100BA00002208C4908800120874901F0005141F062
:100BB0000071854AC2F3130241EA421141F00C016F
:100BC000086084480088401C824908807E4800F004
:100BD000005040F000707C49C1F3130140EA41101D
:100BE00040F010000068C0B17A48008840F201214E
:100BF000884212D100E019E041F25630744988620F
:100C00000846C06840F2011108437149C8600120DC
:100C10006E4908600020724908606E480088B0F58F
:100C2000007F03DD40F202206A4908806548C06BFE
:100C300000F40070D8B14FF40071624802F0D3FFA5
:100C400000206449088001215F4800F0005040F016
:100C500000705D4AC2F3130240EA421040F01400F3
:100C600001606048006880F001005E49086008BDCE
:100C700001465D485D4A128881545C4A1288501CC6
:100C8000C21700EB92529212A0EB8222574B1A80AD
:100C900018460088564A128890420AD1544A12884F
:100CA000501CC21700EB92529212A0EB8222504BC2
:100CB0001A80704710B54F48C06B00F0100040B16B
:100CC00010214C4802F08FFF4A490968C8B2FFF76B
:100CD000CFFF082002F0F1FF38B1092002F0EDFF4C
:100CE00018B90221434802F084FF0121414802F073
:100CF00074FF044621463F4802F075FF10BD00BF57
:100D00003C4A926902F02002002AF9D1394A106067
:100D1000704700BF3849896901F020010029F9D1E5
:100D200035490860704701460020704701464FF082
:100D3000FF3208882D4B1B8898420BD008882A4B1D
:100D40001A5C0B88581CC31700EB93539B12A0EB43
:100D500083230B801046704724490988018070471F
:100D600001460020214B1A880B88934202DD02F5D0
:100D700080639AB20B88D31A98B2704730B5044694
:100D80000D46002305E0E05C1C49FFF7B8FF581C46
:100D900083B2AB42F7DB30BD10B502F071FF1848EB
:100DA00002F098FF0F21172002F0C3FF154917200A
:100DB00003F003F8172002F072FF0221014802F04D
:100DC00014FF10BD00D0004010000020987F0C429E
:100DD000000003401E000020140000201A00002024
:100DE000987F0E42847F4A420024002008000020A1
:100DF0000A00002000C00040001001400400002054
:100E000000200020080000C008B501217B4802F046
:100E100071FD7B4800F0005040F000707849C1F34C
:100E2000130140EA411040F01C00006870B100203E
:100E3000734901F0005141F00071714AC2F313028D
:100E400041EA421141F01C01086008BD6C4800F005
:100E5000005040F000706A49C1F3130140EA4110AC
:100E600040F010000068A0B10020654901F0005179
:100E700041F00071624AC2F3130241EA421141F0AB
:100E8000100108605F4908605F49086002205F49FF
:100E900008705E480078A8B94FF4E170574988623D
:100EA0000846C06840F2011108435449C860012057
:100EB0005649087056480088002865D001205249DC
:100EC000086061E05148007801285AD100204F495C
:100ED00008704F480088002856D0494800F000505C
:100EE00040F000704649C1F3130140EA4110006828
:100EF00050B947480088801C464B474A0121009062
:100F0000172002F069FF09E041480088801C414B2E
:100F1000424A01210090172002F05EFF384800F09D
:100F2000005040F000703649C1F3130140EA41100F
:100F30000168334800F0005040F00070304AC2F3BE
:100F4000130240EA42104160172002F0A8FE02217D
:100F5000304802F04AFE172002F0C5FE284800F093
:100F6000005040F000702649C1F3130140EA4110DF
:100F700040F01800006818B12021264802F025FE34
:100F800002E000202149087000BF5EE710B5012192
:100F9000234802F0AFFC23480078401C2149087028
:100FA0002148007868B1164800F0005040F0007009
:100FB0001349C1F3130140EA411040F018000068E2
:100FC00088B141F256300D4988620846C06840F247
:100FD000011108430949C86000200B49086001203D
:100FE0000849086002E000200649086010BD10B5FD
:100FF00001210E4802F07EFC10BD000000000340FD
:1010000010000020987F0C42987F0E420D000020B7
:101010004000002000D0004000280020012A0020CD
:1010200000100340000000202000002000200340AA
:10103000704770472DE9F84305460E461746984617
:10104000002400206949086000BF35F81410684882
:1010500003F02BF800BF664803F055F80028FAD1DA
:101060006946634803F033F8009826F814002046D8
:10107000611C8CB2B842E8DB01205C490860BDE825
:10108000F8831FB55B4801F02FFE5B4801F02CFE92
:10109000082366220121594800F003FE02220121A3
:1010A000564800F071FD082366220421534800F0E1
:1010B000F8FD02220421514800F066FD0823662253
:1010C00019464E4800F0EDFD022208214B4800F081
:1010D0005BFD4B4801F0F8F84A4801F0F5F84A4842
:1010E00001F0F2F80D21454801F043F80021404895
:1010F00003F00EF802F04AF90446102042F2107193
:1011000000231A46CDE900102146394802F06CFF51
:101110004FF4E071364803F002F8354802F08FFFD3
:1011200044F20A00ADF8080040F20440ADF80A00AD
:101130000023022202A902A8FFF77CFF44F20C0060
:10114000ADF808004FF68070ADF80A0000230222C7
:1011500002A902A8FFF76EFF4FF48040ADF8080027
:101160004FF68070ADF80A000023022202A902A8FF
:10117000FFF760FF44F21400ADF808007F20ADF8DF
:101180000A000023022202A902A8FFF753FF1FBD95
:101190001CB5002444F21210ADF800000020ADF898
:1011A00002000023022269466846FFF743FFBDF8AC
:1011B0000200000ABDF8021001F0800140EA41047B
:1011C00020461CBD1CB5044644F21400ADF80000D6
:1011D0007F20A0434FF680710844ADF80200002341
:1011E000022269466846FFF725FF1CBD847F0E4238
:1011F00000B00040031C00F0030800F00070004045
:101200000100030001080300010C030000212F4A24
:1012100011802F4A02F0005242F000722C4BC3F3AF
:10122000130342EA431242F01002116000222849DF
:1012300001F0005141F00071254BC3F3130341EA63
:10124000431141F014010A603021224A1170224AF0
:10125000117000221E4901F0005141F000711C4B39
:10126000C3F3130341EA43110A6000211B4A1170C2
:1012700001200AE04121174A11544221164A115413
:101280000021164A1154411C88B2B0F5FF7FF1DDF0
:101290000D21104A82F8FF110F4A82F8FF11002138
:1012A0000E4A82F8FF110A210A4A82F800120A4AFD
:1012B00082F800120021094A82F80012084A1180BF
:1012C000084A1170084A1170704700001E00002083
:1012D0001000002000280020012A0020022C0020FD
:1012E000400000201C00002020000020F0B5034634
:1012F0000C46154600210022002600BF002701E011
:10130000481C81B2585C2028FAD0585C0928F7D0D4
:10131000585C50B3585C2C2827D0585C302824DB0C
:10132000585C392821DC0AB9501CC2B2022E01DDFA
:101330000020F0BD501E34F8100000EB80004FF686
:10134000FF7C0CEA400C501E24F810C034F810C08A
:10135000585C303860441FFA80FC501E24F810C0DE
:10136000481C81B2701CC6B20127585C2C2808D1D9
:10137000481C81B20127501CC2B20026002024F86C
:101380001200012F01D1AA42B8DD1046D1E72DE9A4
:10139000FC4707468A464FF0000800BF08EB88006C
:1013A000F94A02EB8001384603F04CF88146B9F166
:1013B000000F05D14046411C01F0FF080A28EDDB73
:1013C000B9F1000F7DD0B8F10A0F7BD2DFE808F049
:1013D0000545F0EEEDECEBEAE9E8ECA002F0D4FE16
:1013E000002404E00020EB490855601C84B240F260
:1013F00002208442F6DBE84800F0005040F0007024
:10140000E549C1F3130140EA4110406830B140F2B0
:101410000122E049E14803F027F805E040F201220B
:10142000DC49DF4803F020F8DB4800F0005040F0D2
:101430000070D949C1F3130140EA4110406880F0BF
:101440000100D54901F0005141F00071D24AC2F3C8
:10145000130241EA421148609BE20020ADF800000F
:10146000ADF8020002226946F81CFFF73FFF06466E
:10147000012E7DDDCBA002F087FEBDF80000B0F5A7
:10148000007F03DD4FF40070ADF80000BDF80200EE
:10149000B0F5007F03DD4FF40070ADF80200BDF839
:1014A0000200C2B2BDF80010BFA002F06DFEBDF890
:1014B0000200C1B2BDF80000401CB64A1154B64843
:1014C00001E06BE261E200F0005040F00070B249D0
:1014D000C1F3130140EA4110006808B340F2012251
:1014E000AC49AF4802F0C0FFAC480178B4A002F0AC
:1014F0004BFE012410E0AA48015DB6A002F044FEB4
:10150000E11704EB11710911A4EB011111B9A5A0A8
:1015100002F03AFE601C84B2B4F5007FEBDD20E0FF
:1015200040F201229B499D4802F09EFF9B480178B2
:10153000A3A002F029FE002410E09848015DA5A0B8
:1015400002F022FEE11704EB11710911A4EB011165
:1015500011B994A002F018FE601C84B2B4F5007FAB
:10156000EBDD8D4800F0005040F000708A4900E04B
:1015700012E0C1F3130140EA4110006880F001015C
:10158000854800F0005040F00070834AC2F3130217
:1015900040EA4210016002E090A002F0F5FDF8E19F
:1015A000DEE1C8E16FE164E03FE035E027E0FFE71E
:1015B0000020ADF80000ADF8020001226946F81CD9
:1015C000FFF794FE0646B6B1BDF80000B0F5007F07
:1015D00003DB40F2FF10ADF8000072A002F0D4FD72
:1015E000BDF80000401C6B4B1A5CBDF800107FA0DA
:1015F00002F0CAFD02E082A002F0C6FDC9E1844803
:101600000088844908800120834908808148018836
:1016100082A002F0B9FDBCE100207E4908807E492D
:10162000088084A002F0B0FDB3E10020ADF8000016
:10163000ADF8020001226946F81CFFF757FEBDF81D
:101640000000B0F5007F03DD4FF40070ADF800003E
:10165000BDF8001079A002F097FDBDF800006C49BC
:1016600008806D48008818B10846008869490880DC
:101670008FE168480088664908800020464901F0EB
:10168000005141F00071444AC2F3130241EA421191
:1016900041F02001086001206E49087040F2FF10FF
:1016A0005C49088000213C4800F0005040F0007088
:1016B000394AC2F3130240EA421040F010000160C0
:1016C000F020344908700020334901F0005141F006
:1016D0000071314AC2F3130241EA421141F0140190
:1016E00008600124C2E001250AE0A54203D10120DF
:1016F0002849485502E0002026494855681C85B213
:10170000B5F5007FF1DD0021234800F0005040F0E6
:101710000070214AC2F3130240EA4210016040F215
:1017200001221C491E4802F09FFE01211A4800F0C8
:10173000005040F00070184AC2F3130240EA421011
:1017400040F01800016000BF134800F0005040F066
:1017500000701149C1F3130140EA411040F01C0030
:1017600000680028F0D10C4800F0005040F00070F4
:101770000949C1F3130140EA411040F01400006828
:1017800008B1214668E06BE016470000436C6561D4
:10179000720D0A00022C002010000020012A0020F7
:1017A000002800200D0A00004164647265737320F4
:1017B0002564203D3D20446174612025640D0A00AC
:1017C0000D0A2020202020202020202025303258E3
:1017D0000D0A000025336420000000000D0A547932
:1017E0007065204552524F520D0A000041646472E8
:1017F000657373202564203D3D2025640D0A00009B
:1018000054797065204552524F520D0A0000000075
:101810004200002040000020440000204F4E207372
:10182000656E64696E672025642061646472657307
:10183000730D0A004F66660D0A0000004D617820A6
:10184000416464726573732053656E742025640D62
:101850000A0000002000002078A002F095FC03E0C0
:1018600021467BA002F090FC601C84B240F2012073
:1018700084427FF738AF01207949087079480088A1
:101880007949088085E0012411E07848015DAFF2D4
:10189000BC0002F079FCE11704EB11710911A4EB13
:1018A000011111B96DA002F06FFC601C84B2B4F597
:1018B000007FEADD6E4800F0005040F000706C4997
:1018C000C1F3130140EA4110006818B969A002F0A1
:1018D0005BFC02E06CA002F057FC012424E06448A9
:1018E00000F0005040F000706149C1F3130140EA7C
:1018F0004110006830B96948015DAFF2281002F06C
:1019000043FC05E06648015DAFF2381002F03CFC94
:10191000E11704EB11710911A4EB011111B94FA0EA
:1019200002F032FC601C84B2B4F5007FD7DD4BA01E
:1019300002F02AFC2DE000214D4800F0005040F05C
:1019400000704B4AC2F3130240EA421040F010000C
:10195000016000204249087052A002F015FC18E016
:101960000021434800F0005040F00070404AC2F3AC
:10197000130240EA421040F0100001600120384993
:1019800008704BA002F000FC03E04BA002F0FCFB4F
:1019900000BF00BF4EA002F0F7FB02E04EA002F035
:1019A000F3FB00208AF80000BDE8FC8710B5044670
:1019B000082C04D00A2C18D00D2C1FD116E0484852
:1019C000007848B1002146480078401EC0B2444A21
:1019D0001070444A115407E000204249404A1278EE
:1019E000885441A002F0D0FB1BE000BF3C493D48B9
:1019F000FFF7CDFC19A002F0C7FB12E038480078D1
:101A00004F280DDA3748364909784454344800786D
:101A1000401C3349087000213248314A1278815401
:101A200000BF00BF1B2131A002F0AEFB2C480078A4
:101A300018B12C492FA002F0A7FB10BD41646472BD
:101A40006573732025303364203C3E0D0A0000008E
:101A50004164647265737320253033640D0A00009D
:101A6000200000204200002040000020022C002026
:101A70001000002043757272656E742042756666B0
:101A8000657220410D0A000043757272656E742004
:101A900042756666657220420D0A0000002800202B
:101AA000012A00204D41535445520D0A0000000008
:101AB000534C4156450D0A0048616C7420616E64B8
:101AC00020436174636820466972650D0A00000056
:101AD00052656164790000004552524F520D0A0070
:101AE0001C000020032E00200D200D0025635B321A
:101AF0004B00000025730D0010B540F2051001F0F9
:101B000023FD00228021114800F0B6FD43F6095262
:101B100080210E4800F0C5FD002282210B4800F014
:101B2000E1FD00228321094800F0DCFD40F20511AF
:101B3000064800F080FF8021044800F0C9FD012222
:101B40000421024800F009FE10BD00000090024090
:101B500030B50246F84B1824F8480068F84D284084
:101B6000F84DA84201D1F84B00BF002108E053F81E
:101B70003100904203D103EBC100406830BD491CE5
:101B8000A142F4D30020F9E702F001031BB1D0F821
:101B900000340B4302E0D0F800348B43C0F800342B
:101BA00002F002031BB1D0F820340B4302E0D0F85E
:101BB00020348B43C0F82034704730B502460120F2
:101BC0008840C1B2D2F80034D2F8204403EA0100C0
:101BD00008B1012000E0002004EA01050DB1022552
:101BE00000E00025284330BD02F001031BB1D0F80E
:101BF00008340B4302E0D0F808348B43C0F80834B3
:101C000002F002031BB1D0F804340B4302E0D0F819
:101C100004348B43C0F8043402F004031BB1D0F841
:101C20000C340B4302E0D0F80C348B43C0F80C3476
:101C300002F4803323B1D0F8383543F0010303E0D8
:101C4000D0F8383523F00103C0F838357047F0B5C7
:101C5000024601208840C1B2D2F80834D2F80444C8
:101C6000D2F80C64D2F8385503EA010008B101201B
:101C700000E0002004EA01070FB1022700E000277E
:101C8000384306EA01070FB1042700E00027384374
:101C900005F00107384310B14FF48030F0BD00204B
:101CA000FCE7F0B5002416E00125A5400D4085B104
:101CB000D0F8C45F67000326BE40B543C0F8C45FD8
:101CC000D0F8C45F6700C2F34116BE403543C0F888
:101CD000C45F651CECB2082CE6DB02F001051DB107
:101CE000D0F800550D4302E0D0F800558D43C0F800
:101CF000005502F002051DB1D0F804550D4302E075
:101D0000D0F804558D43C0F8045502F004051DB108
:101D1000D0F808550D4302E0D0F808558D43C0F8BF
:101D2000085502F008051DB1D0F818550D4302E022
:101D3000D0F818558D43C0F8185502F010051DB1A4
:101D4000D0F83C550D4302E0D0F83C558D43C0F827
:101D50003C5503F001051DB1D0F80C550D4302E0D0
:101D6000D0F80C558D43C0F80C5503F002051DB199
:101D7000D0F810550D4302E0D0F810558D43C0F84F
:101D8000105503F004051DB1D0F814550D4302E0C1
:101D9000D0F814558D43C0F8145503F008051DB153
:101DA000D0F81C550D4302E0D0F81C558D43C0F807
:101DB0001C5503F400751DB1D0F844550D4302E0E5
:101DC000D0F844558D43C0F8445503F440751DB117
:101DD000D0F840550D4302E0D0F840558D43C0F88F
:101DE00040551BB9D0F828550D4302E0D0F82855CE
:101DF0008D43C0F82855F0BDF0B514461D460126A8
:101E00008E40F1B2D0F800650E400EB1012600E020
:101E100000263246D0F804650E400EB1022600E0DE
:101E200000263243D0F808650E400EB1042600E0CB
:101E300000263243D0F818650E400EB1082600E0A7
:101E400000263243D0F83C650E400EB1102600E06B
:101E500000263243D0F8C46F4F00FE4006F0030660
:101E600042EA46122260D0F80C650E400EB10126FF
:101E700000E000263346D0F810650E400EB1022671
:101E800000E000263343D0F814650E400EB104265E
:101E900000E000263343D0F81C650E400EB1082642
:101EA00000E000263343D0F840650E404EB1D0F834
:101EB00044650E4016B14FF4007601E04FF4807691
:101EC00033432B60F0BDD0F810240A43C0F810242F
:101ED0007047D0F810248A43C0F810247047024697
:101EE00011B1D2F818047047D2F81404FBE7C0F817
:101EF0001C14704770B504460D462046FFF728FEB7
:101F000006462946304600F031FA304600F08AFA9B
:101F100070BD70B504462046FFF71AFE05462846F8
:101F200000F0BCFA284600F03BFA70BD02460020E3
:101F300000EB810010587047E047000000E00F40C0
:101F40000000FF7000000A10A0480000002303EB0F
:101F50008103C250704730B504460D460022294621
:101F60002046FFF711FE0023012229462046FFF7F5
:101F700098FE30BD30B504460D4602222946204663
:101F8000FFF702FE0823662229462046FFF789FE56
:101F900030BD30B504460D46002229462046FFF7E5
:101FA000F3FD0023012229462046FFF77AFE30BDCB
:101FB00030B504460D46022229462046FFF7E4FDCF
:101FC0000823012229462046FFF76BFE30BD30B5BD
:101FD00004460D46022229462046FFF7D5FD082378
:101FE000662229462046FFF75CFE30BD30B5044628
:101FF0000D46022229462046FFF7C6FD0823662229
:1020000029462046FFF74DFE30BD30B504460D464B
:10201000022229462046FFF7B7FD082366222946FB
:102020002046FFF73EFE30BD30B504460D46002287
:1020300029462046FFF7A8FD08230122294620460D
:10204000FFF72FFE30BD30B504460D4608230122B0
:1020500029462046FFF725FE012229462046FFF7A4
:1020600093FD30BD30B504460D46092301222946B3
:102070002046FFF716FE012229462046FFF784FD81
:1020800030BD30B504460D46022229462046FFF7F2
:102090007BFD0923012229462046FFF702FE30BDC1
:1020A00030B504460D46022229462046FFF76CFD56
:1020B0000823012229462046FFF7F3FD30BD30B545
:1020C00004460D46022229462046FFF75DFD0823FF
:1020D000662229462046FFF7E4FD30BD30B50446B0
:1020E0000D46022229462046FFF74EFD08236622B0
:1020F00029462046FFF7D5FD30BD30B504460D46D4
:10210000002229462046FFF73FFD002301222946F1
:102110002046FFF7C6FD30BD30B504460D4602220D
:1021200029462046FFF730FD082301222946204694
:10213000FFF7B7FD30BD30B504460D4602222946F3
:102140002046FFF721FD0823012229462046FFF7FC
:10215000A8FD30BD30B504460D4602222946204672
:10216000FFF712FD0A23012229462046FFF799FDB9
:1021700030BD30B504460D46022229462046FFF701
:1021800003FD0823012229462046FFF78AFD30BDC2
:1021900030B504460D46022229462046FFF7F4FCDE
:1021A0000823012229462046FFF77BFD30BD30B5CC
:1021B00004460D46022229462046FFF7E5FC082387
:1021C000012229462046FFF76CFD30BD30B504469C
:1021D0000D46002229462046FFF7D6FC00230122A7
:1021E00029462046FFF75DFD30BD30B504460D465B
:1021F000022229462046FFF7C7FC08230122294670
:102200002046FFF74EFD30BD30B504460D46002296
:1022100029462046FFF7B8FC4FF4027301222946F5
:102220002046FFF73EFD30BD30B504460D46002286
:1022300029462046FFF7A8FC4FF484730122294663
:102240002046FFF72EFD30BD30B504460D46022274
:1022500029462046FFF798FC0823012229462046FC
:10226000FFF71FFD30BD30B504460D46022229465A
:102270002046FFF789FC0A23012229462046FFF762
:1022800010FD30BD30B504460D46022229462046D9
:10229000FFF77AFC0823662229462046FFF701FD56
:1022A00030BD30B504460D46022229462046FFF7D0
:1022B0006BFC0823012229462046FFF7F2FC30BDC3
:1022C000014601F5A960704710B50146C1F307400A
:1022D0001B4BDB6E01248440234033B1012303EB0D
:1022E0004003184C54F8230003E04300154C54F805
:1022F0002300C1F30722D0F82C350F249440A343C8
:1023000001F00F0494402343C0F82C3510BDD0F8E1
:1023100034250A43C0F834257047D0F834258A4361
:10232000C0F834257047D0F830250A43C0F830256E
:102330007047D0F830258A43C0F830257047000038
:1023400000E00F406049000000BFFEE710B5FEF757
:1023500002F808B1012010BD0020FCE710B5FDF720
:10236000F3FF08B1012010BD0020FCE730B50246A4
:10237000B64C2468B64DAC420ED0B44C2368002055
:1023800005E053F82040B24D45F82040401C9B2802
:10239000F7D3AF4CAD4D2C60AD4C44F8221030BD9E
:1023A000AC49AB4A42F820107047AB4951F82010B5
:1023B000AA4A1143A54A121D11607047A34A121D73
:1023C000126802F4E061002006E0A34A52F82020DF
:1023D0008A4200D102E0401C0828F6D300BF7047B3
:1023E00010B50A4683089E4C54F8233019688307B9
:1023F000DC0EFF23A34099438307DB0E02FA03F3AD
:1024000019438308964C54F82330196010BD0146D7
:102410008808934A52F8200000688A07D20ED040FC
:10242000C0B27047042808D188491C31096841F4BA
:102430008031864A1C3211602FE0052808D183497B
:102440001C31096841F40031804A1C32116024E0DB
:10245000062808D17D491C31096841F480217B4A56
:102460001C32116019E00F2808D14FF0E0210969F2
:1024700041F002014FF0E02211610EE010280CD370
:10248000A0F1100101F01F0201219140A0F1100202
:102490005209744B53F8222011607047042808D168
:1024A0006A491C31096821F48031684A1C32116084
:1024B0002FE0052808D165491C31096821F4003155
:1024C000624A1C32116024E0062808D15F491C31A1
:1024D000096821F480215D4A1C32116019E00F283F
:1024E00008D14FF0E021096921F002014FF0E0220C
:1024F00011610EE010280CD3A0F1100101F01F02B1
:1025000001219140A0F110025209574B53F82220AB
:102510001160704710B501460020042905D14B4ACF
:102520001C32126802F4803028E0052905D1474AA0
:102530001C32126802F4003020E0062905D1434A1B
:102540001C32126802F4802018E00F2905D14FF0E8
:10255000E022126902F0020010E010290ED3A1F16E
:10256000100252093F4B53F822201268A1F11003C8
:1025700003F01F040123A34002EA030010BD022858
:1025800008D13249091F096841F000412F4A121F42
:10259000116024E00E2808D12C49091F096841F078
:1025A00080512A4A121F116019E00F2808D12749CB
:1025B000091F096841F08061244A121F11600EE072
:1025C00010280CD3A0F1100101F01F02012191404D
:1025D000A0F110025209254B53F8222011607047D8
:1025E0000E2808D11949091F096841F00061174AEE
:1025F000121F116019E00F2808D11449091F09683A
:1026000041F00071114A121F11600EE010280CD326
:10261000A0F1100101F01F0201219140A0F1100270
:102620005209134B53F822201160704710B504462D
:102630002046FDF796FE10BD10B5FDF795FE10BDC6
:10264000A0F110010B4A11607047000008ED00E096
:102650000004002049230000F04900000000FA05B2
:10266000104A0000AC4A0000C04A0000D44A0000F2
:10267000E84A000000EF00E010B501440B68F94C97
:10268000234013430B6002F0020323B1B0230B621B
:102690001B014B6204E08C230B6240F60C034B627F
:1026A00010BD01440B6803F0020313B153080B6122
:1026B00001E0531E0B61704702461144086800F0A8
:1026C000020010B10869400070470869401CFBE730
:1026D000425842F0010242507047425822F0010233
:1026E0004250704730B5044621F03F05281905686F
:1026F00005F0020505B1520803699B1A01F00105B6
:102700000DB1C36100E0836130BD30B503460A46B8
:1027100022F03F05E9180C6902F001050DB1C86906
:1027200000E08869201A0D6805F0020505B1400037
:1027300030BD10B50144CA620B638C6A44F00104D9
:102740008C6210BD4218926A22F0010243189A620C
:1027500070470160704741607047012A03D1836868
:102760000B43836002E083688B4383607047012AD8
:1027700003D1C3680B43C36002E0C3688B43C360EB
:102780007047012A03D1436A0B43436202E0436A64
:102790008B4343627047012A03D103690B430361F2
:1027A00002E003698B430361704710B5024650187D
:1027B000AD4C031BA04246D009DCAC4B184468B1B9
:1027C00040281FD0802828D0C02868D130E0402B76
:1027D00044D0802B4DD0C02B61D155E0A448006877
:1027E000A44B1840A44B984201D11A2010BDA04818
:1027F0000068A04B1840A14B984201D11A20F5E780
:102800000020F3E79A4800689A4B18409B4B984287
:1028100001D11B20EAE70020E8E795480068954BC6
:102820001840964B984201D11C20DFE70020DDE7DD
:102830008F4800688F4B1840904B984201D13B2045
:10284000D4E70020D2E78A4800688A4B18408A4BB8
:10285000984201D19620C9E70020C7E78448006864
:10286000844B1840844B984201D19720BEE700204A
:10287000BCE77F4800687F4B18407F4B984201D1EE
:102880009820B3E70020B1E779480068794B1840F9
:10289000794B984201D19920A8E70020A6E70020B3
:1028A000A4E72DE9F04105460E4614463146284678
:1028B000FFF77BFF074621463846FFF757FD3846AE
:1028C000FFF7B0FDBDE8F08170B504460D4629461E
:1028D0002046FFF76AFF06463046FFF7DFFD304629
:1028E000FFF75EFD70BD014661480068614A104017
:1028F000614A904206D16248814201D11920704755
:102900009A20FCE75A4800685A4A10405B4A9042B5
:1029100006D15B48814201D11920F0E70020EEE7A3
:102920000020ECE770B504460D462046FFF7DBFFBC
:10293000064629463046FFF719FD3046FFF772FD7F
:1029400070BD70B504462046FFF7CDFF054628460A
:10295000FFF7A4FD2846FFF723FD70BD10B543180F
:102960005B6813434418636010BD10B543185B687F
:1029700093434418636010BD03461944012A01D1F2
:10298000C86870478868FCE74318DA607047426996
:102990000A434261704742698A43426170474FF47B
:1029A0008031C16170470246012901D1D069704769
:1029B0009069FCE7C161704730B54418E263A1F14A
:1029C000400400F5006545F8143030BD10B512B96B
:1029D0004418636301E04418A36310BD034612B9B1
:1029E0005818406B70475818806BFBE710B50346CA
:1029F0003AB9A1F1400003F5006404EB40004068DF
:102A000010BDA1F1400003F5006404EB40008068B4
:102A1000F6E730B53AB9A1F1400400F5006505EBE1
:102A20004404636006E0A1F1400400F5006505EB95
:102A30004404A36030BDD0F8C82F40F207139A4376
:102A40000A43C0F8C82F70470146D1F8C80F00F4F8
:102A5000807008B900207047D1F8C80F40F2071203
:102A60001040F8E70100F8FF40900240C07FFDBF32
:102A700000E00F400000FF700000051000000A1089
:102A8000008002402DE9F041034600200124002689
:102A9000002514E004EA010CBCF1000F0DD04FEA50
:102AA000400C02FA0CFC4CEA06064FEA40084FF0D4
:102AB000030C0CFA08FC4CEA05056400401C0828CD
:102AC000E8D3D3F828C02CEA050747EA060CC3F878
:102AD00028C0BDE8F0810000024600210AE0F74866
:102AE00050F83100904204D3F44800EBC100406834
:102AF0007047491C0629F2D30020F9E7F0B50146DA
:102B0000DFF8BCC3DCF860C1CCF38923DFF8B0C3C5
:102B1000DCF860C1CCF30905DFF8A4C3DCF864C1BC
:102B2000CCF3042C0CF10106DFF894C3DCF864C18B
:102B30000CF01F0C0CF10107B1FBF7F15A09A3EBE4
:102B4000421401FB05F001FB02FC00EB5C1001FBF1
:102B500004FC00EB9C20B0FBF6F0F0BDD8483C38FC
:102B60000068401C00027047D5480068D5490840FD
:102B7000D549884206D1D24880680004400900F552
:102B800000607047CE484038006880B2401CC002E8
:102B9000F7E7CB480068CB490840CC49884209D1C7
:102BA000C74840380068C0F302400A30012101FAEA
:102BB00000F070474FF48060FBE70146C1F3072047
:102BC000C34A104400F0704040F00070C1F3072287
:102BD000BF4B1A44C2F3130240EA4210CAB240EAA1
:102BE0008200006808B1012070470020FCE7014620
:102BF000C1F30720B74A104400F0704040F0007065
:102C0000C1F30722B34B1A44C2F3130240EA421045
:102C1000CAB240EA8200006808B101207047002073
:102C2000FCE710B50121C0F30722AB4B1A4402F0B8
:102C3000704242F00072C0F30723A74C2344C3F351
:102C4000130342EA4312C3B242EA8302116010BD89
:102C500010B50021C0F307229F4B1A4402F07042C6
:102C600042F00072C0F307239B4C2344C3F31303C9
:102C700042EA4312C3B242EA8302116010BD18B5A2
:102C80000121C0F30722954B1A4402F0704242F032
:102C90000072C0F30723914C2344C3F3130342EAA9
:102CA0004312C3B242EA830211600021009102E0A4
:102CB0000099491C009100991029F9D30021C0F313
:102CC0000722864B1A4402F0704242F00072C0F3B1
:102CD0000723824C2344C3F3130342EA4312C3B2D3
:102CE00042EA8302116018BD10B50121C0F307222A
:102CF0007B4B1A4402F0704242F00072C0F307238B
:102D0000774C2344C3F3130342EA4312C3B242EAAB
:102D10008302116010BD10B50021C0F30722704B73
:102D20001A4402F0704242F00072C0F307236C4C68
:102D30002344C3F3130342EA4312C3B242EA8302B9
:102D4000116010BD10B50121C0F30722654B1A4474
:102D500002F0704242F00072C0F30723614C23443A
:102D6000C3F3130342EA4312C3B242EA830211607F
:102D700010BD10B50021C0F307225A4B1A4402F0CF
:102D8000704242F00072C0F30723564C2344C3F351
:102D9000130342EA4312C3B242EA8302116010BD38
:102DA00010B50121C0F307224F4B1A4402F07042C4
:102DB00042F00072C0F307234B4C2344C3F31303C8
:102DC00042EA4312C3B242EA8302116010BD10B559
:102DD0000021C0F30722444B1A4402F0704242F033
:102DE0000072C0F30723404C2344C3F3130342EAA9
:102DF0004312C3B242EA8302116010BD3049096830
:102E0000304A1140304A91420ED130B12C49096EFE
:102E100041F000612A4A116618E02949096E21F043
:102E20000061274A116611E040B12549B0310968B7
:102E300041F00051224AC2F8B01007E02049B031F9
:102E4000096821F000511E4AC2F8B010704710B551
:102E5000044621462C20FFF789FA2C20FFF7E2FADE
:102E600010BD10B52C20FFF719FB2C20FFF798FAA6
:102E700010BD1349496D0143114A5165704710490E
:102E8000496D81430E4A516570470D498865704709
:102E9000014611B10A48806D70470948006DFBE793
:102EA0001249086070471148006870470F4908319F
:102EB000086070470D48083000687047884C000073
:102EC00000E00F400000FF700000051000000A1035
:102ED00000E30F4000EA0F4000E90F4000E50F401B
:102EE00000E60F4000E70F4000E80F40B4E10F405C
:102EF000FB4908607047FA49091D08607047F948A6
:102F0000F949086000BFFEE710B5FDF728FA10BDCB
:102F100010B5F548001D006840F00400F249091D95
:102F20000860FDF71CFAF048001D006820F004005E
:102F3000ED49091D086010BDEC48C06D7047EB49B4
:102F4000C96D8143E94AD1657047E849C867704750
:102F50000146E748084050B101F00040E04A383AE5
:102F60001060E34881380840E04AC2F85001DC486C
:102F70003838016001F4007088B100BFD848343897
:102F8000006800F440700028F8D0D5483438006854
:102F900000F44070B0F5807F01D000207047012020
:102FA000FCE7CF49503108607047CD485030006889
:102FB00070472DE9FE4F05468A46CC480068CD494A
:102FC0000840CD49884202D10020BDE8FE8FC5F3FC
:102FD000841605F03800102805D1DFF8209300276B
:102FE00000BF152633E005F03800302804D147F241
:102FF00030594FF400172AE005F03800382804D182
:103000004FF400494FF4800721E005F03800D8B9AB
:103010001A2E01DC092E01DA0020D6E7B84850F854
:1030200026904FF4401747F04077B048C06F20F02B
:103030001C000190072E03DB019840F01000019066
:10304000AA490198C86702E04FF00009002705F47B
:10305000605000287ED105F0380028B105F0380016
:10306000102801D00020B0E7C5F3026BA548FFF798
:1030700033FD9E49C03108609C48D0F8B000A24999
:1030800000EA010444F000449848B0300460093E6E
:103090000BEBCB009D4901EB001000EBC600406834
:1030A0009249D1F8641188420DD10BEBCB009749BE
:1030B00001EB001050F8360040F400008849283930
:1030C0000968884202D00120009001E000200090B1
:1030D000009808B38548B030006838438349C1F888
:1030E000B0000BEBCB00894901EB001000EBC600F0
:1030F00040687B49243908600BEBCB00834901EB26
:10310000001050F8360076492839096801F40001AA
:1031100008437349283908607D4850F82B00504413
:10312000401EB0FBFAF84846FFF7E8FCB0FBF8FA9F
:103130005046FFF7D1FC6D49C03108606B48D0F8AC
:10314000600100F4000068B10098012812D16748BE
:10315000B03000E034E0006840F080406349C1F8DE
:10316000B00007E05E482838006840F400005F497E
:10317000C1F860014FF40040029009E0584820383F
:10318000006800F0010000B105E00298401E0290C6
:1031900002980028F2DC00BF029870B15348B030AA
:1031A0000468A8F10100384340F08050044344F023
:1031B00000444E48C0F8B0403CE04FF0000A39E00F
:1031C0004E48FFF789FC4949C03108604748D0F8AC
:1031D000600120F400004549C1F860010846D0F8BC
:1031E000B0404C48044044F000444048B0300460D3
:1031F000BAF1000F02D14FF000080AE0B9FBFAF86B
:10320000B8F1000F01D0A8F1010808F10100B9FBE5
:10321000F0FA5046FFF760FC3449C031086033488B
:10322000D0F8B04047EA8820044344F000442F48D7
:10323000B03004605046C8E62DE9F04106462B4800
:10324000046E056F44F4006424F4800445F40065C2
:103250000466056704F00100D8B106F00100C0B9AA
:1032600066F0010004404FF48070204988650846EC
:1032700004664FF4002702E07F1E07B905E01B48F3
:10328000006D00F480700028F6D000BF0FB9BDE8D3
:10329000F08124F4FE6406F4FE6004431E480540F9
:1032A0001D49A13106EA0100054306F0080045EA80
:1032B000C0050E480466056724F4005406F4005067
:1032C000044325F4005506F4005005434020074907
:1032D000886505F0004008B308460567046620E0ED
:1032E00088E10F400400FA050CED00E000E00F401B
:1032F000000100800000FF70000005100024F400B1
:10330000FC4A000040787D0100FC0FE0684B0000A3
:10331000B84C0000FF0300EF8FFFFF7FB548046645
:103320000567B5480440C14306EA0100044325F09F
:10333000FC5506F0FC50054306F0804040B144F4D3
:10334000800425F48005AD4906EA0100054301E04B
:1033500025F0804506F4006080B94FF4004706E090
:10336000A748006800F0010000B102E07F1E002FB6
:10337000F6D100BF24F4006425F400659D4804667E
:1033800005671020FCF7F4FF00BF80E7F0B599480F
:10339000036E026F02F0004010B102F0700001E015
:1033A00003F03000202811D003DC38B1102815D1EB
:1033B0000AE030280CD0702810D10CE09148C3F3FB
:1033C000841750F827100BE08F4909E08F4907E078
:1033D00047F2305104E04FF4004101E00020F0BD1D
:1033E00000BF4FF0FF3402F0004010B102F4006063
:1033F00028B102F0004098BB03F4006080BB804815
:10340000083805687B48D0F8646106F01F00401C4E
:10341000C6F304277F1C10FB07F04000B1FBF0F15E
:10342000C5F309004843C5F389274F4300EB9721B3
:1034300043F480036F48006900F47040B0F5804F9A
:1034400013D006DCB0F5005F0BD0B0F5405F12D1B1
:1034500009E0B0F5E04F0AD0B0F5104F0BD108E00D
:103460000BE06B4C08E06B4C06E06B4C04E06B4CE3
:1034700002E06B4C00E000BF00BF03F4800018B313
:1034800002F00040D8B102F0804090B102F000405C
:1034900010B102F4006028B102F0004048B903F412
:1034A000006030B94F00C2F38650401CB7FBF0F10A
:1034B0000AE0C2F3C550401CB1FBF0F104E0C3F3D5
:1034C000C350401CB1FBF0F18C4200D221460846AB
:1034D00085E74B4924390860704710B50246454BD3
:1034E0001B68504C2340504CA34208D121F0FC549F
:1034F000531E44EAC353424C243C236023E0501E35
:1035000001F0700333B1102B0ED0302B05D0702B8F
:1035100009D105E040F4401007E040F4001004E059
:1035200040F4800001E000BF00BF00BF01F00203D3
:103530000BB140F0004001F080430BB140F08040FF
:103540002F4B243B186010BD2A49096E21F4F0115D
:103550000143284A116670472648006E00F4801027
:1035600008B9002070472348006E00F4F010F9E716
:103570002049C96E00F00F0301229A4011431D4AF1
:10358000D16670471B49C96E00F00F0301229A40B3
:103590009143184AD16670471648006F20F4804066
:1035A0001449086770471348006F40F48040114980
:1035B000086770470F49886370470E48006E704770
:1035C0000C49096E01430B4A116670470948406E69
:1035D00070470849496E8143064A516670474A1E42
:1035E000D2B20243064B203B1A607047044930397F
:1035F0000860704700E00F40FEFF3FF800004040C9
:1036000068E10F40FC4A00000024F40000093D007E
:1036100000B4C40480F0FA02005A620240787D01CE
:10362000002D31010000FF7000000510F0B50346C9
:103630000C46C24D0C26C2480068C24F3840C24FEB
:10364000B84201D1C14D082600210DE055F83100E6
:10365000984208D105EBC1004268B4F57F4F00D114
:10366000521C1046F0BD491CB142EFD30020F9E7CF
:10367000C26840F201130B401A43C2607047C2682F
:1036800040F201130B409A43C2607047C26840F297
:1036900001139A43C2600A0E0260A94A1268A94B3C
:1036A0001A40A94B9A4211D1CAB201F4702342EADE
:1036B000131242F40072426001F47002C1F3072356
:1036C00043EA122242F40072826008E0CAB242F475
:1036D00000724260C1F3072242F4007282607047B8
:1036E00044F24003194012B1C3680B4301E0C368C0
:1036F0008B43C360704710B5914B1B68914C2340BE
:10370000914CA3420AD140F201130B4012B1046F55
:103710001C4301E0046F9C43046700BF42F2200396
:10372000194012B1C3680B4301E0C3688B43C36007
:1037300010BD10B540F60C431940C3688B4302EA34
:1037400001042343C36010BD40F20223194012B1AB
:10375000C3680B4301E0C3688B43C3607047CBB2BF
:103760004BB122B1436843F04003436003E0436838
:1037700023F04003436001F47F434BB122B18368DF
:1037800043F04003836003E0836823F040038360D9
:103790007047C16841F01001C1607047C16821F0F5
:1037A0001001C1607047C0F8C81F70470146D1F8CA
:1037B000C80F7047CBB203B1826301F47F4303B1FA
:1037C000C26370470246FF2901D1906B7047D06BEE
:1037D000FCE7CBB203B1026401F47F4303B142645E
:1037E00070470246FF2901D1106C7047506CFCE70E
:1037F000CBB203B1826201F47F4303B1C26270476E
:103800000246FF2901D1906A7047D06AFCE7C36283
:103810008262704730B5034600BFDA6A9C6ADD6A8F
:10382000AA42FAD1002001462043114330BD02468E
:10383000FF2901D1906C7047D06CFCE730B503468E
:1038400000BFDA6C9C6CDD6CAA42FAD10020014604
:103850002043114330BDCBB203B1026301F47F4377
:1038600003B1426370470246FF2901D1106B7047D4
:10387000506BFCE743630263704730B5034600BFFB
:103880005A6B1C6B5D6BAA42FAD1002001462043A3
:10389000114330BD2DE9F04105460E461446314630
:1038A0002846FFF7C3FE074621463846FEF75EFD71
:1038B0003846FEF7B7FDBDE8F08170B504460D4609
:1038C00029462046FFF7B2FE06463046FEF7E6FDE3
:1038D0003046FEF765FD70BD82690A43826170471C
:1038E00082698A4382617047024609B1106A704753
:1038F000D069FCE74162704701617047016770471A
:103900000146086F7047C16670470146C86E704730
:1039100010B50B46DCB2FF2C04D1446824F4A0613E
:103920001143416003F47F44B4F57F4F04D18468B0
:1039300024F4A0611143816010BD0000C04C000060
:1039400000E00F400000FF7000000A10204D000052
:1039500030B50246C54B0824C5480068C54D28400F
:10396000C54DA84201D1C54B00BF002108E053F866
:103970003100904203D103EBC100406830BD491CC7
:10398000A142F4D30020F9E7C26A22F086020A437A
:10399000C26270470146C86A00F08600704741EA7B
:1039A00002034363704710B5436B03F007040C60D8
:1039B00003F03804146010BDC16A41F01001C16207
:1039C000016B40F2013211430163704700BF81690E
:1039D00001F008010029FAD1C16A21F01001C16289
:1039E000016B40F20132914301637047F0B5044628
:1039F0000E4615461F462046FFF7E8FFB6EB051FAB
:103A000005D2206B40F0200020636D0803E0206B9E
:103A100020F020002063F000B0FBF5F0401C4308CC
:103A20009809606203F03F00A062E7620020A06195
:103A30002046FFF7C1FFF0BDF0B5446A856A8E00ED
:103A4000402707FB0457B6FBF7F61660066B06F037
:103A5000200616B1166876001660C66A06F0EE06F5
:103A60001E60F0BDC16A41F01001C1627047C16AB9
:103A700021F01001C162704721B1026B42F00602D1
:103A8000026303E0026B42F0020202637047016BC3
:103A900021F0060101637047C16A21F0E60141F09F
:103AA0006E01C162026B42F0080202637047016B53
:103AB00021F0080101637047026B01F440631A436F
:103AC00002637047026B01F440639A4302637047DC
:103AD0000146086B00F4406070470146886940F277
:103AE000071210407047026B22F440420A430263FF
:103AF00070470146086B00F440407047026B22F0AB
:103B000010020A43026370470146086B00F0100080
:103B1000704701468869012222EA10107047014669
:103B20008869012222EA501070470146886900F036
:103B3000100008B9086870474FF0FF30FBE70146F6
:103B400000BF886900F010000028FAD108687047AB
:103B50000246906900F0200010B911600120704702
:103B60000020FCE700BF826902F02002002AFAD19F
:103B70000160704719B1C26A42F0010202E0C26AF4
:103B800022F00102C262704701468869C0F3C0009A
:103B9000704770B504460D462046FFF7D9FE06462D
:103BA00029463046FEF7E2FB3046FEF73BFC70BD8F
:103BB00070B504462046FFF7CBFE05462846FEF7C3
:103BC0006DFC2846FEF7ECFB70BD826B0A438263F6
:103BD0007047826B8A4382637047024609B1106C5A
:103BE0007047D06BFCE741647047826C0A43826483
:103BF0007047826C8A43826470470146486800F0CF
:103C00000F007047002141607047C0F8C81F70471F
:103C10000146D1F8C80F7047D0F8A41041F4004114
:103C2000C0F8A4107047D0F8A41021F40041C0F8E7
:103C3000A4107047C0F8A410C0F8A82070470A4626
:103C400000BF836903F08803802BFAD1C16A21F099
:103C5000040343F08203C362026000BF836903F080
:103C60008803802BFAD1C16270470000604D0000CC
:103C700000E00F400000FF7000000A10A04D00009F
:103C80000120C749486070470020C5494860704717
:103C9000C348C06C70470120C149C864704700F038
:103CA0001F0201219140BE4A9162704700F01F023D
:103CB00001219140BA4AD16270470146B848806AF2
:103CC00001F01F0301229A40104008B10120704703
:103CD0000020FCE7B24988607047B14880687047AF
:103CE000AF48C068704700F01F0201219140AC4A04
:103CF0005161704700F01F0001F001021AB101226A
:103D00008240A74B9A6101F002021AB1012282405F
:103D1000A34B1A6301F004021AB101228240A04BA6
:103D20009A6301F008021AB1012282409C4B1A6288
:103D3000704700F01F0001F001021AB10122824019
:103D4000974BDA6101F002021AB101228240944BD2
:103D50005A6301F004021AB101228240904BDA63E7
:103D600001F008021AB1012282408D4B5A6270475D
:103D70000146002001F01F01894A926901238B400E
:103D80001A400AB140F00100854A126B01238B40B2
:103D90001A400AB140F00200814A936B01228A4026
:103DA00013400BB140F004007D4A136A01228A409F
:103DB00013400BB140F00800704710B500F03F0011
:103DC000774B9A6802EB00139B68764C23400B43B9
:103DD00002EB0014A36010BD2DE9F04316461F4608
:103DE000079D00F03F00DFF8B881D8F8083003EBFA
:103DF0000018D8F8088043F6F77928EA090400F09B
:103E00002008B8F1000F05D0042901D0062901D1FE
:103E100041F00101A5F1010841EA081848EA04044B
:103E200004F04062B2F1406F06D0920E05FA02FC37
:103E300006EB0C08A8F1010603EB0018C8F80060B7
:103E400004F04042B2F1404F11D0042901D00629BC
:103E500006D140F0200803EB081808F10C0706E033
:103E6000920F05FA02FC07EB0C08A8F1010703EB1F
:103E70000018C8F8047003EB0018C8F80840BDE843
:103E8000F083F0B5144600F01F00454EB268254699
:103E90004E1E05EB06160C3602EB00173E6040F096
:103EA000200602EB06160C3602EB00177E60012698
:103EB000C6EB81063C4F47EA06160BB1062700E029
:103EC00004273E4302EB0017BE6001268640344FB4
:103ED0007E63F0BD10B5014601F03F0130488368B4
:103EE00003EB0110806843F6F77400EA04020AB994
:103EF000002010BD1009401CFBE7014601F03F0106
:103F0000274B9A6802EB01139B6803F0070020F02F
:103F10000103042B03D020F00103062B01D120F074
:103F20000100704770B504460D4629462046FEF74D
:103F30001DFA2046FEF776FA70BD10B504462046FD
:103F4000FEF7ACFA2046FEF72BFA10BD17480068C2
:103F5000704716490860704730B5C3B2000CDC08E2
:103F6000124D0C3505EB84015C07E20E0C680F2541
:103F70009540AC4300FA02F52C430C6030BD0B4970
:103F8000091F09680143094A121F11607047074958
:103F9000091F09688143054A121F1160704700001C
:103FA00000F00F40F73FFC00008000AA04F50F402E
:103FB00030B502466F4B04246F4800686F4D2840AF
:103FC0006F4DA84201D16F4B00BF002108E053F8AC
:103FD0003100904203D103EBC100406830BD491C61
:103FE000A142F4D30020F9E72DE9F04F0C461D461D
:103FF000DDE909C815B94FF0000A01E04FF0040AE5
:1040000057464760B4FBFCF6002100BF891CB6FB95
:10401000F1FAAAF10103FF2BF8D801614FEA827A85
:104020004FEA1A6902F0300249EA032A4AEA020A10
:10403000A8F1010B4AEA0B070760BDE8F08F416861
:1040400041F0020141607047416821F00201416086
:10405000704770B504460D462046FFF7A9FF064697
:1040600029463046FEF782F93046FEF7DBF970BD8F
:1040700070B504462046FFF79BFF05462846FEF72D
:104080000DFA2846FEF78CF970BD42690A43426179
:10409000704742698A4342617047024609B1D0695C
:1040A00070479069FCE70162704700BFC26802F088
:1040B0000202002AFAD0816070470246D06800F000
:1040C000020010B19160012070470020FCE700BFA2
:1040D000C26802F00402002AFAD082680A607047BF
:1040E0000246D06800F0040018B190680860012012
:1040F00070470020FCE7426A0A4342627047426A06
:104100008A43426270470146C868C0F30010704796
:10411000C0F8C81F70470146D1F8C80F7047426801
:1041200022F4E0720A434260704700BFC26802F0A6
:104130000202002AFAD0426842F4006242608160C2
:1041400070470246D06800F0020030B1506840F479
:10415000006050609160012070470020FCE74168DA
:1041600041F4806141607047416821F480614160A1
:1041700070470000E04D000000E00F400000FF70BD
:1041800000000A10004E00000FB4044910B503AA45
:10419000029800F021FA10BC5DF814FB0400002026
:1041A00070B5044685690068C10601D5302600E077
:1041B0002026C00707D070BDD4E9012130469047C2
:1041C000206A401C20626D1EF6D570BD70B5044695
:1041D00085690078C00707D170BDD4E9012120208E
:1041E0009047206A401C20626D1EF6D570BD70B5E8
:1041F0000C460546012A05D02878800600D5EA69D4
:10420000002302E0012305E05B1C934202D2E05C44
:104210000028F9D1A869E618C01AA861286A1844CC
:1042200028622846FFF7BCFF04E0D5E9012114F815
:10423000010B9047B442F8D32846FFF7C7FF70BD83
:104240002DE9F0410646002410687529314615A570
:1042500010D0AFF30080002802DA404212A507E038
:1042600031688A0701D511A502E0490704D510A5D8
:10427000012401E0AFF3008000210A2306F12407A6
:1042800007E0B0FBF3F203FB120030307854104625
:10429000491C0028F5D123462A463046BDE8F041A6
:1042A00000F02AB9000000002D0000002B000000E3
:1042B0002000000070B504460D4621461068AFF39B
:1042C00000802188090502D50F4A7A4402E00E4A8F
:1042D0007A440E32002104F1240305E000F00F06B9
:1042E0000009965D5E54491C0028F7D12078002310
:1042F000000704D5702D02D009B1022311322046E7
:10430000BDE8704000F0F8B8520B00002DE9F05FF6
:10431000894604464FF0000ADFF824B1FB44C0F898
:1043200020A02046E168884700287DD0252806D0B7
:10433000D4E901219047206A401C2062F1E7002562
:104340005F462046E16888472028064607DB312E75
:1043500005D2B81910F8200C08B10543F1E7A807F9
:1043600001D525F00405C4F81CA00027C4F818A046
:104370002A2E09D0304600F0C2F938B304EB870882
:10438000303EC8F8186019E059F8041B204604EBC9
:1043900087029161E1688847012F064618D1E069DC
:1043A000002820DA25F020051DE0D8F8180000EBE1
:1043B000800006EB40003038C8F818002046E1685D
:1043C0008847064600F09BF90028EED1012F0AD05D
:1043D0002E2E08D12046E16888477F1C0646022F12
:1043E00045F02005C4DBA069002803DA404245F00F
:1043F0000105A061E80701D025F01005A6B1A6F1DE
:104400004100192802D8203645F400654A46314655
:10441000204625604D46FBF773FF60B1012807D0A9
:10442000ED1D25F0070000E007E000F1080978E73E
:1044300005F1040975E730467AE7206ABDE8F09F88
:10444000280B000030B505460B462A4613F8014BF1
:1044500012F8010B08B1A042F8D01CB1002802D01C
:104460006D1CF1E7284630BD032A40F2308010F081
:10447000030C00F0158011F8013BBCF1020F6244FF
:1044800098BF11F801CB00F8013B38BF11F8013B90
:10449000A2F1040298BF00F801CB38BF00F8013B3D
:1044A00011F0030300F0AA80083AC0F0088051F828
:1044B000043B083A51F804CBA0E80810F5E7121DB8
:1044C0005CBF51F8043B40F8043BAFF30080D207D7
:1044D00024BF11F8013B11F801CB48BF11F8012BA3
:1044E00024BF00F8013B00F801CB48BF00F8012BC6
:1044F00070477047704770472DE9F0470D46994661
:104500009246044600F124080168880604D5E06953
:1045100021F01001216000E00120A84201DD471BCD
:1045200000E00027A1697A1902EB0900081AA061CE
:104530002078C00602D42046FFF732FE002608E0AD
:10454000D4E901211AF806009047206A401C761C25
:1045500020624E45F4DB2078C0060AD52046FFF7DE
:104560001FFE06E0D4E9012130209047206A401C5C
:104570002062381EA7F10107F4DC07E0D4E901212D
:1045800018F805009047206A401C2062281EA5F1FB
:104590000105F3DC2046FFF719FE2078000602D55E
:1045A0000220BDE8F0870120FBE710B5436913B195
:1045B000AFF3008001E0FFF71AFE012010BD127872
:1045C00000F124010A7000224A700122EDE711680F
:1045D0004FF0FF32E9E70000074B70B50D467B4412
:1045E00000F043F804462846FCF79DFB10B14FF05D
:1045F000FF3070BD204670BD1DC7FFFF10B5203ACB
:10460000C0F00B80B1E81850203AA0E81850B1E88B
:104610001850A0E81850BFF4F5AF5FEA027C24BF41
:10462000B1E81850A0E8185044BF18C918C0BDE838
:1046300010405FEA827C24BF51F8043B40F8043B01
:1046400008BF7047D20728BF31F8023B48BF11F8B6
:10465000012B28BF20F8023B48BF00F8012B704710
:1046600001694A1C02610878704700B58FB0CDE936
:1046700001310021059105497944CDE90310114626
:104680006846FFF743FE0FB000BD0000E5FFFFFFE7
:10469000754600F029F8AE4605006946534620F0FD
:1046A0000700854618B020B5FCF7D8F9BDE82040D2
:1046B0004FF000064FF000074FF000084FF0000BDE
:1046C00021F00701AC46ACE8C009ACE8C009ACE891
:1046D000C009ACE8C0098D4670470446AFF30080BE
:1046E0002046FBF72AFE000000487047542E0020A9
:1046F00001491820ABBEFEE72600020070473038A3
:104700000A2801D201207047002070474FF0407006
:10471000E1EE100A7047636C6561720000000000F2
:10472000000000000000000000007365740000003D
:1047300000000000000000000000000000006765AD
:1047400074000000000000000000000000000000F5
:1047500000006F6E0000000000000000000000007C
:104760000000000000006F6666000000000000000E
:10477000000000000000000000006D6178000000F3
:104780000000000000000000000000000000706F4A
:104790006C6C000000000000000000000000000041
:1047A000000073686F770000000000000000000048
:1047B0000000000000006D6173746572000000006D
:1047C00000000000000000000000736C61766500CE
:1047D00000000000000000000000000000000000D9
:1047E0000040004010000000008005401000000064
:1047F0000050004011000000009005401100000032
:10480000006000401200000000A0054012000000FF
:10481000007000401300000000B0054013000000CD
:10482000004002401400000000C0054014000000D9
:10483000005002402E00000000D005402E00000075
:10484000006002402F00000000E005402F00000043
:10485000007002403000000000F005403000000011
:1048600000D0034046000000000006404600000063
:1048700000100640470000000020064048000000ED
:10488000003006407F00000000400640800000002D
:104890000050064084000000006006408C000000CC
:1048A00000400040100000000080054010000000A3
:1048B0000050004011000000009005401100000071
:1048C000006000401200000000A00540120000003F
:1048D000007000401300000000B00540130000000D
:1048E000004002401400000000C005401400000019
:1048F000005002402E00000000D005402E000000B5
:10490000006002402F00000000E005402F00000082
:10491000007002403000000000F005403000000050
:1049200000D00340430000000000064043000000A8
:104930000010064044000000002006404500000032
:1049400000300640580000000040064059000000BA
:10495000005006405C00000000600640640000005B
:10496000004000400080054000500040009005409D
:104970000060004000A005400070004000B005400D
:104980000040024000C005400050024000D00540F9
:104990000060024000E005400070024000F0054069
:1049A00000D0034000000640001006400010064002
:1049B000002006400020064000300640003006403F
:1049C00000400640004006400050064000500640AF
:1049D000006006400060064000700640007006401F
:1049E000008006400080064000900640009006408F
:1049F00000070000000600000005000000040000A1
:104A000000030000000200000001000000000000A0
:104A10000000000018ED00E01CED00E020ED00E0DB
:104A200000E400E004E400E008E400E00CE400E05E
:104A300010E400E014E400E018E400E01CE400E00E
:104A400020E400E024E400E028E400E02CE400E0BE
:104A500030E400E034E400E038E400E03CE400E06E
:104A600040E400E044E400E048E400E04CE400E01E
:104A700050E400E054E400E058E400E05CE400E0CE
:104A800060E400E064E400E068E400E06CE400E07E
:104A900070E400E074E400E078E400E07CE400E02E
:104AA00080E400E084E400E088E400E000E100E06D
:104AB00004E100E008E100E00CE100E010E100E0CA
:104AC00080E100E084E100E088E100E08CE100E0CA
:104AD00090E100E000E200E004E200E008E200E033
:104AE0000CE200E010E200E080E200E084E200E09E
:104AF00088E200E08CE200E090E200E040420F003B
:104B000000201C0080841E0000802500999E360035
:104B10000040380000093D0000803E0000004B00CE
:104B2000404B4C0000204E00808D5B0000C05D00BB
:104B30000080700000127A0000007D0080969800CE
:104B4000001BB7000080BB00C0E8CE00647ADA002A
:104B50000024F4000000FA0080A81201002D3101A9
:104B600000366E0140787D0140000000000000002A
:104B70003E00080000000000A0000000020000004D
:104B800034540100000000002B70060000000000FB
:104B900028000000000000002700010000000000C5
:104BA0002000000000000000500000000200000093
:104BB0001AAC00000000000017940900000000007B
:104BC000169805000000000014000000000000001E
:104BD0001380080000000000A00000000800000092
:104BE000100000000000000028000000020000008B
:104BF0004000000004000000600000000000000011
:104C00005D000C00000000005000000000000000EB
:104C10004E0002000000000041AC01000000000056
:104C20003C000000000000003A8009000000000085
:104C3000300000000000000028000000000000001C
:104C400027000100000000002360060000000000B3
:104C500021600800000000001E00000000000000AD
:104C60001DC0040000000000500000000200000011
:104C70001800000000000000140000000000000008
:104C800060000000040000000024F4003000300048
:104C9000005A62029100910000879303D200D20073
:104CA00000B4C4041301130100E1F50554015401DB
:104CB000000E27079501950100D0121300389C1CA7
:104CC0000000034023000000001003402500000006
:104CD00000200340270000000030034033000000A4
:104CE0000040034056000000005003406C000000EC
:104CF000006003406E000000007003407000000080
:104D000000C004407200000000D0044074000000A5
:104D100000E004407600000000F00440780000004D
:104D200000000340230000000010034025000000A5
:104D30000020034027000000003003403300000043
:104D4000004003404F0000000050034051000000AD
:104D500000000E407200000000100E4074000000C1
:104D600000C000401500000000D000401600000008
:104D700000E000403100000000F000404B00000067
:104D8000000001404C000000001001404D000000F8
:104D9000002001404E000000003001404F000000A4
:104DA00000C000401500000000D0004016000000C8
:104DB00000E000403100000000F00040480000002A
:104DC0000000014049000000001001404A000000BE
:104DD000002001404B000000003001404C0000006A
:104DE00000800040170000000090004032000000EA
:104DF00000A000404900000000B000404A00000050
:104E000000800040170000000090004032000000C9
:104E100000A000404600000000B000404700000035
:104E200030313233343536373839414243444546E0
:104E300040305800303132333435363738396162DA
:104E400063646566403078000400000800000000DC
:104E5000000000020001000010000000636C6561AA
:104E60007200000073657400000000006765740044
:104E7000000000006F6E00006F666600000000001A
:104E80006D61780000000000706F6C6C0000000025
:104E9000B04E0000000000206C060000A8020000D8
:104EA000D44E00006C0600204C500000E4020000CC
:104EB0000125335C4E33644E336C4E33744E33787D
:104EC0004E33804E03FF884E01FF01FF01FF01FFBB
:044ED00001FF013BA2
:040000050000026D88
:00000001FF
