:020000040000FA
:10000000D0040020BD040000C5040000C7040000A7
:10001000C9040000CB040000CD0400000000000073
:10002000000000000000000000000000CF040000FD
:10003000D104000000000000D3040000D50400003B
:10004000D7040000D9040000DB040000DD04000038
:10005000DF040000E1040000D1050000E504000019
:10006000E7040000E9040000EB040000ED040000D8
:10007000EF040000F1040000F3040000F5040000A8
:10008000F7040000F9040000FB040000FD04000078
:10009000FF04000001050000030500000505000045
:1000A00007050000090500000B0500000D05000014
:1000B0000F050000110500001305000015050000E4
:1000C00017050000190500001B0500001D050000B4
:1000D0001F05000021050000230500002505000084
:1000E0002705000029050000000000002B05000086
:1000F0002D0500002F05000031050000330500002C
:100100003505000037050000390500003B050000FB
:1001100000000000000000003D0500003F05000059
:1001200041050000430500004505000047050000AB
:10013000490500004B0500004D0500004F0500007B
:1001400000000000000000000000000000000000AF
:10015000510500005305000055050000570500003B
:10016000000000000000000000000000000000008F
:10017000000000000000000000000000000000007F
:10018000000000000000000000000000000000006F
:10019000000000000000000000000000000000005F
:1001A000000000000000000000000000000000004F
:1001B000590500005B0500005D0500005F050000BB
:1001C000610500006305000065050000670500008B
:1001D000690500006B0500006D0500006F0500005B
:1001E00071050000730500007505000000000000A7
:1001F0000000000077050000790500007B05000085
:100200007D0500007F0500000000000000000000E8
:1002100081050000830500008505000087050000BA
:10022000890500008B0500008D0500008F0500008A
:10023000910500009305000095050000970500005A
:10024000990500009B0500009D0500009F0500002A
:10025000A1050000A3050000A5050000A7050000FA
:10026000A9050000AB050000AD05000000F002F894
:1002700000F04CF80AA090E8000C82448344AAF1F4
:100280000107DA4501D100F041F8AFF2090EBAE8F2
:100290000F0013F0010F18BFFB1A43F001031847BA
:1002A00018230000382300000A4410F8014B14F012
:1002B0000F0508BF10F8015B240908BF10F8014BB7
:1002C0006D1E05D010F8013B6D1E01F8013BF9D100
:1002D000641E03D0641E01F8015BFBD19142E4D39C
:1002E000704700000023002400250026103A28BF94
:1002F00078C1FBD8520728BF30C148BF0B60704798
:100300001FB501F0A4FE1FBD10B510BD01F068FEC1
:100310001146FFF7F5FF00F082F801F086FE03B406
:10032000FFF7F2FF03BC01F08BFE0000EFF310803B
:1003300072B67047EFF310807047EFF3108062B62B
:10034000704730BF704780F311887047EFF311801A
:10035000704700000138FDD17047000010B54348D8
:1003600001F08AFA424800F0DFFF424800F0DCFF6B
:100370004048001F00F0D8FF3D4800F0D5FF3E4840
:100380003E4908660020C866082301220E213C4829
:1003900000F0D7F901220E21394800F045F90A236F
:1003A00001221121364800F0CCF9002211213448F5
:1003B00000F03AF90321334800F049FC4FF00110F6
:1003C00000F0D2FC304800F0CFFC304801F082FC55
:1003D00000212E4801F0A7FD01F0F8FA0446602341
:1003E0004FF4E1322146294801F08EFC10BD00BFD8
:1003F0002649896901F020010029F9D123490860C3
:10040000704770B50546002403E0285DFFF7EFFF55
:10041000641C284601F0C2FDA042F6D870BD4AF621
:10042000E144FF220221164800F0E0FA18A0FFF78D
:10043000E8FF1CA0FFF7E5FF6120FFF7D8FF14E0FD
:1004400013A0FFF7DEFFE2B20E210D4800F0CEFA56
:100450001948FFF77FFF84EAA40080EAE40080EAFD
:100460006415601040EAC53084B2E9E74005C00178
:10047000011800F0050800F04005400200E00F40C0
:1004800000500240005000400104010000D0004034
:1004900053657269616C204578616D706C650D0AF9
:1004A00000000000507265737320273027206F72A0
:1004B000202731270D0A000060E316003F488047DF
:1004C0003F480047FEE7FEE7FEE7FEE7FEE7FEE700
:1004D000FEE7FEE7FEE7FEE7FEE7FEE7FEE7FEE7F4
:1004E000FEE7FEE7FEE7FEE7FEE7FEE7FEE7FEE7E4
:1004F000FEE7FEE7FEE7FEE7FEE7FEE7FEE7FEE7D4
:10050000FEE7FEE7FEE7FEE7FEE7FEE7FEE7FEE7C3
:10051000FEE7FEE7FEE7FEE7FEE7FEE7FEE7FEE7B3
:10052000FEE7FEE7FEE7FEE7FEE7FEE7FEE7FEE7A3
:10053000FEE7FEE7FEE7FEE7FEE7FEE7FEE7FEE793
:10054000FEE7FEE7FEE7FEE7FEE7FEE7FEE7FEE783
:10055000FEE7FEE7FEE7FEE7FEE7FEE7FEE7FEE773
:10056000FEE7FEE7FEE7FEE7FEE7FEE7FEE7FEE763
:10057000FEE7FEE7FEE7FEE7FEE7FEE7FEE7FEE753
:10058000FEE7FEE7FEE7FEE7FEE7FEE7FEE7FEE743
:10059000FEE7FEE7FEE7FEE7FEE7FEE7FEE7FEE733
:1005A000FEE7FEE7FEE7FEE7FEE7FEE7FEE7000008
:1005B00004480549034A054B704700005D030000ED
:1005C0001F040000D0020020D0040020D002002030
:1005D0001021054801F095FC04E0FF220E2103489C
:1005E00000F004FAF9E7000000D00040005002409B
:1005F00030B50246F84B1824F8480068F84D2840FA
:10060000F84DA84201D1F84B00BF002108E053F893
:100610003100904203D103EBC100406830BD491C5A
:10062000A142F4D30020F9E702F001031BB1D0F896
:1006300000340B4302E0D0F800348B43C0F80034A0
:1006400002F002031BB1D0F820340B4302E0D0F8D3
:1006500020348B43C0F82034704730B50246012067
:100660008840C1B2D2F80034D2F8204403EA010035
:1006700008B1012000E0002004EA01050DB10225C7
:1006800000E00025284330BD02F001031BB1D0F883
:1006900008340B4302E0D0F808348B43C0F8083428
:1006A00002F002031BB1D0F804340B4302E0D0F88F
:1006B00004348B43C0F8043402F004031BB1D0F8B7
:1006C0000C340B4302E0D0F80C348B43C0F80C34EC
:1006D00002F4803323B1D0F8383543F0010303E04E
:1006E000D0F8383523F00103C0F838357047F0B53D
:1006F000024601208840C1B2D2F80834D2F804443E
:10070000D2F80C64D2F8385503EA010008B1012090
:1007100000E0002004EA01070FB1022700E00027F3
:10072000384306EA01070FB1042700E000273843E9
:1007300005F00107384310B14FF48030F0BD0020C0
:10074000FCE7F0B5002416E00125A5400D4085B179
:10075000D0F8C45F67000326BE40B543C0F8C45F4D
:10076000D0F8C45F6700C2F34116BE403543C0F8FD
:10077000C45F651CECB2082CE6DB02F001051DB17C
:10078000D0F800550D4302E0D0F800558D43C0F875
:10079000005502F002051DB1D0F804550D4302E0EA
:1007A000D0F804558D43C0F8045502F004051DB17E
:1007B000D0F808550D4302E0D0F808558D43C0F835
:1007C000085502F008051DB1D0F818550D4302E098
:1007D000D0F818558D43C0F8185502F010051DB11A
:1007E000D0F83C550D4302E0D0F83C558D43C0F89D
:1007F0003C5503F001051DB1D0F80C550D4302E046
:10080000D0F80C558D43C0F80C5503F002051DB10E
:10081000D0F810550D4302E0D0F810558D43C0F8C4
:10082000105503F004051DB1D0F814550D4302E036
:10083000D0F814558D43C0F8145503F008051DB1C8
:10084000D0F81C550D4302E0D0F81C558D43C0F87C
:100850001C5503F400751DB1D0F844550D4302E05A
:10086000D0F844558D43C0F8445503F440751DB18C
:10087000D0F840550D4302E0D0F840558D43C0F804
:1008800040551BB9D0F828550D4302E0D0F8285543
:100890008D43C0F82855F0BDF0B514461D4601261D
:1008A0008E40F1B2D0F800650E400EB1012600E096
:1008B00000263246D0F804650E400EB1022600E054
:1008C00000263243D0F808650E400EB1042600E041
:1008D00000263243D0F818650E400EB1082600E01D
:1008E00000263243D0F83C650E400EB1102600E0E1
:1008F00000263243D0F8C46F4F00FE4006F00306D6
:1009000042EA46122260D0F80C650E400EB1012674
:1009100000E000263346D0F810650E400EB10226E6
:1009200000E000263343D0F814650E400EB10426D3
:1009300000E000263343D0F81C650E400EB10826B7
:1009400000E000263343D0F840650E404EB1D0F8A9
:1009500044650E4016B14FF4007601E04FF4807606
:1009600033432B60F0BDD0F810240A43C0F81024A4
:100970007047D0F810248A43C0F81024704702460C
:1009800011B1D2F818047047D2F81404FBE7C0F88C
:100990001C14704770B504460D462046FFF728FE2C
:1009A00006462946304600F031FA304600F08AFA11
:1009B00070BD70B504462046FFF71AFE054628466E
:1009C00000F0BCFA284600F03BFA70BD0246002059
:1009D00000EB8100105870475820000000E00F40E5
:1009E0000000FF7000000A1018210000002303EB34
:1009F0008103C250704730B504460D460022294697
:100A00002046FFF711FE0023012229462046FFF76A
:100A100098FE30BD30B504460D46022229462046D8
:100A2000FFF702FE0823662229462046FFF789FECB
:100A300030BD30B504460D46002229462046FFF75A
:100A4000F3FD0023012229462046FFF77AFE30BD40
:100A500030B504460D46022229462046FFF7E4FD44
:100A60000823012229462046FFF76BFE30BD30B532
:100A700004460D46022229462046FFF7D5FD0823ED
:100A8000662229462046FFF75CFE30BD30B504469D
:100A90000D46022229462046FFF7C6FD082366229E
:100AA00029462046FFF74DFE30BD30B504460D46C1
:100AB000022229462046FFF7B7FD08236622294671
:100AC0002046FFF73EFE30BD30B504460D460022FD
:100AD00029462046FFF7A8FD082301222946204683
:100AE000FFF72FFE30BD30B504460D460823012226
:100AF00029462046FFF725FE012229462046FFF71A
:100B000093FD30BD30B504460D4609230122294628
:100B10002046FFF716FE012229462046FFF784FDF6
:100B200030BD30B504460D46022229462046FFF767
:100B30007BFD0923012229462046FFF702FE30BD36
:100B400030B504460D46022229462046FFF76CFDCB
:100B50000823012229462046FFF7F3FD30BD30B5BA
:100B600004460D46022229462046FFF75DFD082374
:100B7000662229462046FFF7E4FD30BD30B5044625
:100B80000D46022229462046FFF74EFD0823662225
:100B900029462046FFF7D5FD30BD30B504460D4649
:100BA000002229462046FFF73FFD00230122294667
:100BB0002046FFF7C6FD30BD30B504460D46022283
:100BC00029462046FFF730FD08230122294620460A
:100BD000FFF7B7FD30BD30B504460D460222294669
:100BE0002046FFF721FD0823012229462046FFF772
:100BF000A8FD30BD30B504460D46022229462046E8
:100C0000FFF712FD0A23012229462046FFF799FD2E
:100C100030BD30B504460D46022229462046FFF776
:100C200003FD0823012229462046FFF78AFD30BD37
:100C300030B504460D46022229462046FFF7F4FC53
:100C40000823012229462046FFF77BFD30BD30B541
:100C500004460D46022229462046FFF7E5FC0823FC
:100C6000012229462046FFF76CFD30BD30B5044611
:100C70000D46002229462046FFF7D6FC002301221C
:100C800029462046FFF75DFD30BD30B504460D46D0
:100C9000022229462046FFF7C7FC082301222946E5
:100CA0002046FFF74EFD30BD30B504460D4600220C
:100CB00029462046FFF7B8FC4FF40273012229466B
:100CC0002046FFF73EFD30BD30B504460D460022FC
:100CD00029462046FFF7A8FC4FF4847301222946D9
:100CE0002046FFF72EFD30BD30B504460D460222EA
:100CF00029462046FFF798FC082301222946204672
:100D0000FFF71FFD30BD30B504460D4602222946CF
:100D10002046FFF789FC0A23012229462046FFF7D7
:100D200010FD30BD30B504460D460222294620464E
:100D3000FFF77AFC0823662229462046FFF701FDCB
:100D400030BD30B504460D46022229462046FFF745
:100D50006BFC0823012229462046FFF7F2FC30BD38
:100D6000014601F5A960704710B50146C1F307407F
:100D70001B4BDB6E01248440234033B1012303EB82
:100D80004003184C54F8230003E04300154C54F87A
:100D90002300C1F30722D0F82C350F249440A3433D
:100DA00001F00F0494402343C0F82C3510BDD0F857
:100DB00034250A43C0F834257047D0F834258A43D7
:100DC000C0F834257047D0F830250A43C0F83025E4
:100DD0007047D0F830258A43C0F8302570470000AE
:100DE00000E00F40D821000000BFFEE710B5FFF77C
:100DF000A4FA08B1012010BD0020FCE710B5FFF7F0
:100E000095FA08B1012010BD0020FCE730B502467C
:100E1000B64C2468B64DAC420ED0B44C23680020CA
:100E200005E053F82040B24D45F82040401C9B2877
:100E3000F7D3AF4CAD4D2C60AD4C44F8221030BD13
:100E4000AC49AB4A42F820107047AB4951F820102A
:100E5000AA4A1143A54A121D11607047A34A121DE8
:100E6000126802F4E061002006E0A34A52F8202054
:100E70008A4200D102E0401C0828F6D300BF704728
:100E800010B50A4683089E4C54F82330196883072E
:100E9000DC0EFF23A34099438307DB0E02FA03F322
:100EA00019438308964C54F82330196010BD01464D
:100EB0008808934A52F8200000688A07D20ED04072
:100EC000C0B27047042808D188491C31096841F430
:100ED0008031864A1C3211602FE0052808D18349F1
:100EE0001C31096841F40031804A1C32116024E051
:100EF000062808D17D491C31096841F480217B4ACC
:100F00001C32116019E00F2808D14FF0E021096967
:100F100041F002014FF0E02211610EE010280CD3E5
:100F2000A0F1100101F01F0201219140A0F1100277
:100F30005209744B53F8222011607047042808D1DD
:100F40006A491C31096821F48031684A1C321160F9
:100F50002FE0052808D165491C31096821F40031CA
:100F6000624A1C32116024E0062808D15F491C3116
:100F7000096821F480215D4A1C32116019E00F28B4
:100F800008D14FF0E021096921F002014FF0E02281
:100F900011610EE010280CD3A0F1100101F01F0226
:100FA00001219140A0F110025209574B53F8222021
:100FB0001160704710B501460020042905D14B4A45
:100FC0001C32126802F4803028E0052905D1474A16
:100FD0001C32126802F4003020E0062905D1434A91
:100FE0001C32126802F4802018E00F2905D14FF05E
:100FF000E022126902F0020010E010290ED3A1F1E4
:10100000100252093F4B53F822201268A1F110033D
:1010100003F01F040123A34002EA030010BD0228CD
:1010200008D13249091F096841F000412F4A121FB7
:10103000116024E00E2808D12C49091F096841F0ED
:1010400080512A4A121F116019E00F2808D1274940
:10105000091F096841F08061244A121F11600EE0E7
:1010600010280CD3A0F1100101F01F0201219140C2
:10107000A0F110025209254B53F82220116070474D
:101080000E2808D11949091F096841F00061174A63
:10109000121F116019E00F2808D11449091F0968AF
:1010A00041F00071114A121F11600EE010280CD39C
:1010B000A0F1100101F01F0201219140A0F11002E6
:1010C0005209134B53F822201160704710B50446A3
:1010D0002046FFF738F910BD10B5FFF737F910BDFE
:1010E000A0F110010B4A11607047000008ED00E00C
:1010F00000000020E90D0000682200000000FA0551
:101100008822000024230000382300004C23000024
:101110006023000000EF00E0024600210AE0F748EB
:1011200050F83100904204D3F44800EBC10040680D
:101130007047491C0629F2D30020F9E7F0B50146B3
:10114000DFF8BCC3DCF860C1CCF38923DFF8B0C39F
:10115000DCF860C1CCF30905DFF8A4C3DCF864C196
:10116000CCF3042C0CF10106DFF894C3DCF864C165
:101170000CF01F0C0CF10107B1FBF7F15A09A3EBBE
:10118000421401FB05F001FB02FC00EB5C1001FBCB
:1011900004FC00EB9C20B0FBF6F0F0BDD8483C38D6
:1011A0000068401C00027047D5480068D5490840D7
:1011B000D549884206D1D24880680004400900F52C
:1011C00000607047CE484038006880B2401CC002C2
:1011D000F7E7CB480068CB490840CC49884209D1A1
:1011E000C74840380068C0F302400A30012101FAC4
:1011F00000F070474FF48060FBE70146C1F3072021
:10120000C34A104400F0704040F00070C1F3072260
:10121000BF4B1A44C2F3130240EA4210CAB240EA7A
:101220008200006808B1012070470020FCE70146F9
:10123000C1F30720B74A104400F0704040F000703E
:10124000C1F30722B34B1A44C2F3130240EA42101F
:10125000CAB240EA8200006808B10120704700204D
:10126000FCE710B50121C0F30722AB4B1A4402F092
:10127000704242F00072C0F30723A74C2344C3F32B
:10128000130342EA4312C3B242EA8302116010BD63
:1012900010B50021C0F307229F4B1A4402F07042A0
:1012A00042F00072C0F307239B4C2344C3F31303A3
:1012B00042EA4312C3B242EA8302116010BD18B57C
:1012C0000121C0F30722954B1A4402F0704242F00C
:1012D0000072C0F30723914C2344C3F3130342EA83
:1012E0004312C3B242EA830211600021009102E07E
:1012F0000099491C009100991029F9D30021C0F3ED
:101300000722864B1A4402F0704242F00072C0F38A
:101310000723824C2344C3F3130342EA4312C3B2AC
:1013200042EA8302116018BD10B50121C0F3072203
:101330007B4B1A4402F0704242F00072C0F3072364
:10134000774C2344C3F3130342EA4312C3B242EA85
:101350008302116010BD10B50021C0F30722704B4D
:101360001A4402F0704242F00072C0F307236C4C42
:101370002344C3F3130342EA4312C3B242EA830293
:10138000116010BD10B50121C0F30722654B1A444E
:1013900002F0704242F00072C0F30723614C234414
:1013A000C3F3130342EA4312C3B242EA8302116059
:1013B00010BD10B50021C0F307225A4B1A4402F0A9
:1013C000704242F00072C0F30723564C2344C3F32B
:1013D000130342EA4312C3B242EA8302116010BD12
:1013E00010B50121C0F307224F4B1A4402F070429E
:1013F00042F00072C0F307234B4C2344C3F31303A2
:1014000042EA4312C3B242EA8302116010BD10B532
:101410000021C0F30722444B1A4402F0704242F00C
:101420000072C0F30723404C2344C3F3130342EA82
:101430004312C3B242EA8302116010BD3049096809
:10144000304A1140304A91420ED130B12C49096ED8
:1014500041F000612A4A116618E02949096E21F01D
:101460000061274A116611E040B12549B031096891
:1014700041F00051224AC2F8B01007E02049B031D3
:10148000096821F000511E4AC2F8B010704710B52B
:10149000044621462C20FFF7B9FC2C20FFF712FD53
:1014A00010BD10B52C20FFF749FD2C20FFF7C8FC1C
:1014B00010BD1349496D0143114A516570471049E8
:1014C000496D81430E4A516570470D4988657047E3
:1014D000014611B10A48806D70470948006DFBE76D
:1014E0001249086070471148006870470F49083179
:1014F000086070470D4808300068704700250000FC
:1015000000E00F400000FF700000051000000A100E
:1015100000E30F4000EA0F4000E90F4000E50F40F4
:1015200000E60F4000E70F4000E80F40B4E10F4035
:10153000FB4908607047FA49091D08607047F9487F
:10154000F949086000BFFEE710B5FEF7FAFE10BDCE
:1015500010B5F548001D006840F00400F249091D6F
:101560000860FEF7EEFEF048001D006820F0040061
:10157000ED49091D086010BDEC48C06D7047EB498E
:10158000C96D8143E94AD1657047E849C86770472A
:101590000146E748084050B101F00040E04A383ABF
:1015A0001060E34881380840E04AC2F85001DC4846
:1015B0003838016001F4007088B100BFD848343871
:1015C000006800F440700028F8D0D548343800682E
:1015D00000F44070B0F5807F01D0002070470120FA
:1015E000FCE7CF49503108607047CD485030006863
:1015F00070472DE9FE4F05468A46CC480068CD4924
:101600000840CD49884202D10020BDE8FE8FC5F3D5
:10161000841605F03800102805D1DFF82093002744
:1016200000BF152633E005F03800302804D147F21A
:1016300030594FF400172AE005F03800382804D15B
:101640004FF400494FF4800721E005F03800D8B985
:101650001A2E01DC092E01DA0020D6E7B84850F82E
:1016600026904FF4401747F04077B048C06F20F005
:101670001C000190072E03DB019840F01000019040
:10168000AA490198C86702E04FF00009002705F455
:10169000605000287ED105F0380028B105F03800F0
:1016A000102801D00020B0E7C5F3026BA548FFF772
:1016B00033FD9E49C03108609C48D0F8B000A24973
:1016C00000EA010444F000449848B0300460093E48
:1016D0000BEBCB009D4901EB001000EBC60040680E
:1016E0009249D1F8641188420DD10BEBCB00974998
:1016F00001EB001050F8360040F40000884928390A
:101700000968884202D00120009001E0002000908A
:10171000009808B38548B030006838438349C1F861
:10172000B0000BEBCB00894901EB001000EBC600C9
:1017300040687B49243908600BEBCB00834901EBFF
:10174000001050F8360076492839096801F4000184
:1017500008437349283908607D4850F82B005044ED
:10176000401EB0FBFAF84846FFF7E8FCB0FBF8FA79
:101770005046FFF7D1FC6D49C03108606B48D0F886
:10178000600100F4000068B10098012812D1674898
:10179000B03000E034E0006840F080406349C1F8B8
:1017A000B00007E05E482838006840F400005F4958
:1017B000C1F860014FF40040029009E05848203819
:1017C000006800F0010000B105E00298401E0290A0
:1017D00002980028F2DC00BF029870B15348B03084
:1017E0000468A8F10100384340F08050044344F0FD
:1017F00000444E48C0F8B0403CE04FF0000A39E0E9
:101800004E48FFF789FC4949C03108604748D0F885
:10181000600120F400004549C1F860010846D0F895
:10182000B0404C48044044F000444048B0300460AC
:10183000BAF1000F02D14FF000080AE0B9FBFAF844
:10184000B8F1000F01D0A8F1010808F10100B9FBBF
:10185000F0FA5046FFF760FC3449C0310860334865
:10186000D0F8B04047EA8820044344F000442F48B1
:10187000B03004605046C8E62DE9F04106462B48DA
:10188000046E056F44F4006424F4800445F400659C
:101890000466056704F00100D8B106F00100C0B984
:1018A00066F0010004404FF48070204988650846C6
:1018B00004664FF4002702E07F1E07B905E01B48CD
:1018C000006D00F480700028F6D000BF0FB9BDE8AD
:1018D000F08124F4FE6406F4FE6004431E480540D3
:1018E0001D49A13106EA0100054306F0080045EA5A
:1018F000C0050E480466056724F4005406F4005041
:10190000044325F4005506F40050054340200749E0
:10191000886505F0004008B308460567046620E0C6
:1019200088E10F400400FA050CED00E000E00F40F4
:10193000000100800000FF70000005100024F4008A
:101940007423000040787D0100FC0FE0E0230000DC
:1019500030250000FF0300EF8FFFFF7FB5480466CE
:101960000567B5480440C14306EA0100044325F079
:10197000FC5506F0FC50054306F0804040B144F4AD
:10198000800425F48005AD4906EA0100054301E025
:1019900025F0804506F4006080B94FF4004706E06A
:1019A000A748006800F0010000B102E07F1E002F90
:1019B000F6D100BF24F4006425F400659D48046658
:1019C00005671020FEF7C6FC00BF80E7F0B5994818
:1019D000036E026F02F0004010B102F0700001E0EF
:1019E00003F03000202811D003DC38B1102815D1C5
:1019F0000AE030280CD0702810D10CE09148C3F3D5
:101A0000841750F827100BE08F4909E08F4907E051
:101A100047F2305104E04FF4004101E00020F0BDF6
:101A200000BF4FF0FF3402F0004010B102F400603C
:101A300028B102F0004098BB03F4006080BB8048EE
:101A4000083805687B48D0F8646106F01F00401C28
:101A5000C6F304277F1C10FB07F04000B1FBF0F138
:101A6000C5F309004843C5F389274F4300EB97218D
:101A700043F480036F48006900F47040B0F5804F74
:101A800013D006DCB0F5005F0BD0B0F5405F12D18B
:101A900009E0B0F5E04F0AD0B0F5104F0BD108E0E7
:101AA0000BE06B4C08E06B4C06E06B4C04E06B4CBD
:101AB00002E06B4C00E000BF00BF03F4800018B3ED
:101AC00002F00040D8B102F0804090B102F0004036
:101AD00010B102F4006028B102F0004048B903F4EC
:101AE000006030B94F00C2F38650401CB7FBF0F1E4
:101AF0000AE0C2F3C550401CB1FBF0F104E0C3F3AF
:101B0000C350401CB1FBF0F18C4200D22146084684
:101B100085E74B4924390860704710B50246454BAC
:101B20001B68504C2340504CA34208D121F0FC5478
:101B3000531E44EAC353424C243C236023E0501E0E
:101B400001F0700333B1102B0ED0302B05D0702B69
:101B500009D105E040F4401007E040F4001004E033
:101B600040F4800001E000BF00BF00BF01F00203AD
:101B70000BB140F0004001F080430BB140F08040D9
:101B80002F4B243B186010BD2A49096E21F4F01137
:101B90000143284A116670472648006E00F4801001
:101BA00008B9002070472348006E00F4F010F9E7F0
:101BB0002049C96E00F00F0301229A4011431D4ACB
:101BC000D16670471B49C96E00F00F0301229A408D
:101BD0009143184AD16670471648006F20F4804040
:101BE0001449086770471348006F40F4804011495A
:101BF000086770470F49886370470E48006E70474A
:101C00000C49096E01430B4A116670470948406E42
:101C100070470849496E8143064A516670474A1E1B
:101C2000D2B20243064B203B1A6070470449303958
:101C30000860704700E00F40FEFF3FF800004040A2
:101C400068E10F40742300000024F40000093D0007
:101C500000B4C40480F0FA02005A620240787D01A8
:101C6000002D31010000FF700000051030B5024664
:101C7000C54B0824C5480068C54D2840C54DA8423D
:101C800001D1C54B00BF002108E053F8310090425C
:101C900003D103EBC100406830BD491CA142F4D31D
:101CA0000020F9E7C26A22F086020A43C262704746
:101CB0000146C86A00F08600704741EA02034363A8
:101CC000704710B5436B03F007040C6003F0380451
:101CD000146010BDC16A41F01001C162016B40F295
:101CE000013211430163704700BF816901F00801AF
:101CF0000029FAD1C16A21F01001C162016B40F2E2
:101D00000132914301637047F0B504460E46154613
:101D10001F462046FFF7E8FFB6EB051F05D2206BF4
:101D200040F0200020636D0803E0206B20F02000CD
:101D30002063F000B0FBF5F0401C43089809606296
:101D400003F03F00A062E7620020A0612046FFF799
:101D5000C1FFF0BDF0B5446A856A8E00402707FBDD
:101D60000457B6FBF7F61660066B06F0200616B1B0
:101D7000166876001660C66A06F0EE061E60F0BDB4
:101D8000C16A41F01001C1627047C16A21F01001BF
:101D9000C162704721B1026B42F00602026303E0A8
:101DA000026B42F0020202637047016B21F00601F0
:101DB00001637047C16A21F0E60141F06E01C16222
:101DC000026B42F0080202637047016B21F00801C8
:101DD00001637047026B01F440631A43026370476A
:101DE000026B01F440639A43026370470146086B3B
:101DF00000F4406070470146886940F207121040C5
:101E00007047026B22F440420A4302637047014666
:101E1000086B00F440407047026B22F010020A4346
:101E2000026370470146086B00F0100070470146DE
:101E30008869012222EA1010704701468869012250
:101E400022EA501070470146886900F0100008B976
:101E5000086870474FF0FF30FBE7014600BF886914
:101E600000F010000028FAD1086870470246906917
:101E700000F0200010B91160012070470020FCE73D
:101E800000BF826902F02002002AFAD10160704787
:101E900019B1C26A42F0010202E0C26A22F00102F4
:101EA000C262704701468869C0F3C000704770B5D0
:101EB00004460D462046FFF7D9FE06462946304621
:101EC000FEF7A4FF3046FEF7FDFF70BD70B5044677
:101ED0002046FFF7CBFE05462846FFF72FF8284699
:101EE000FEF7AEFF70BD826B0A4382637047826B60
:101EF0008A4382637047024609B1106C7047D06B09
:101F0000FCE741647047826C0A4382647047826CCC
:101F10008A43826470470146486800F00F007047AA
:101F2000002141607047C0F8C81F70470146D1F8D2
:101F3000C80F7047D0F8A41041F40041C0F8A410B5
:101F40007047D0F8A41021F40041C0F8A4107047E5
:101F5000C0F8A410C0F8A82070470A4600BF8369E3
:101F600003F08803802BFAD1C16A21F0040343F007
:101F70008203C362026000BF836903F08803802B81
:101F8000FAD1C162704700003825000000E00F4020
:101F90000000FF7000000A107825000010B5431CF7
:101FA00002E010F8011B71B18107FAD14FF0013244
:101FB00002C88C1A8C4314EAC211F9D0C01A0A065E
:101FC00003D0C01E10BDC01A10BD0A0401D0801E6F
:101FD00010BD0902FCD0401E10BD7047704770470D
:101FE000754600F029F8AE4605006946534620F0D4
:101FF0000700854618B020B5FEF7DAFABDE82040A4
:102000004FF000064FF000074FF000084FF0000BB4
:1020100021F00701AC46ACE8C009ACE8C009ACE867
:10202000C009ACE8C0098D4670470446AFF3008094
:102030002046FEF774F90000004870476C0200204B
:1020400001491820ABBEFEE72600020070474FF0A2
:102050004070E1EE100A70470040004010000000A0
:1020600000800540100000000050004011000000FA
:1020700000900540110000000060004012000000C8
:1020800000A0054012000000007000401300000096
:1020900000B00540130000000040024014000000A2
:1020A00000C0054014000000005002402E00000057
:1020B00000D005402E000000006002402F0000000C
:1020C00000E005402F0000000070024030000000DA
:1020D00000F005403000000000D003404600000042
:1020E00000000640460000000010064047000000C7
:1020F0000020064048000000003006407F0000003D
:1021000000400640800000000050064084000000AF
:10211000006006408C0000000040004010000000FD
:102120000080054010000000005000401100000039
:102130000090054011000000006000401200000007
:1021400000A00540120000000070004013000000D5
:1021500000B00540130000000040024014000000E1
:1021600000C0054014000000005002402E00000096
:1021700000D005402E000000006002402F0000004B
:1021800000E005402F000000007002403000000019
:1021900000F005403000000000D003404300000084
:1021A000000006404300000000100640440000000C
:1021B00000200640450000000030064058000000A6
:1021C0000040064059000000005006405C0000003E
:1021D00000600640640000000040004000800540B0
:1021E00000500040009005400060004000A0054005
:1021F0000070004000B005400040024000C00540B3
:102200000050024000D005400060024000E0054060
:102210000070024000F0054000D00340000006407E
:102220000010064000100640002006400020064036
:1022300000300640003006400040064000400640A6
:102240000050064000500640006006400060064016
:102250000070064000700640008006400080064086
:1022600000900640009006400007000000060000B5
:102270000005000000040000000300000002000050
:1022800000010000000000000000000018ED00E068
:102290001CED00E020ED00E000E400E004E400E0DC
:1022A00008E400E00CE400E010E400E014E400E0E6
:1022B00018E400E01CE400E020E400E024E400E096
:1022C00028E400E02CE400E030E400E034E400E046
:1022D00038E400E03CE400E040E400E044E400E0F6
:1022E00048E400E04CE400E050E400E054E400E0A6
:1022F00058E400E05CE400E060E400E064E400E056
:1023000068E400E06CE400E070E400E074E400E005
:1023100078E400E07CE400E080E400E084E400E0B5
:1023200088E400E000E100E004E100E008E100E012
:102330000CE100E010E100E080E100E084E100E079
:1023400088E100E08CE100E090E100E000E200E0E4
:1023500004E200E008E200E00CE200E010E200E04D
:1023600080E200E084E200E088E200E08CE200E04D
:1023700090E200E040420F0000201C0080841E001C
:1023800000802500999E36000040380000093D007D
:1023900000803E0000004B00404B4C0000204E00EF
:1023A000808D5B0000C05D000080700000127A002C
:1023B00000007D0080969800001BB7000080BB00E5
:1023C000C0E8CE00647ADA000024F4000000FA00CD
:1023D00080A81201002D310100366E0140787D0188
:1023E00040000000000000003E0008000000000067
:1023F000A0000000020000003454010000000000B2
:102400002B70060000000000280000000000000003
:102410002700010000000000200000000000000074
:1024200050000000020000001AAC00000000000094
:102430001794090000000000169805000000000035
:1024400014000000000000001380080000000000DD
:10245000A0000000080000001000000000000000C4
:1024600028000000020000004000000004000000FE
:1024700060000000000000005D000C000000000093
:1024800050000000000000004E00020000000000AC
:1024900041AC0100000000003C0000000000000012
:1024A0003A80090000000000300000000000000039
:1024B00028000000000000002700010000000000CC
:1024C00023600600000000002160080000000000FA
:1024D0001E000000000000001DC0040000000000FD
:1024E0005000000002000000180000000000000082
:1024F0001400000000000000600000000400000064
:102500000024F40030003000005A62029100910073
:1025100000879303D200D20000B4C4041301130156
:1025200000E1F50554015401000E270795019501BE
:1025300000D0121300389C1C00C0004015000000A1
:1025400000D000401600000000E000403100000014
:1025500000F000404B000000000001404C00000073
:10256000001001404D000000002001404E0000001E
:10257000003001404F00000000C000401500000086
:1025800000D000401600000000E0004031000000D4
:1025900000F0004048000000000001404900000039
:1025A000001001404A000000002001404B000000E4
:1025B000003001404C000000D82500000000002041
:1025C0006C020000A8020000E02500006C02002060
:1025D00064020000E402000001FF01FF017100003D
:040000050000026D88
:00000001FF
